:100000000C946E010C949F010C949F010C949F0121
:100010000C949F010C949F010C949F010C949F01E0
:100020000C949F010C949F010C949F010C949F01D0
:100030000C949F010C949F010C949F010C94F00967
:100040000C949F010C949F010C949F010C949F01B0
:100050000C949F010C949F010C949F010C944709F0
:100060000C949F010C94BB090C9491090C949F0172
:100070000C949F010C949F010C949F010C949F0180
:100080000C949F010C949F010C949F010C949F0170
:100090000C949F010C949F010C949F010C949F0160
:1000A0000C949F010C949F010C949F010C949F0150
:1000B0000C949F010C949F010C949F010C949F0140
:1000C0000C949F010C949F010C949F010C949F0130
:1000D0000C949F010C949F010C949F010C949F0120
:1000E0000C949F01F901FC01EB01EF01F5013302D2
:1000F000000204020A020E02120218021C0220026E
:10010000330226022A022E020C94660A0C94F10491
:100110000C9438050C9441030C94A7040C94D1055D
:100120000C949E050C94FC010C9402030C94EF01BA
:100130000C94EB010C944C040C9437060C946B0556
:100140000C944F060C94D1040C9404020C94F50109
:100150000C9462030C9494060C941C020C9494036B
:100160000C94CC040C942A020C9426020C94F907EB
:100170000C9431030C94C60C0C9400020C940406ED
:100180000C9418020C94AC040C94F9010C945403D4
:100190000C940E020C9420020C9487040C942E02F2
:1001A0000C94DB030C9412020C946F060C94330233
:1001B0000C9464040C940A02000020002300260022
:1001C00029002C002F00320000010000030106016D
:1001D000090100000A0B02090C0D0E0807030401B7
:1001E000000000000000000000000000000000000F
:1001F00000000000000000000000000000001211DC
:1002000010000000000000000000000000000000DE
:10021000000000000000000000002200250028006F
:100220002B002E00310034000201000005010801FE
:100230000B0100002100240027002A002D003000BF
:10024000330001010000040107010A01050505054D
:10025000070508080808020202020A0A080804043E
:10026000040401010101010101010303030303036C
:100270000303040707070C0C0C0C0C0C0C0C0202FB
:10028000020206060606060606060B0B0B0B0B0BF8
:100290000B0B010210202008081020401020408085
:1002A000020102010804020101020408102040803A
:1002B00080402010080402018004020180402010C8
:1002C0000804020108040201010204081020408011
:1002D0000102040810204080660AC60C11241FBECB
:1002E000CFEFD1E2DEBFCDBF00E00CBF26E0A8E13A
:1002F000B3E001C01D92A73CB207E1F713E0A0E014
:10030000B2E0E6E6FFE100E00BBF02C007900D920D
:10031000A831B107D9F711E0CDE6D1E000E006C081
:1003200021970109802FFE010E946E0DCC36D10766
:1003300080E00807A9F70E94460B0C94A10F0C94CB
:100340000000E4E7F3E0A089B18982E08C93A48502
:10035000B5851C92A685B78580E18C93108EA48903
:10036000B58986E08C93A289B3898C9180618C9346
:10037000A289B3898C9188608C93A289B3898C916E
:1003800080688C930288F389E02D80818F7D808343
:10039000089520911505309116058217930760F492
:1003A00020911105309112052115310529F0F9012F
:1003B000E80FF91F8081089580E0089590E0FC0126
:1003C0003197E231F10508F04EC08827EE58FF4F13
:1003D0008F4F0C946E0D809180008F7703C08091B9
:1003E00080008F7D80938000089580918000877FBA
:1003F000F9CF84B58F7702C084B58F7D84BD089511
:100400008091B0008F7703C08091B0008F7D809382
:10041000B0000895809190008F7707C08091900080
:100420008F7D03C080919000877F80939000089516
:100430008091A0008F7707C08091A0008F7D03C0BE
:100440008091A000877F8093A00008958091200173
:100450008F7707C0809120018F7D03C0809120019C
:10046000877F809320010895CF93DF93282F30E07A
:10047000F901EE52FE4F8491F901EE56FD4FD491F1
:10048000F901E45BFD4FC491CC2391F081110E94EE
:10049000DE01EC2FF0E0EE0FFF1FE854FE4FA591B8
:1004A000B491EC91ED2381E090E021F480E002C072
:1004B00080E090E0DF91CF910895CF93DF93EC013E
:1004C000CC0FDD1FFE01EE52FD4F80819181813006
:1004D0009105C1F5FE01EC50FD4F80810E94340270
:1004E000892BD1F5FE01EE5AFC4F80819181009756
:1004F00061F4FE01E05DFC4F11821082CE5ADC4FA8
:1005000081E090E09983888303C0019719F081E02E
:1005100090E045C0FE01E05DFC4F80819181019635
:1005200091838083843F914094F3FE01E05DFC4F12
:1005300011821082CE5ADC4F82E090E0998388834A
:1005400080E0E6CF892B19F7FE01EC50FD4F80814A
:100550000E943402892B29F0CE5ADC4F198218826E
:10056000D6CFFE01EE5AFC4F208131812115310595
:1005700009F4BFCF2130310561F4FE01E05DFC4F8D
:10058000808191810196918380838C3291406CF6B9
:10059000BECF81E090E02230310509F480E0DF91A8
:1005A000CF9108951F93CF93DF93282F30E0F90167
:1005B000EE52FE4F8491F901EE56FD4FD491F901B0
:1005C000E45BFD4FC491CC23C9F0162F81110E942A
:1005D000DE01EC2FF0E0EE0FFF1FE85EFD4FA5916E
:1005E000B4918FB7F894111105C09C91ED2FE0954F
:1005F000E92302C0EC91ED2BEC938FBFDF91CF91FB
:100600001F910895CF92DF92EF92FF920F931F9365
:10061000CF93DF936C017A018B01C0E0D0E0CE155F
:10062000DF0589F0D8016D918D01D601ED91FC9126
:100630000190F081E02DC6011995892B11F47E01FE
:1006400002C02196ECCFC701DF91CF911F910F918E
:10065000FF90EF90DF90CF900895089580E090E0B4
:100660000895FC01538D448D252F30E0842F90E0B8
:10067000821B930B541718F081589F4F08950197D0
:100680000895FC01918D828D981759F0828DDF01BC
:10069000A80FB11D5D968C91928D9F5F928F90E017
:1006A00008958FEF9FEF0895FC01918D828D98172B
:1006B00031F0828DE80FF11D858D90E008958FEF68
:1006C0009FEF0895FC01918D828D981B892F90E0FA
:1006D000089584E793E00E94620321E0892B09F4E6
:1006E00020E0822F0895FC01848DDF01A80FB11D49
:1006F000A35EBE4F2C91848D90E001968F77992751
:10070000848FA689B7892C93A089B1898C91806444
:100710008C93938D848D981306C00288F389E02D05
:1007200080818F7D80830895EF92FF920F931F93B6
:10073000CF93DF93EC0181E0888F9B8D8C8D981394
:1007400005C0E889F989808185FD24C0F62E0B8DCE
:1007500010E00F5F1F4F0F771127E02E8C8DE812EE
:100760000CC00FB607FCFACFE889F989808185FFB4
:10077000F5CFCE010E947303F1CF8B8DFE01E80F00
:10078000F11DE35EFE4FF0820B8FEA89FB898081C9
:10079000806207C0EE89FF896083E889F9898081DA
:1007A0008064808381E090E0DF91CF911F910F9171
:1007B000FF90EF900895CF93DF93EC01888D88230D
:1007C000C9F0EA89FB89808185FD05C0A889B989BE
:1007D0008C9186FD0FC00FB607FCF5CF808185FF99
:1007E000F2CFA889B9898C9185FFEDCFCE010E9407
:1007F0007303E7CFDF91CF91089580E090E0892BDC
:1008000021F00E946903811125C080E090E0892BCE
:1008100041F080E090E0892B21F00E9400008111DE
:100820001CC080E090E0892B41F080E090E0892BB3
:1008300021F00E940000811113C080E090E0892B1C
:10084000A1F080E090E0892B81F00E9400008111EE
:100850000AC008950E940000D8CF0E940000E1CF96
:100860000E940000EACF0C940000089510921B0330
:1008700010921C0310921D0310921E0310921A0373
:1008800080911F03909120038093B200E0E7F0E095
:10089000808181608083089580914505909146050F
:1008A000892B89F080E190E00E945D02892B39F468
:1008B00081E090E09093500580934F050895109249
:1008C000500510924F050895809145059091460579
:1008D000892BE1F08FE090E00E945D02892BB1F45A
:1008E00081E090E02091530530915405232B11F0C5
:1008F00080E090E090935405809353058FE090E062
:100900000E945D02892B11F4A895F8CF089580917B
:10091000450590914605892BC9F08EE090E00E9434
:100920005D022091510530915205892B49F4232B0A
:1009300069F481E090E09093520580935105089509
:10094000232B21F0109252051092510508956091C9
:10095000630588E10C94D20280914505909146058B
:10096000892BC9F08CE090E00E945D0220914D053A
:1009700030914E05892B49F4232B69F481E090E0F6
:1009800090934E0580934D050895232B21F01092EE
:100990004E0510924D0508956091610589E20C9411
:1009A000D2028091450590914605892BC9F08AE0D5
:1009B00090E00E945D0220914B0530914C05892BFF
:1009C00049F4232B69F481E090E090934C058093E7
:1009D0004B050895232B21F010924C0510924B05E6
:1009E00008958091450590914605892B09F43FC0F3
:1009F00080914705909148050197C9F1809135058F
:100A000090913605892B99F1809143059091440589
:100A1000892B69F589E090E00E945D02892B99F4A9
:100A20008091180390911903019790931903809373
:100A3000180383E090E09093380580933705109277
:100A40003A05109239058091180390911903893560
:100A500092406CF0109238051092370510923A05CA
:100A600010923905109219031092180308950895F1
:100A70008091450590914605892B61F1809147054C
:100A800090914805019731F1809135059091360597
:100A9000892B01F18091430590914405892BD1F474
:100AA00088E090E00E945D02892BA1F480911803F8
:100AB000909119030197909319038093180382E092
:100AC00090E0909338058093370510923A05109284
:100AD0003905089508958091450590914605892B23
:100AE00061F18091470590914805019731F180911E
:100AF000350590913605892B01F180914305909140
:100B00004405892BD1F487E090E00E945D02892B97
:100B1000A1F4809118039091190301979093190300
:100B20008093180381E090E0909338058093370517
:100B300010923A051092390508950895809145055F
:100B400090914605892B61F1809147059091480568
:100B5000019731F18091350590913605892B01F18E
:100B60008091430590914405892BD1F486E090E073
:100B70000E945D02892BA1F48091180390911903C2
:100B800001979093190380931803109238051092DF
:100B9000370582E090E090933A05809339050895F7
:100BA00008958091450590914605892B61F18091CA
:100BB000470590914805019731F180913505909155
:100BC0003605892B01F18091430590914405892BCD
:100BD000D1F485E090E00E945D02892BA1F4809120
:100BE00018039091190301979093190380931803A8
:100BF000109238051092370584E090E090933A0502
:100C00008093390508950895809145059091460592
:100C1000892B61F18091470590914805019731F149
:100C20008091350590913605892B01F1809143051E
:100C300090914405892BD1F484E090E00E945D02FC
:100C4000892BA1F480911803909119030197909337
:100C5000190380931803109238051092370586E027
:100C600090E090933A058093390508950895809116
:100C7000450590914605892B89F083E090E00E941C
:100C80005D02892B39F481E090E0909342058093D6
:100C900041050895109242051092410508958091F2
:100CA000450590914605892BC9F0809147059091A3
:100CB0004805019799F08091430590914405892B4F
:100CC00069F482E090E00E945D02892B39F48FEF95
:100CD0009FEF909336058093350508950895809190
:100CE000450590914605892BF1F08091470590913B
:100CF00048050197C1F08091430590914405892BE7
:100D000091F481E090E00E945D02892B39F481E04A
:100D100090E090933605809335050895109236053E
:100D2000109235050895089580E090E00E945D02DC
:100D300020911803309119032F5F3F4F309319030F
:100D400020931803892B39F481E090E090934605B5
:100D50008093450508951092460510924505089523
:100D60000E948C0FFC01808191810C940B0E0F93DB
:100D70001F93CF93DF93EC0188819981009729F02D
:100D80002A813B812617370788F48B016F5F7F4FDD
:100D90000E94A30E009761F0998388831B830A83C6
:100DA0002C813D81232B11F4FC01108281E001C0D4
:100DB00080E0DF91CF911F910F910895EF92FF9204
:100DC0000F931F93CF93DF93FC012481358161152D
:100DD000710511F480E019C041155105A9F07B019E
:100DE000EC018A01020F131FB8010E94B706882385
:100DF00089F3288139818C819D81B701820F931FEE
:100E00000E949A0F1D830C8381E0DF91CF911F9187
:100E10000F91FF90EF900895CF93DF931F921F9251
:100E2000CDB7DEB769831A8241E050E0BE016F5F43
:100E30007F4F0E94DE060F900F90DF91CF910895B3
:100E4000EF92FF920F931F93CF93DF93EC017B01FF
:100E50008A01BA010E94B7062881398181110DC02B
:100E60002115310519F0C9010E940B0E1982188253
:100E70001D821C821B821A8206C01D830C83B7014F
:100E8000C9010E949A0FCE01DF91CF911F910F915E
:100E9000FF90EF900895CF93DF93EC0140E050E096
:100EA00067E173E00E942007CE01DF91CF910895A2
:100EB000CF93DF93EC01FB0186179707B1F06081B8
:100EC00071816115710529F0448155810E942007C7
:100ED0000CC088819981009711F00E940B0E198235
:100EE00018821D821C821B821A82CE01DF91CF9153
:100EF0000895CF92DF92EF92FF920F931F93CF93BB
:100F0000DF937C0182E3FB01D70101900D928A956A
:100F1000E1F7670182E3C80ED11C8B010E5C1F4F05
:100F2000C0E0D0E0B8016C0F7D1FC6018C0F9D1F83
:100F30000E9458072696C639D105A1F7C701DF914F
:100F4000CF911F910F91FF90EF90DF90CF90089578
:100F5000FC011182108213821282158214826115A3
:100F6000710551F0FB0101900020E9F73197AF01C5
:100F7000461B570B0C9420070895AF92BF92CF9257
:100F8000DF92EF92FF920F931F93CF93DF938C0129
:100F90007B01EC01E2965C0188ECA80EB11C6E01AD
:100FA00067E173E0CE010E94A8072696CA15DB050B
:100FB000B9F7E70176016E01E2E3CE0ED11C89910B
:100FC0009991F801819391938F01C7010E944B077A
:100FD000F6E0EF0EF11CCC15DD0589F7DF91CF911E
:100FE0001F910F91FF90EF90DF90CF90BF90AF9047
:100FF0000895BF92CF92DF92EF92FF920F931F93CB
:10100000CF93DF93CDB7DEB728970FB6F894DEBF46
:101010000FBECDBF809170008E7F8093700087E1FE
:1010200095E00E944B0763E287E195E00E940C0780
:1010300026E1E22E22E0F22E3BEFC32E35E0D32E46
:101040008E010F5F1F4FF701819191917F010397EF
:1010500089F04AE0B801F601808191810E94240D57
:10106000F80101900020E9F73197AF01401B510BC7
:10107000B80104C041E050E066E173E087E195E02B
:101080000E94DE066CE787E195E00E940C07F2E023
:10109000CF0ED11C28E4E21622E0F206A1F661E2AE
:1010A00087E195E00E940C0740911B0550911C05BB
:1010B0004115510541F0609117057091180584E7BD
:1010C00093E00E94020383E295E00E944B0781E1D6
:1010D00095E00E944B0784E793E00E946203181694
:1010E0001906A4F484E793E00E944103682F81E18C
:1010F00095E00E940C0781EC97E000000197E9F76A
:1011000081EC97E000000197E9F7E5CF0091150524
:101110001091160510932A05009329050115110554
:1011200091F40E94360428960FB6F894DEBF0FBEE5
:10113000CDBFDF91CF911F910F91FF90EF90DF9086
:10114000CF90BF90089510922E0510922D05109209
:101150002C0510922B05E12CF12CE016F10674F40D
:10116000C7010E94C901833229F4F0922C05E09254
:101170002B0504C08FEFE81AF80AEFCF01501109D0
:1011800017FD09C0C8010E94C9018132B9F7109347
:101190002E0500932D051092300510922F05009119
:1011A0002B0510912C0596E0B92E80912D0590917C
:1011B0002E05801791070CF4B4CFC8010E94C90115
:1011C000982F9D7F913219F08C3709F05AC0C801D1
:1011D0000E94C9018C3709F051C0C0902F05D090F2
:1011E00030057601EE0CFF1CF701EA5EFD4F8081B1
:1011F00091810397C9F08091230590912405009770
:1012000019F00E94FD0C03C060E070E0CB01EFEF2D
:10121000CE1ADE0AD0923005C0922F05F701E550B4
:10122000FA4F7183608326C01A8219821C821B8246
:101230001E821D8263E275E0CE0101960E9458076E
:1012400020912F0530913005C9010196909330050A
:1012500080932F05B29EC001B39E900D1124BE0154
:101260006F5F7F4F835D994F0E945807CE010196B3
:101270000E94B20683E295E00E944B070F5F1F4F6A
:1012800094CF682F83E295E00E940C07A0CF1F92B5
:101290000F920FB60F9211242F933F938F939F932A
:1012A000AF93BF9380912C0390912D03A0912E03B7
:1012B000B0912F0330912B0323E0230F2D3720F41F
:1012C0000196A11DB11D05C026E8230F0296A11DA0
:1012D000B11D20932B0380932C0390932D03A09397
:1012E0002E03B0932F038091270390912803A091A0
:1012F0002903B0912A030196A11DB11D80932703F4
:1013000090932803A0932903B0932A03BF91AF9130
:101310009F918F913F912F910F900FBE0F901F9033
:1013200018951F920F920FB60F9211240BB60F92C1
:101330002F933F934F935F936F937F938F939F93DD
:10134000AF93BF93EF93FF9384E793E00E947303FF
:10135000FF91EF91BF91AF919F918F917F916F918D
:101360005F914F913F912F910F900BBE0F900FBE49
:101370000F901F9018951F920F920FB60F92112485
:101380000BB60F922F938F939F93EF93FF93E09160
:101390008403F09185038081E0918A03F0918B03AF
:1013A00082FD11C0908180918D038F5F20918E030B
:1013B000821751F0E0918D03F0E0EC58FC4F958FCF
:1013C00080938D0301C08081FF91EF919F918F9158
:1013D0002F910F900BBE0F900FBE0F901F9018957E
:1013E0001F920F920FB60F9211240BB60F922F93EC
:1013F0003F934F935F936F937F938F939F93AF939D
:10140000BF93EF93FF9380911F03909120038093EC
:10141000B20080911B0390911C03A0911D03B09119
:101420001E030196A11DB11D80931B0390931C0305
:10143000A0931D03B0931E0380911B0390911C0386
:10144000A0911D03B0911E034091230350912403EA
:10145000609125037091260384179507A607B707A7
:1014600010F180911A0381111EC081E080931A034C
:1014700080911B0390911C03A0911D03B0911E034A
:10148000841B950BA60BB70B80931B0390931C0337
:10149000A0931D03B0931E03E0912103F09122035A
:1014A000199510921A03FF91EF91BF91AF919F91FF
:1014B0008F917F916F915F914F913F912F910F90FD
:1014C0000BBE0F900FBE0F901F901895CF93DF9318
:1014D000109277031092760388EE93E0A0E0B0E0DC
:1014E0008093780390937903A0937A03B0937B035E
:1014F0008AE892E0909375038093740385EC90E002
:10150000909381038093800384EC90E09093830315
:101510008093820380EC90E0909385038093840312
:1015200081EC90E0909387038093860382EC90E0B7
:10153000909389038093880386EC90E090938B03CB
:1015400080938A0310928D0310928E0310928F0362
:1015500010929003A2EDB2E0C4EFD2E0ED91FD91C4
:10156000EE0FFF1FE653FD4F308189919991992726
:10157000FC01EE56FD4F2491FC01E45BFD4F84918C
:10158000882389F190E0880F991FFC01EE5CFD4FE4
:1015900045915491FC01E85EFD4F85919491311184
:1015A0000BC06FB7F894FA01308120953223308355
:1015B000FC01308123230DC0323071F46FB7F894F1
:1015C000FA017081322F309537233083FC0130814E
:1015D000232B20836FBF07C08FB7F894FA01908147
:1015E000292B20838FBFF2E0A43FBF0709F0B6CFBD
:1015F00068E972E08BEF95E00E94BD0768E972E050
:1016000083E395E00E94BD0767E173E081E195E027
:101610000E94A80767E173E087E195E00E94A807B0
:1016200067E173E08DE195E00E94A80767E173E050
:1016300083E295E00E94A8070E94A10187E195E05E
:101640000E944B0781E195E00E944B078DE195E0F8
:101650000E944B071092300510922F0510922E0514
:1016600010922D0510922C0510922B0510922A0530
:1016700010922905109232051092310563E375E04E
:101680008BEF95E0DF91CF910C947907CF93DF93A7
:1016900000D000D0CDB7DEB7789484B5826084BD29
:1016A00084B5816084BD85B5826085BD85B5816066
:1016B00085BD80916E00816080936E0010928100E4
:1016C000809181008260809381008091810081609F
:1016D0008093810080918000816080938000809160
:1016E000B10084608093B1008091B00081608093EC
:1016F000B000809191008260809391008091910070
:10170000816080939100809190008160809390002F
:101710008091A10082608093A1008091A1008160EE
:101720008093A1008091A00081608093A0008091AF
:101730002101826080932101809121018160809349
:1017400021018091200181608093200180917A00A5
:10175000846080937A0080917A00826080937A001E
:1017600080917A00816080937A0080917A0080680D
:1017700080937A001092C1000E94A1019EE088E14E
:101780000FB6F894A895809360000FBE9093600008
:101790008CE291E0A0E0B0E08093230390932403D7
:1017A000A0932503B093260389EF97E0909322033B
:1017B00080932103809170008E7F809370008091D0
:1017C000B0008C7F8093B0008091B100877F8093C0
:1017D000B1008091B6008F7D8093B600809170003B
:1017E0008D7F809370008091B10084608093B10000
:1017F0008091B1008C7F8093B10086E090E090935F
:10180000200380931F030E943604E6E0FE2E6BEF58
:1018100075E083E395E00E94790704E612E0D801C1
:10182000ED91FD918D011995A895B2E006381B0741
:10183000B1F780911106909112068130910509F05F
:101840004BC078E4C72E72E0D72EF601219131917A
:101850006F01C901880F991FFC01EA5EFD4F4081AD
:1018600051814330510559F0FC01ED5CFA4FDC0128
:10187000A550BA4F8D919C919183808320C01A828C
:1018800019821C821B821E821D82F29E8001F39EA1
:10189000100D11240E5C1F4FB80165507A4FCE0118
:1018A00001960E945807BE016F5F7F4FC8018D5C93
:1018B0009A4F0E945807CE0101960E94B206F4E6A4
:1018C000CF16F2E0DF0609F68091430590914405BA
:1018D000892B09F047C04CC0892BB1F756E0C52EC3
:1018E00052E0D52ED6012D913D916D01C901880F91
:1018F000991FFC01EA5EFD4F408151814330510543
:1019000059F0FC01ED5CFA4FDC01A550BA4F8D9106
:101910009C919183808320C01A8219821C821B8231
:101920001E821D82F29E8001F39E100D11240E5C1A
:101930001F4FB80165507A4FCE0101960E9458079B
:10194000BE016F5F7F4FC8018D5C9A4F0E945807A0
:10195000CE0101960E94B206B6E1CB16B2E0DB06DC
:1019600009F6B2CF80910B0690910C06009749F4CE
:1019700063E375E08BEF95E00E9479070E94FD0319
:1019800046CF9093440580934305F2CFCF93DF93E6
:1019900083E295E00E94B2068DE195E00E94B206D6
:1019A00087E195E00E94B20681E195E00E94B206CF
:1019B00085E695E0892B39F48DE296E0892BD1F00C
:1019C000C0E0D0E00DC0C0E0D0E0CE018B509A4F17
:1019D0000E94B2062697CA368FEFD807B1F7ECCF30
:1019E000CE018354994F0E94B2062697CA368FEFD4
:1019F000D807B1F7DF91CF9108951F93FC01992784
:101A00008827BC01E89411911032E9F3193010F0E5
:101A10001E30C8F31B3251F01D3249F4689406C0E1
:101A20000E942F0D610F711D811D911D1191105389
:101A30001A30B0F33EF490958095709561957F4F84
:101A40008F4F9F4F1F910895BB274A3031F4992340
:101A500022F4BDE2909581959F4F0C94450D592F2E
:101A6000482F372F262F660F771F881F991F660F65
:101A7000771F881F991F620F731F841F951F660FA2
:101A8000771F881F991F0895BB27FB015527AA2799
:101A9000880F991FAA1FA41710F0A41B83955051FB
:101AA000B9F7A05DAA3308F0A95DA193009779F773
:101AB000B111B1931192CB010C945E0DDC01FC01CC
:101AC000672F71917723E1F7329704C07C916D9372
:101AD00070836291AE17BF07C8F30895EE0FFF1F22
:101AE000881F8BBF0790F691E02D1994CF93DF9359
:101AF0008230910510F482E090E0E091C506F0910B
:101B0000C60620E030E0C0E0D0E0309711F140811F
:101B1000518148175907C0F04817590761F482816D
:101B20009381209719F09B838A832BC09093C606DC
:101B30008093C50626C02115310519F042175307B9
:101B400018F49A01BE01DF01EF010280F381E02D5C
:101B5000DCCF2115310509F1281B390B2430310563
:101B600090F412968D919C9113976115710521F057
:101B7000FB019383828304C09093C6068093C506BD
:101B8000FD01329644C0FD01E20FF31F8193919352
:101B9000225031092D933C933AC02091C3063091D5
:101BA000C406232B41F420910202309103023093AA
:101BB000C4062093C3062091000230910102211532
:101BC000310541F42DB73EB7409104025091050212
:101BD000241B350BE091C306F091C406E217F3070E
:101BE000A0F42E1B3F0B2817390778F0AC014E5F8D
:101BF0005F4F2417350748F04E0F5F1F5093C40600
:101C00004093C3068193919302C0E0E0F0E0CF01DE
:101C1000DF91CF9108950F931F93CF93DF93009798
:101C200009F48CC0FC013297138212820091C50620
:101C30001091C6060115110581F420813181820FB2
:101C4000931F2091C3063091C4062817390779F5F0
:101C5000F093C406E093C30671C0D80140E050E0A1
:101C6000AE17BF0750F412962D913C911397AD011A
:101C70002115310509F1D901F3CF9D01DA01338333
:101C8000228360817181860F971F8217930769F401
:101C9000EC0128813981260F371F2E5F3F4F31839A
:101CA00020838A819B8193838283452B29F4F0933F
:101CB000C606E093C50642C01396FC93EE931297B6
:101CC000ED01499159919E01240F351FE217F30749
:101CD00071F480819181840F951F029611969C93D7
:101CE0008E938281938113969C938E931297E0E05A
:101CF000F0E0D80112968D919C911397009719F0FE
:101D0000F8018C01F6CF8D919C9198012E5F3F4F89
:101D1000820F931F2091C3063091C40628173907FC
:101D200069F4309729F41092C6061092C50602C0D5
:101D3000138212821093C4060093C306DF91CF91E1
:101D40001F910F9108956F927F928F929F92AF9201
:101D5000BF92CF92DF92EF92FF920F931F93CF9398
:101D6000DF93EC01009789F4CB01DF91CF911F91B4
:101D70000F91FF90EF90DF90CF90BF90AF909F902A
:101D80008F907F906F900C94760DFC01E60FF71FFB
:101D90009C0122503109E217F30708F4ACC0D901C5
:101DA0000D911C91119706171707B0F0053011051A
:101DB00008F49FC0C80104978617970708F499C0D4
:101DC00002501109061B170B019311936D937C931D
:101DD000CF010E940B0E8DC05B01A01AB10A4C010D
:101DE000800E911EA091C506B091C60640E050E05D
:101DF000E12CF12C109709F44AC0A815B905D1F5CA
:101E00006D907C901197630182E0C80ED11CCA14BA
:101E1000DB0480F1A3014A195B096A0182E0C80E64
:101E2000D11C1296BC9012971396AC91B5E0CB16CC
:101E3000D10440F0B282A38351834083D9016D93D2
:101E40007C930AC00E5F1F4FC301800F911FF901E1
:101E500091838083EB2DFA2FE114F10431F0D70147
:101E60001396FC93EE93129744C0F093C606E0934A
:101E7000C5063FC08D919C9111974817590708F4EA
:101E8000AC017D0112960D90BC91A02DB3CF809135
:101E9000C3069091C40688159905E1F446175707C3
:101EA000C8F48091000290910102009741F48DB72F
:101EB0009EB74091040250910502841B950BE817D0
:101EC000F907C8F4F093C406E093C306F9017183DF
:101ED00060830FC0CB010E94760D7C01009759F002
:101EE000A801BE010E94910FCE010E940B0EC701F6
:101EF00004C0CE0102C080E090E0DF91CF911F913D
:101F00000F91FF90EF90DF90CF90BF90AF909F9098
:101F10008F907F906F90089581E090E0F8940C94FA
:101F2000A10FFB01DC0102C001900D924150504015
:101F3000D8F70895FB01DC0101900D920020E1F734
:101F4000089511E0CDE6D1E000E006C0802FFE014B
:101F50000E946E0D2196011DCE36D10780E0080744
:061F6000A9F7F894FFCF81
:101F66000000C70680000200030001000000040014
:101F7600050006000B000000000000000000000045
:101F86000000000001000000010001000100010046
:101F9600010001000100000003000300030003002C
:101FA6000300030001000100000004000500060014
:101FB6000B00170018001200110013001500140082
:101FC6001300160094066F064F0637060406D10561
:101FD6009E056B053805F104D104CC04AC04A704B6
:101FE600870464044C0400000000940302033103D8
:101FF600DB036203410354030000000000000000FD
:10200600000000001E0000000000000000000100AB
:1020160000000000000000000100000000000000B9
:1020260000000000000000000000020002000200A4
:102036000100000000000000000000000000000099
:102046000000000000000000030000000300000084
:10205600000000001F0020002100250019001A00C2
:102066001B001C001D001E0027002900160018007A
:082076002300220026002000D7
:00000001FF
