:100000000C946E010C949F010C949F010C949F0121
:100010000C949F010C949F010C949F010C949F01E0
:100020000C949F010C949F010C949F010C949F01D0
:100030000C949F010C949F010C949F010C94B9089F
:100040000C949F010C949F010C949F010C949F01B0
:100050000C949F010C949F010C949F010C946604D6
:100060000C949F010C9457050C942D050C949F0142
:100070000C949F010C949F010C949F010C949F0180
:100080000C949F010C949F010C949F010C949F0170
:100090000C949F010C949F010C949F010C949F0160
:1000A0000C949F010C949F010C949F010C949F0150
:1000B0000C949F010C949F010C949F010C949F0140
:1000C0000C949F010C949F010C949F010C949F0130
:1000D0000C949F010C949F010C949F010C949F0120
:1000E0000C949F01E401E701D601DA01E0011E0250
:1000F000EB01EF01F501F901FD01030207020B021B
:100100001E021102150219020C9435060C94FE0A07
:100110000C94E7010C9415060C94BB070C940B028D
:100120000C94290D0C9403020C9411020C945507A5
:100130000C94F3070C94E0010C9486080C94880747
:100140000C9475060C94D5020C94EF010C94EB0101
:100150000C94BC060C9445090C94EF060C94F50124
:100160000C9418080C94FD010C94E4010C94D30732
:100170000C9455060C9415020C94FD050C94DA01B0
:100180000C948C050C94BD050C941C030C948F08E6
:100190000C9434080C94F9010C941E020C94D601B2
:1001A0000C9448020C94AF050C949C050C94220707
:1001B0000C9407020C94190200002100240027006F
:1001C0002A002D0030003300010100000401070166
:1001D0000A0100002200250028002B002E0031001B
:1001E000340002010000050108010B01000020009D
:1001F0002300260029002C002F00320000010000FF
:100200000301060109010505050507050808080899
:10021000020202020A0A080804040404010101019E
:100220000101010103030303030303030407070799
:100230000C0C0C0C0C0C0C0C02020202060606063E
:10024000060606060B0B0B0B0B0B0B0B010210200B
:1002500020080810204010204080020102010804FC
:100260000201010204081020408080402010080490
:1002700002018004020180402010080402010804E9
:10028000020101020408102040800102040810202D
:10029000408000000A0B02090C0D0E080703040140
:1002A000000000000000000000000000000000004E
:1002B000000000000000000000000000000012111B
:1002C000100000000000000000000000000000001E
:1002D0000000000000000000FE0A290D11241FBECE
:1002E000CFEFD1E2DEBFCDBF00E00CBF26E0A8E13A
:1002F000B3E001C01D92A93CB207E1F713E0A0E012
:10030000B2E0ECE2F0E200E00BBF02C007900D9219
:10031000A831B107D9F711E0CDE6D1E000E006C081
:1003200021970109802FFE010E94D10DCC36D10703
:1003300080E00807A9F70E94A90B0C9404100C9404
:100340000000E0E2F3E0A089B18982E08C93A4850B
:10035000B5851C92A685B78580E18C93108EA48903
:10036000B58986E08C93A289B3898C9180618C9346
:10037000A289B3898C9188608C93A289B3898C916E
:1003800080688C930288F389E02D80818F7D808343
:10039000089590E0FC013197E231F10508F04EC07C
:1003A0008827EE58FF4F8F4F0C94D10D809180001D
:1003B0008F7703C0809180008F7D809380000895A7
:1003C00080918000877FF9CF84B58F7702C084B594
:1003D0008F7D84BD08958091B0008F7703C0809198
:1003E000B0008F7D8093B0000895809190008F774A
:1003F00007C0809190008F7D03C080919000877F1F
:100400008093900008958091A0008F7707C080911D
:10041000A0008F7D03C08091A000877F8093A00003
:100420000895809120018F7707C0809120018F7DF2
:1004300003C080912001877F809320010895CF938E
:10044000DF93282F30E0F901EE56FD4F8491F9013A
:10045000E45BFD4FD491F901EA5FFD4FC491CC23D9
:1004600091F081110E94C901EC2FF0E0EE0FFF1F07
:10047000E451FE4FA591B491EC91ED2381E090E021
:1004800021F480E002C080E090E0DF91CF910895F8
:10049000CF92DF92EF92FF920F931F93CF93DF9350
:1004A0006C017A018B01C0E0D0E0CE15DF0589F048
:1004B000D8016D918D01D601ED91FC910190F081F3
:1004C000E02DC6011995892B11F47E0102C02196F9
:1004D000ECCFC701DF91CF911F910F91FF90EF906B
:1004E000DF90CF900895089580E090E0089580E235
:1004F00093E00E94BD0521E0892B09F420E0822FC2
:1005000008950E94EF0F0F931F93CF93DF93EC0199
:1005100088819981009729F02A813B812617370726
:1005200088F48B016F5F7F4F0E94060F009761F088
:10053000998388831B830A832C813D81232B11F4AB
:10054000FC01108281E001C080E0DF91CF911F911A
:100550000F910895EF92FF920F931F93CF93DF9324
:10056000EC017B018A01BA010E9483022881398152
:1005700081110DC02115310519F0C9010E946E0EBF
:10058000198218821D821C821B821A8206C01D835A
:100590000C83B701C9010E94FD0FCE01DF91CF91FD
:1005A0001F910F91FF90EF900895EF92FF920F939C
:1005B0001F93CF93DF93EC0181E0888F9B8D8C8D0F
:1005C000981305C0E889F989808185FD24C0F62E3D
:1005D0000B8D10E00F5F1F4F0F771127E02E8C8DD2
:1005E000E8120CC00FB607FCFACFE889F9898081C0
:1005F00085FFF5CFCE010E949808F1CF8B8DFE01CB
:10060000E80FF11DE35EFE4FF0820B8FEA89FB8954
:100610008081806207C0EE89FF896083E889F9895B
:1006200080818064808381E090E0DF91CF911F9191
:100630000F91FF90EF900895CF93DF93EC01888D99
:100640008823C9F0EA89FB89808185FD05C0A889D6
:10065000B9898C9186FD0FC00FB607FCF5CF80815C
:1006600085FFF2CFA889B9898C9185FFEDCFCE01A6
:100670000E949808E7CFDF91CF910895CF93DF9341
:10068000EC01CC0FDD1FFE01EE52FD4F8081918108
:1006900081309105C1F5FE01EC50FD4F80810E9433
:1006A0001F02892BD1F5FE01E456F94F808191811B
:1006B000009761F4FE01E658F94F11821082C4568A
:1006C000D94F81E090E09983888303C0019719F0A6
:1006D00081E090E045C0FE01E658F94F80819181AC
:1006E000019691838083843F914094F3FE01E65804
:1006F000F94F11821082C456D94F82E090E099835D
:10070000888380E0E6CF892B19F7FE01EC50FD4F7E
:1007100080810E941F02892B29F0C456D94F19826B
:100720001882D6CFFE01E456F94F20813181211580
:10073000310509F4BFCF2130310561F4FE01E658DF
:10074000F94F808191810196918380838C32914011
:100750006CF6BECF81E090E02230310509F480E0F4
:10076000DF91CF910895CF93DF93EC0140E050E00B
:1007700067E173E00E94AA02CE01DF91CF91089554
:100780002091C2043091C3048217930760F4209132
:10079000BE043091BF042115310529F0F901E80F9D
:1007A000F91F8081089580E008951F93CF93DF9310
:1007B000282F30E0F901EE56FD4F8491F901E45BFA
:1007C000FD4FD491F901EA5FFD4FC491CC23C9F0EC
:1007D000162F81110E94C901EC2FF0E0EE0FFF1FD0
:1007E000EE52FE4FA591B4918FB7F894111105C048
:1007F0009C91ED2FE095E92302C0EC91ED2BEC9359
:100800008FBFDF91CF911F910895CF93DF9390E039
:10081000FC01E45BFD4F2491FC01EA5FFD4F8491F4
:10082000882361F190E0880F991FFC01E854FE4F86
:10083000C591D491FC01EE52FE4FA591B491611186
:1008400009C09FB7F8948881209582238883EC9112
:100850002E230BC0623061F49FB7F8943881822F49
:10086000809583238883EC912E2B2C939FBF06C009
:100870008FB7F894E8812E2B28838FBFDF91CF911B
:1008800008953FB7F8948091760690917706A091ED
:100890007806B091790626B5A89B05C02F3F19F0C0
:1008A0000196A11DB11D3FBFBA2FA92F982F8827F0
:1008B000820F911DA11DB11DBC01CD0142E0660F4B
:1008C000771F881F991F4A95D1F708951F920F929D
:1008D0000FB60F9211242F933F938F939F93AF9353
:1008E000BF938091720690917306A0917406B091A7
:1008F00075063091710623E0230F2D3720F4019601
:10090000A11DB11D05C026E8230F0296A11DB11D32
:10091000209371068093720690937306A0937406D9
:10092000B09375068091760690917706A09178062F
:10093000B09179060196A11DB11D80937606909322
:100940007706A0937806B0937906BF91AF919F91F7
:100950008F913F912F910F900FBE0F901F90189580
:10096000EF92FF920F931F93CF93DF93FC012481AB
:1009700035816115710511F480E019C041155105EB
:10098000A9F07B01EC018A01020F131FB8010E943C
:100990008302882389F3288139818C819D81B70165
:1009A000820F931F0E94FD0F1D830C8381E0DF9156
:1009B000CF911F910F91FF90EF900895CF93DF9308
:1009C0001F921F92CDB7DEB769831A8241E050E0D3
:1009D000BE016F5F7F4F0E94B0040F900F90DF91B8
:1009E000CF910895CF93DF93EC01FB018617970712
:1009F000B1F0608171816115710529F044815581E3
:100A00000E94AA020CC088819981009711F00E946F
:100A10006E0E198218821D821C821B821A82CE01E0
:100A2000DF91CF910895FC01808191810C946E0E2D
:100A3000FC011182108213821282158214826115C8
:100A4000710551F0FB0101900020E9F73197AF01EA
:100A5000461B570B0C94AA0208951F920F920FB6D3
:100A60000F9211240BB60F922F933F934F935F93E6
:100A70006F937F938F939F93AF93BF93EF93FF9366
:100A800080E293E00E949808FF91EF91BF91AF91AF
:100A90009F918F917F916F915F914F913F912F9196
:100AA0000F900BBE0F900FBE0F901F9018951F92C6
:100AB0000F920FB60F9211240BB60F922F938F93B4
:100AC0009F93EF93FF93E0913003F0913103808186
:100AD000E0913603F091370382FD11C0908180913F
:100AE00039038F5F20913A03821751F0E091390367
:100AF000F0E0E05EFC4F958F8093390301C0808168
:100B0000FF91EF919F918F912F910F900BBE0F90BE
:100B10000FBE0F901F901895FC01538D448D252F0B
:100B200030E0842F90E0821B930B541718F081580B
:100B30009F4F089501970895FC01918D828D98171C
:100B400059F0828DDF01A80FB11D5D968C91928DB9
:100B50009F5F928F90E008958FEF9FEF0895FC01C3
:100B6000918D828D981731F0828DE80FF11D858D62
:100B700090E008958FEF9FEF0895FC01918D828D95
:100B8000981B892F90E0089580E090E0892B21F058
:100B90000E947702811125C080E090E0892B41F00E
:100BA00080E090E0892B21F00E94000081111CC0A0
:100BB00080E090E0892B41F080E090E0892B21F0EB
:100BC0000E940000811113C080E090E0892BA1F009
:100BD00080E090E0892B81F00E94000081110AC022
:100BE00008950E940000D8CF0E940000E1CF0E942B
:100BF0000000EACF0C94000008958091F2049091D7
:100C0000F304892B89F080E190E00E943E03892B58
:100C100039F481E090E09093FD048093FC04089502
:100C20001092FD041092FC0408958091F2049091BA
:100C3000F304892BC9F08EE090E00E943E032091DE
:100C4000FE043091FF04892B49F4232B69F481E0E1
:100C500090E09093FF048093FE040895232B21F0ED
:100C60001092FF041092FE0408958091F204909176
:100C7000F304892BC9F08CE090E00E943E032091A0
:100C8000FA043091FB04892B49F4232B69F481E0A9
:100C900090E09093FB048093FA040895232B21F0B5
:100CA0001092FB041092FA0408958091F20490913E
:100CB000F304892BC9F08AE090E00E943E03209162
:100CC000F8043091F904892B49F4232B69F481E06D
:100CD00090E09093F9048093F8040895232B21F079
:100CE0001092F9041092F80408958091F204909102
:100CF000F304892B09F43FC08091F4049091F5042A
:100D00000197C9F18091E2049091E304892B99F154
:100D10008091F0049091F104892B69F589E090E0CD
:100D20000E943E03892B99F48091BE069091BF06E4
:100D300001979093BF068093BE0683E090E0909366
:100D4000E5048093E4041092E7041092E604809195
:100D5000BE069091BF06893592406CF01092E50472
:100D60001092E4041092E7041092E6041092BF0679
:100D70001092BE06089508958091F2049091F304B4
:100D8000892B61F18091F4049091F504019731F180
:100D90008091E2049091E304892B01F18091F004A9
:100DA0009091F104892BD1F488E090E00E943E03F9
:100DB000892BA1F48091BE069091BF060197909374
:100DC000BF068093BE0682E090E09093E504809396
:100DD000E4041092E7041092E604089508958091C7
:100DE000F2049091F304892B61F18091F4049091C5
:100DF000F504019731F18091E2049091E304892B8D
:100E000001F18091F0049091F104892BD1F487E0F5
:100E100090E00E943E03892BA1F48091BE06909140
:100E2000BF0601979093BF068093BE0681E090E0D5
:100E30009093E5048093E4041092E7041092E60492
:100E4000089508958091F2049091F304892B61F143
:100E50008091F4049091F504019731F18091E204BE
:100E60009091E304892B01F18091F0049091F104B9
:100E7000892BD1F486E090E00E943E03892BA1F4F7
:100E80008091BE069091BF0601979093BF06809314
:100E9000BE061092E5041092E40482E090E0909384
:100EA000E7048093E604089508958091F2049091F8
:100EB000F304892B61F18091F4049091F50401977A
:100EC00031F18091E2049091E304892B01F180914A
:100ED000F0049091F104892BD1F485E090E00E9418
:100EE0003E03892BA1F48091BE069091BF06019725
:100EF0009093BF068093BE061092E5041092E4041E
:100F000084E090E09093E7048093E60408950895C8
:100F10008091F2049091F304892B61F18091F404A3
:100F20009091F504019731F18091E2049091E304EE
:100F3000892B01F18091F0049091F104892BD1F477
:100F400084E090E00E943E03892BA1F48091BE06CC
:100F50009091BF0601979093BF068093BE061092B2
:100F6000E5041092E40486E090E09093E704809317
:100F7000E604089508958091F2049091F304892B7A
:100F800089F083E090E00E943E03892B39F481E0F0
:100F900090E09093EF048093EE0408951092EF0494
:100FA0001092EE0408958091F2049091F304892B3D
:100FB000C9F08091F4049091F504019799F0809123
:100FC000F0049091F104892B69F482E090E00E9492
:100FD0003E03892B39F48FEF9FEF9093E3048093C6
:100FE000E204089508958091F2049091F304892B0E
:100FF000F1F08091F4049091F5040197C1F0809193
:10100000F0049091F104892B91F481E090E00E942A
:101010003E03892B39F481E090E09093E3048093C0
:10102000E20408951092E3041092E20408950895F2
:1010300080E090E00E943E032091BE063091BF0602
:101040002F5F3F4F3093BF062093BE06892B39F4A4
:1010500081E090E09093F3048093F204089510925D
:10106000F3041092F20408958F929F92AF92BF9270
:10107000CF92DF92EF92FF928091F2049091F3046D
:10108000892BD9F18FE090E00E943E03892BA9F5CE
:1010900081E090E02091000530910105232B11F0B3
:1010A00080E090E090930105809300050E94410448
:1010B0004B015C0188EEC82E83E0D82EE12CF12C88
:1010C0000E944104DC01CB0188199909AA09BB09D6
:1010D000883E9340A105B10558F021E0C21AD1081D
:1010E000E108F10888EE880E83E0981EA11CB11C6F
:1010F000C114D104E104F10419F7FF90EF90DF90DF
:10110000CF90BF90AF909F908F90089561E088E15D
:101110000E9405046091100588E10C94D50361E0FC
:1011200089E20E94050460910E0589E20C94D503C2
:10113000FC01848DDF01A80FB11DA35EBE4F2C9171
:10114000848D90E001968F779927848FA689B7893F
:101150002C93A089B1898C9180648C93938D848D1C
:10116000981306C00288F389E02D80818F7D8083EB
:1011700008951F920F920FB60F9211240BB60F9283
:101180002F933F934F935F936F937F938F939F938F
:10119000AF93BF93EF93FF9380911803909119033E
:1011A0008093B2008091C1069091C206A091C306BF
:1011B000B091C4060196A11DB11D8093C106909304
:1011C000C206A093C306B093C4068091C106909155
:1011D000C206A091C306B091C40640911C03509171
:1011E0001D0360911E0370911F0384179507A607C6
:1011F000B70710F18091C00681111EC081E0809375
:10120000C0068091C1069091C206A091C306B0911C
:10121000C406841B950BA60BB70B8093C106909355
:10122000C206A093C306B093C406E0911A03F091DE
:101230001B0319951092C006FF91EF91BF91AF91DA
:101240009F918F917F916F915F914F913F912F91DE
:101250000F900BBE0F900FBE0F901F90189510921D
:10126000C1061092C2061092C3061092C4061092D4
:10127000C00680911803909119038093B200E0E7B3
:10128000F0E08081816080830895BF92CF92DF92E9
:10129000EF92FF920F931F93CF93DF93CDB7DEB7FB
:1012A00028970FB6F894DEBF0FBECDBF80917000B7
:1012B0008E7F8093700084EC94E00E94B30363E21D
:1012C00084EC94E00E94DE0426E1E22E22E0F22E7D
:1012D00038EAC32E35E0D32E8E010F5F1F4FF70182
:1012E000819191917F01039789F04AE0B801F6015D
:1012F000808191810E94870DF80101900020E9F71B
:101300003197AF01401B510BB80104C041E050E0E0
:1013100066E173E084EC94E00E94B0046CE784EC36
:1013200094E00E94DE04F2E0CF0ED11C28E4E21625
:1013300022E0F206A1F661E284EC94E00E94DE0471
:101340004091C8045091C9044115510541F0609184
:10135000C4047091C50480E293E00E94480280EDCD
:1013600094E00E94B3038EEB94E00E94B30380E20A
:1013700093E00E94BD0518161906A4F480E293E0DC
:101380000E949C05682F8EEB94E00E94DE0481ECA5
:1013900097E000000197E9F781EC97E000000197E2
:1013A000E9F7E5CF0091C2041091C3041093D7046C
:1013B0000093D6040115110591F40E942F09289677
:1013C0000FB6F894DEBF0FBECDBFDF91CF911F9156
:1013D0000F91FF90EF90DF90CF90BF900895109203
:1013E000DB041092DA041092D9041092D804E12C94
:1013F000F12CE016F10674F4C7010E94C003833299
:1014000029F4F092D904E092D80404C08FEFE81ACE
:10141000F80AEFCF0150110917FD09C0C8010E9459
:10142000C0038132B9F71093DB040093DA04109201
:10143000DD041092DC040091D8041091D90496E0E8
:10144000B92E8091DA049091DB04801791070CF497
:10145000B4CFC8010E94C003982F9D7F913219F02C
:101460008C3709F05AC0C8010E94C0038C3709F0BC
:1014700051C0C090DC04D090DD047601EE0CFF1C5E
:10148000F701EA5EFD4F808191810397C9F0809159
:10149000D0049091D104009719F00E94600D03C010
:1014A00060E070E0CB01EFEFCE1ADE0AD092DD04EF
:1014B000C092DC04F701E855FA4F7183608326C0BF
:1014C0001A8219821C821B821E821D8260ED74E0CA
:1014D000CE0101960E94F2042091DC043091DD04DB
:1014E000C90101969093DD048093DC04B29EC00193
:1014F000B39E900D1124BE016F5F7F4F86529A4FAD
:101500000E94F204CE0101960E94130580ED94E042
:101510000E94B3030F5F1F4F94CF682F80ED94E0BC
:101520000E94DE04A0CFCF92DF92EF92FF920F9342
:101530001F93CF93DF937C0182E3FB01D7010190DE
:101540000D928A95E1F7670182E3C80ED11C8B01E9
:101550000E5C1F4FC0E0D0E0B8016C0F7D1FC601CC
:101560008C0F9D1F0E94F2042696C639D105A1F763
:10157000C701DF91CF911F910F91FF90EF90DF9006
:10158000CF900895AF92BF92CF92DF92EF92FF92E9
:101590000F931F93CF93DF938C017B01EC01E296B5
:1015A0005C0188ECA80EB11C6E0167E173E0CE010E
:1015B0000E9418052696CA15DB05B9F7E7017601E2
:1015C0006E01E2E3CE0ED11C89919991F8018193CD
:1015D00091938F01C7010E94B303F6E0EF0EF11C57
:1015E000CC15DD0589F7DF91CF911F910F91FF9009
:1015F000EF90DF90CF90BF90AF9008950F931F931F
:10160000CF93DF93109223031092220388EE93E08E
:10161000A0E0B0E08093240390932503A0932603D9
:10162000B09327038AE892E09093210380932003EC
:1016300085EC90E090932D0380932C0384EC90E054
:1016400090932F0380932E0380EC90E090933103CE
:101650008093300381EC90E09093330380933203C6
:1016600082EC90E0909335038093340386EC90E015
:1016700090933703809336031092390310923A0304
:1016800010923B0310923C03C2EDD2E004EF12E053
:10169000E991F991D8018C910E5F1F4FEE0FFF1F5A
:1016A000E653FD4F60810E940504B2E0C43FDB07B2
:1016B00079F768E972E088EA95E00E94C20A68E971
:1016C00072E080EE94E00E94C20A67E173E08EEB64
:1016D00094E00E94180567E173E084EC94E00E94B6
:1016E000180567E173E08AEC94E00E94180567E151
:1016F00073E080ED94E00E9418050E94A10184EC43
:1017000094E00E94B3038EEB94E00E94B3038AEC52
:1017100094E00E94B3031092DD041092DC04109256
:10172000DB041092DA041092D9041092D8041092BB
:10173000D7041092D6041092DF041092DE0460EEFB
:1017400074E088EA95E0DF91CF911F910F910C949E
:10175000930ACF93DF9300D000D0CDB7DEB7789453
:1017600084B5826084BD84B5816084BD85B58260A6
:1017700085BD85B5816085BD80916E008160809357
:101780006E001092810080918100826080938100C0
:1017900080918100816080938100809180008160D0
:1017A000809380008091B10084608093B10080912B
:1017B000B00081608093B00080919100826080933E
:1017C00091008091910081608093910080919000C0
:1017D0008160809390008091A10082608093A1003D
:1017E0008091A10081608093A1008091A000816020
:1017F0008093A000809121018260809321018091DB
:10180000210181608093210180912001816080937A
:10181000200180917A00846080937A0080917A0020
:10182000826080937A0080917A00816080937A0050
:1018300080917A00806880937A001092C1000E94A3
:10184000A1019EE088E10FB6F894A895809360000E
:101850000FBE9093600088EC90E0A0E0B0E0809331
:101860001C0390931D03A0931E03B0931F0385E4F4
:1018700099E090931B0380931A03809170008E7FF0
:10188000809370008091B0008C7F8093B000809135
:10189000B100877F8093B1008091B6008F7D8093E7
:1018A000B600809170008D7F809370008091B100B0
:1018B00084608093B1008091B1008C7F8093B100EF
:1018C00086E090E090931903809318030E942F09FB
:1018D000E6E0FE2E68EA75E080EE94E00E94930A4E
:1018E000A89504E612E0D801ED91FD918D011995BE
:1018F000B2E006381B07B9F78091BE059091BF058D
:101900008130910509F04BC078E4C72E72E0D72EE4
:10191000F601219131916F01C901880F991FFC01D6
:10192000EA5EFD4F408151814330510559F0FC0181
:10193000E052FB4FDC01A855BA4F8D919C919183E9
:10194000808320C01A8219821C821B821E821D8203
:10195000F29E8001F39E100D11240E5C1F4FB80102
:1019600068557A4FCE0101960E94F204BE016F5F66
:101970007F4FC80180529B4F0E94F204CE01019616
:101980000E941305F4E6CF16F2E0DF0609F6809117
:10199000F0049091F104892B09F047C04CC0892BC9
:1019A000B1F756E0C52E52E0D52ED6012D913D91CE
:1019B0006D01C901880F991FFC01EA5EFD4F40814E
:1019C00051814330510559F0FC01E052FB4FDC01DD
:1019D000A855BA4F8D919C919183808320C01A8223
:1019E00019821C821B821E821D82F29E8001F39E40
:1019F000100D11240E5C1F4FB80168557A4FCE01AF
:101A000001960E94F204BE016F5F7F4FC8018052B1
:101A10009B4F0E94F204CE0101960E941305B6E18D
:101A2000CB16B2E0DB0609F6B2CF8091B8059091F3
:101A3000B905009749F460EE74E088EA95E00E94E9
:101A4000930A0E94C40546CF9093F1048093F0045A
:101A5000F2CFCF93DF9380ED94E00E9413058AECE0
:101A600094E00E94130584EC94E00E9413058EEB31
:101A700094E00E94130582E195E0892B39F48AED08
:101A800095E0892BD1F0C0E0D0E00DC0C0E0D0E0FF
:101A9000CE018E559A4F0E9413052697CA368FEFB6
:101AA000D807B1F7ECCFCE018659994F0E941305A4
:101AB0002697CA368FEFD807B1F7DF91CF910895F7
:101AC0001F93FC0199278827BC01E89411911032DB
:101AD000E9F3193010F01E30C8F31B3251F01D32FB
:101AE00049F4689406C00E94920D610F711D811D1A
:101AF000911D119110531A30B0F33EF490958095DA
:101B0000709561957F4F8F4F9F4F1F910895BB2711
:101B10004A3031F4992322F4BDE2909581959F4F8C
:101B20000C94A80D592F482F372F262F660F771F9B
:101B3000881F991F660F771F881F991F620F731FD9
:101B4000841F951F660F771F881F991F0895BB2755
:101B5000FB015527AA27880F991FAA1FA41710F069
:101B6000A41B83955051B9F7A05DAA3308F0A95D75
:101B7000A193009779F7B111B1931192CB010C9415
:101B8000C10DDC01FC01672F71917723E1F73297DA
:101B900004C07C916D9370836291AE17BF07C8F348
:101BA0000895EE0FFF1F881F8BBF0790F691E02D61
:101BB0001994CF93DF938230910510F482E090E086
:101BC000E091C706F091C80620E030E0C0E0D0E028
:101BD000309711F14081518148175907C0F04817DB
:101BE000590761F482819381209719F09B838A833E
:101BF0002BC09093C8068093C70626C021153105D7
:101C000019F04217530718F49A01BE01DF01EF01E2
:101C10000280F381E02DDCCF2115310509F1281B6D
:101C2000390B2430310590F412968D919C911397C5
:101C30006115710521F0FB019383828304C09093A9
:101C4000C8068093C706FD01329644C0FD01E20F2D
:101C5000F31F81939193225031092D933C933AC005
:101C60002091C5063091C606232B41F42091020233
:101C7000309103023093C6062093C50620910002DE
:101C8000309101022115310541F42DB73EB7409145
:101C9000040250910502241B350BE091C506F0911A
:101CA000C606E217F307A0F42E1B3F0B28173907CF
:101CB00078F0AC014E5F5F4F2417350748F04E0FA8
:101CC0005F1F5093C6064093C5068193919302C04F
:101CD000E0E0F0E0CF01DF91CF9108950F931F93E3
:101CE000CF93DF93009709F48CC0FC0132971382E5
:101CF00012820091C7061091C8060115110581F4E2
:101D000020813181820F931F2091C5063091C60634
:101D10002817390779F5F093C606E093C50671C018
:101D2000D80140E050E0AE17BF0750F412962D9155
:101D30003C911397AD012115310509F1D901F3CF7C
:101D40009D01DA013383228360817181860F971FA1
:101D50008217930769F4EC0128813981260F371F18
:101D60002E5F3F4F318320838A819B8193838283BF
:101D7000452B29F4F093C806E093C70642C013969A
:101D8000FC93EE931297ED01499159919E01240F16
:101D9000351FE217F30771F480819181840F951F3D
:101DA000029611969C938E938281938113969C93B5
:101DB0008E931297E0E0F0E0D80112968D919C91FD
:101DC0001397009719F0F8018C01F6CF8D919C9133
:101DD00098012E5F3F4F820F931F2091C5063091CF
:101DE000C6062817390769F4309729F41092C806F7
:101DF0001092C70602C0138212821093C606009387
:101E0000C506DF91CF911F910F9108956F927F9238
:101E10008F929F92AF92BF92CF92DF92EF92FF92FA
:101E20000F931F93CF93DF93EC01009789F4CB01BD
:101E3000DF91CF911F910F91FF90EF90DF90CF90A6
:101E4000BF90AF909F908F907F906F900C94D90D22
:101E5000FC01E60FF71F9C0122503109E217F3073E
:101E600008F4ACC0D9010D911C9111970617170702
:101E7000B0F00530110508F49FC0C801049786171B
:101E8000970708F499C002501109061B170B01931C
:101E900011936D937C93CF010E946E0E8DC05B01F8
:101EA000A01AB10A4C01800E911EA091C706B091F4
:101EB000C80640E050E0E12CF12C109709F44AC02C
:101EC000A815B905D1F56D907C901197630182E05A
:101ED000C80ED11CCA14DB0480F1A3014A195B09A6
:101EE0006A0182E0C80ED11C1296BC90129713961C
:101EF000AC91B5E0CB16D10440F0B282A3835183FC
:101F00004083D9016D937C930AC00E5F1F4FC301BC
:101F1000800F911FF90191838083EB2DFA2FE1143B
:101F2000F10431F0D7011396FC93EE93129744C05D
:101F3000F093C806E093C7063FC08D919C9111971E
:101F40004817590708F4AC017D0112960D90BC9119
:101F5000A02DB3CF8091C5069091C606881599052E
:101F6000E1F446175707C8F48091000290910102EE
:101F7000009741F48DB79EB740910402509105023D
:101F8000841B950BE817F907C8F4F093C606E09395
:101F9000C506F901718360830FC0CB010E94D90D82
:101FA0007C01009759F0A801BE010E94F40FCE01F8
:101FB0000E946E0EC70104C0CE0102C080E090E016
:101FC000DF91CF911F910F91FF90EF90DF90CF9015
:101FD000BF90AF909F908F907F906F90089581E019
:101FE00090E0F8940C940410FB01DC0102C0019015
:101FF0000D9241505040D8F70895FB01DC0101904B
:102000000D920020E1F7089511E0CDE6D1E000E067
:1020100006C0802FFE010E94D10D2196011DCE36F3
:0C202000D10780E00807A9F7F894FFCF73
:10202C000000C9068000020003000100000004004B
:10203C00050006000B00000000000000000000007E
:10204C00000000000100000001000100010001007F
:10205C000100010001000000030003000300030065
:10206C00030003000100010000000400050006004D
:10207C000B001700180012001100130015001400BB
:10208C00130016001808F307D307BB07880755077A
:10209C002207EF06BC06750655068F08350686081E
:1020AC0015063408FD0500000000D50248028C0519
:1020BC001C03BD059C05AF050000000000000000DE
:1020CC00000000001E0000000000000000000100E5
:1020DC0001000100000000000100000000000000F1
:1020EC0000000000000000000000020002000200DE
:1020FC0001000000000000000000000000000000D3
:10210C0000000000000000000300000003000000BD
:10211C00000000001F0020002100250019001A00FB
:10212C001B001C001D001E002700290016001800B3
:08213C00230022002600200010
:00000001FF
