:100000000C946E010C949F010C949F010C949F0121
:100010000C949F010C949F010C949F010C949F01E0
:100020000C949F010C949F010C949F010C949F01D0
:100030000C949F010C949F010C949F010C94210837
:100040000C949F010C949F010C949F010C949F01B0
:100050000C949F010C949F010C949F010C949704A5
:100060000C949F010C9488050C945E050C949F01E0
:100070000C949F010C949F010C949F010C949F0180
:100080000C949F010C949F010C949F010C949F0170
:100090000C949F010C949F010C949F010C949F0160
:1000A0000C949F010C949F010C949F010C949F0150
:1000B0000C949F010C949F010C949F010C949F0140
:1000C0000C949F010C949F010C949F010C949F0130
:1000D0000C949F010C949F010C949F010C949F0120
:1000E0000C949F01E401E701D601DA01E0011E0250
:1000F000EB01EF01F501F901FD01030207020B021B
:100100001E021102150219020C941C080C9407021D
:100110000C9448020C94DA020C94EB010C94F80550
:100120000C941E020C940B020C9421030C94BD053C
:100130000C9418060C9458060C9405070C94DA01DC
:100140000C9438070C94D5050C940F0D0C94770281
:100150000C9403020C9487020C94E4010C949E0707
:100160000C9417080C94D6070C94D2060C946B07C9
:100170000C94A8020C9415020C94D6010C94380629
:100180000C94F9010C94E7010C94EF010C94190202
:100190000C94AF0A0C94FD010C94FB070C94110213
:1001A0000C949F060C94AD080C949A020C94B6071C
:1001B0000C94E0010C94F5010000200023002600BF
:1001C00029002C002F00320000010000030106016D
:1001D000090100000A0B02090C0D0E0807030401B7
:1001E000000000000000000000000000000000000F
:1001F00000000000000000000000000000001211DC
:1002000010000000000000000000000000000000DE
:10021000000000000000000000002200250028006F
:100220002B002E00310034000201000005010801FE
:100230000B0100002100240027002A002D003000BF
:10024000330001010000040107010A01050505054D
:10025000070508080808020202020A0A080804043E
:10026000040401010101010101010303030303036C
:100270000303040707070C0C0C0C0C0C0C0C0202FB
:10028000020206060606060606060B0B0B0B0B0BF8
:100290000B0B010210202008081020401020408085
:1002A000020102010804020101020408102040803A
:1002B00080402010080402018004020180402010C8
:1002C0000804020108040201010204081020408011
:1002D0000102040810204080AF0A0F0D11241FBE38
:1002E000CFEFD1E2DEBFCDBF00E00CBF26E0A6E23B
:1002F000B3E001C01D92A73DB207E1F713E0A0E013
:10030000B2E0EAE0F0E200E00BBF02C007900D921D
:10031000A632B107D9F711E0CDE6D1E000E006C082
:1003200021970109802FFE010E94B70DCC36D1071D
:1003300080E00807A9F70E948F0B0C94F30F0C9430
:100340000000EEE2F3E0A089B18982E08C93A485FD
:10035000B5851C92A685B78580E18C93108EA48903
:10036000B58986E08C93A289B3898C9180618C9346
:10037000A289B3898C9188608C93A289B3898C916E
:1003800080688C930288F389E02D80818F7D808343
:10039000089590E0FC013197E231F10508F04EC07C
:1003A0008827EE58FF4F8F4F0C94B70D8091800037
:1003B0008F7703C0809180008F7D809380000895A7
:1003C00080918000877FF9CF84B58F7702C084B594
:1003D0008F7D84BD08958091B0008F7703C0809198
:1003E000B0008F7D8093B0000895809190008F774A
:1003F00007C0809190008F7D03C080919000877F1F
:100400008093900008958091A0008F7707C080911D
:10041000A0008F7D03C08091A000877F8093A00003
:100420000895809120018F7707C0809120018F7DF2
:1004300003C080912001877F809320010895CF938E
:10044000DF93282F30E0F901EE52FE4F8491F9013D
:10045000EE56FD4FD491F901E45BFD4FC491CC23DE
:1004600091F081110E94C901EC2FF0E0EE0FFF1F07
:10047000E854FE4FA591B491EC91ED2381E090E01A
:1004800021F480E002C080E090E0DF91CF910895F8
:10049000CF92DF92EF92FF920F931F93CF93DF9350
:1004A0006C017A018B01C0E0D0E0CE15DF0589F048
:1004B000D8016D918D01D601ED91FC910190F081F3
:1004C000E02DC6011995892B11F47E0102C02196F9
:1004D000ECCFC701DF91CF911F910F91FF90EF906B
:1004E000DF90CF900895089580E090E00895FC019A
:1004F000538D448D252F30E0842F90E0821B930B89
:10050000541718F081589F4F089501970895FC01E2
:10051000918D828D981759F0828DDF01A80FB11D42
:100520005D968C91928D9F5F928F90E008958FEFF2
:100530009FEF0895FC01918D828D981731F0828D87
:10054000E80FF11D858D90E008958FEF9FEF0895DE
:10055000FC01918D828D981B892F90E008958EE289
:1005600093E00E94A80221E0892B09F420E0822F69
:100570000895FC01848DDF01A80FB11DA35EBE4F5D
:100580002C91848D90E001968F779927848FA6898E
:10059000B7892C93A089B1898C9180648C93938DB9
:1005A000848D981306C00288F389E02D80818F7DA9
:1005B00080830895EF92FF920F931F93CF93DF9361
:1005C000EC0181E0888F9B8D8C8D981305C0E889A4
:1005D000F989808185FD24C0F62E0B8D10E00F5F18
:1005E0001F4F0F771127E02E8C8DE8120CC00FB62D
:1005F00007FCFACFE889F989808185FFF5CFCE0124
:100600000E94B902F1CF8B8DFE01E80FF11DE35E70
:10061000FE4FF0820B8FEA89FB898081806207C0E0
:10062000EE89FF896083E889F9898081806480830D
:1006300081E090E0DF91CF911F910F91FF90EF90BB
:100640000895CF93DF93EC01888D8823C9F0EA8960
:10065000FB89808185FD05C0A889B9898C9186FDBB
:100660000FC00FB607FCF5CF808185FFF2CFA889B8
:10067000B9898C9185FFEDCFCE010E94B902E7CFF9
:10068000DF91CF91089580E090E0892B21F00E94C6
:10069000AF02811125C080E090E0892B41F080E01D
:1006A00090E0892B21F00E94000081111CC080E0A5
:1006B00090E0892B41F080E090E0892B21F00E94AE
:1006C0000000811113C080E090E0892BA1F080E050
:1006D00090E0892B81F00E94000081110AC00895EA
:1006E0000E940000D8CF0E940000E1CF0E940000CD
:1006F000EACF0C94000008950E94D50F0F931F932A
:10070000CF93DF93EC0188819981009729F02A81AA
:100710003B812617370788F48B016F5F7F4F0E945C
:10072000EC0E009761F0998388831B830A832C81E8
:100730003D81232B11F4FC01108281E001C080E097
:10074000DF91CF911F910F910895EF92FF920F9338
:100750001F93CF93DF93EC017B018A01BA010E94C2
:100760007E032881398181110DC02115310519F0D1
:10077000C9010E94540E198218821D821C821B829C
:100780001A8206C01D830C83B701C9010E94EC0FB9
:10079000CE01DF91CF911F910F91FF90EF900895BF
:1007A000CF93DF93EC01CC0FDD1FFE01EE52FD4F26
:1007B0008081918181309105C1F5FE01EC50FD4FA2
:1007C00080810E941F02892BD1F5FE01E655F94F69
:1007D00080819181009761F4FE01E857F94F118201
:1007E0001082C655D94F81E090E09983888303C079
:1007F000019719F081E090E045C0FE01E857F94FFC
:1008000080819181019691838083843F914094F30C
:10081000FE01E857F94F11821082C655D94F82E088
:1008200090E09983888380E0E6CF892B19F7FE0159
:10083000EC50FD4F80810E941F02892B29F0C65584
:10084000D94F19821882D6CFFE01E655F94F208183
:1008500031812115310509F4BFCF2130310561F413
:10086000FE01E857F94F8081918101969183808341
:100870008C3291406CF6BECF81E090E022303105A1
:1008800009F480E0DF91CF910895CF93DF93EC01DD
:1008900040E050E067E173E00E94A503CE01DF91E4
:1008A000CF9108952091D0043091D10482179307FD
:1008B00060F42091CC043091CD042115310529F04C
:1008C000F901E80FF91F8081089580E008951F93D2
:1008D000CF93DF93282F30E0F901EE52FE4F849141
:1008E000F901EE56FD4FD491F901E45BFD4FC4913F
:1008F000CC23C9F0162F81110E94C901EC2FF0E022
:10090000EE0FFF1FE85EFD4FA591B4918FB7F894ED
:10091000111105C09C91ED2FE095E92302C0EC91E7
:10092000ED2BEC938FBFDF91CF911F9108951F9214
:100930000F920FB60F9211242F933F938F939F9393
:10094000AF93BF938091840690918506A09186060F
:10095000B09187063091830623E0230F2D3720F4D2
:100960000196A11DB11D05C026E8230F0296A11D09
:10097000B11D209383068093840690938506A093EF
:100980008606B093870680917F0690918006A0919D
:100990008106B09182060196A11DB11D80937F064C
:1009A00090938006A0938106B0938206BF91AF9189
:1009B0009F918F913F912F910F900FBE0F901F909D
:1009C0001895EF92FF920F931F93CF93DF93FC0143
:1009D000248135816115710511F480E019C041153C
:1009E0005105A9F07B01EC018A01020F131FB80128
:1009F0000E947E03882389F3288139818C819D811F
:100A0000B701820F931F0E94EC0F1D830C8381E0BE
:100A1000DF91CF911F910F91FF90EF900895CF93A9
:100A2000DF931F921F92CDB7DEB769831A8241E030
:100A300050E0BE016F5F7F4F0E94E1040F900F9066
:100A4000DF91CF910895CF93DF93EC01FB018617DF
:100A50009707B1F0608171816115710529F04481BA
:100A600055810E94A5030CC088819981009711F0DF
:100A70000E94540E198218821D821C821B821A82C7
:100A8000CE01DF91CF910895FC01808191810C947A
:100A9000540EFC011182108213821282158214827C
:100AA0006115710551F0FB0101900020E9F73197C4
:100AB000AF01461B570B0C94A50308951F920F928C
:100AC0000FB60F9211240BB60F922F933F934F93B3
:100AD0005F936F937F938F939F93AF93BF93EF93A6
:100AE000FF938EE293E00E94B902FF91EF91BF91D4
:100AF000AF919F918F917F916F915F914F913F91B6
:100B00002F910F900BBE0F900FBE0F901F90189556
:100B10001F920F920FB60F9211240BB60F922F93C4
:100B20008F939F93EF93FF93E0913E03F0913F03E8
:100B30008081E0914403F091450382FD11C09081D2
:100B4000809147038F5F20914803821751F0E09115
:100B50004703F0E0E25DFC4F958F8093470301C0AF
:100B60008081FF91EF919F918F912F910F900BBEFC
:100B70000F900FBE0F901F901895809100059091D7
:100B80000105892B89F080E190E00E94D003892B38
:100B900039F481E090E090930B0580930A05089565
:100BA00010920B0510920A0508958091000590910E
:100BB0000105892BE1F08FE090E00E94D003892BA2
:100BC000B1F481E090E020910E0530910F05232BC8
:100BD00011F080E090E090930F0580930E058FE078
:100BE00090E00E94D003892B11F4A895F8CF0895C6
:100BF0008091000590910105892BC9F08EE090E06D
:100C00000E94D00320910C0530910D05892B49F4E9
:100C1000232B69F481E090E090930D0580930C05FF
:100C20000895232B21F010920D0510920C050895C4
:100C30008091000590910105892BC9F08CE090E02E
:100C40000E94D0032091080530910905892B49F4B1
:100C5000232B69F481E090E09093090580930805C7
:100C60000895232B21F0109209051092080508958C
:100C70008091000590910105892BC9F08AE090E0F0
:100C80000E94D0032091060530910705892B49F475
:100C9000232B69F481E090E090930705809306058B
:100CA0000895232B21F01092070510920605089550
:100CB0008091000590910105892B09F43FC0809136
:100CC0000205909103050197C9F18091F00490917C
:100CD000F104892B99F18091FE049091FF04892BF6
:100CE00069F589E090E00E94D003892B99F4809106
:100CF000CC069091CD0601979093CD068093CC06BB
:100D000083E090E09093F3048093F2041092F50452
:100D10001092F4048091CC069091CD0689359240D2
:100D20006CF01092F3041092F2041092F5041092F9
:100D3000F4041092CD061092CC0608950895809187
:100D4000000590910105892B61F180910205909138
:100D50000305019731F18091F0049091F104892B02
:100D600001F18091FE049091FF04892BD1F488E079
:100D700090E00E94D003892BA1F48091CC06909141
:100D8000CD0601979093CD068093CC0682E090E04B
:100D90009093F3048093F2041092F5041092F404FB
:100DA000089508958091000590910105892B61F1C6
:100DB0008091020590910305019731F18091F00433
:100DC0009091F104892B01F18091FE049091FF0430
:100DD000892BD1F487E090E00E94D003892BA1F405
:100DE0008091CC069091CD0601979093CD0680938B
:100DF000CC0681E090E09093F3048093F20410928B
:100E0000F5041092F40408950895809100059091DE
:100E10000105892B61F180910205909103050197ED
:100E200031F18091F0049091F104892B01F18091CE
:100E3000FE049091FF04892BD1F486E090E00E949B
:100E4000D003892BA1F48091CC069091CD06019717
:100E50009093CD068093CC061092F3041092F20486
:100E600082E090E09093F5048093F404089508954F
:100E70008091000590910105892B61F18091020517
:100E800090910305019731F18091F0049091F10464
:100E9000892B01F18091FE049091FF04892BD1F4FC
:100EA00085E090E00E94D003892BA1F48091CC06CC
:100EB0009091CD0601979093CD068093CC06109229
:100EC000F3041092F20484E090E09093F504809390
:100ED000F404089508958091000590910105892BEF
:100EE00061F18091020590910305019731F18091A4
:100EF000F0049091F104892B01F18091FE0490910E
:100F0000FF04892BD1F484E090E00E94D003892B68
:100F1000A1F48091CC069091CD0601979093CD06D7
:100F20008093CC061092F3041092F20486E090E0D5
:100F30009093F5048093F40408950895809100053A
:100F400090910105892B89F083E090E00E94D00305
:100F5000892B39F481E090E09093FD048093FC04A8
:100F600008951092FD041092FC04089580910005EC
:100F700090910105892BC9F080910205909103059C
:100F8000019799F08091FE049091FF04892B69F4F8
:100F900082E090E00E94D003892B39F48FEF9FEF1D
:100FA0009093F1048093F0040895089580910005D2
:100FB00090910105892BF1F0809102059091030534
:100FC0000197C1F08091FE049091FF04892B91F468
:100FD00081E090E00E94D003892B39F481E090E019
:100FE0009093F1048093F00408951092F10410920C
:100FF000F0040895089580E090E00E94D0032091CD
:10100000CC063091CD062F5F3F4F3093CD06209315
:10101000CC06892B39F481E090E090930105809310
:101020000005089510920105109200050895609141
:101030001E0588E10C94670460911C0589E20C94FC
:1010400067041F920F920FB60F9211240BB60F92E6
:101050002F933F934F935F936F937F938F939F93C0
:10106000AF93BF93EF93FF93809126039091270353
:101070008093B2008091CF069091D006A091D106C6
:10108000B091D2060196A11DB11D8093CF06909319
:10109000D006A093D106B093D2068091CF0690914E
:1010A000D006A091D106B091D20640912A0350916A
:1010B0002B0360912C0370912D0384179507A607CD
:1010C000B70710F18091CE0681111EC081E0809398
:1010D000CE068091CF069091D006A091D106B09116
:1010E000D206841B950BA60BB70B8093CF0690936B
:1010F000D006A093D106B093D206E0912803F091D8
:10110000290319951092CE06FF91EF91BF91AF91EF
:101110009F918F917F916F915F914F913F912F910F
:101120000F900BBE0F900FBE0F901F90189510924E
:10113000CF061092D0061092D1061092D2061092CD
:10114000CE0680912603909127038093B200E0E7BA
:10115000F0E08081816080830895BF92CF92DF921A
:10116000EF92FF920F931F93CF93DF93CDB7DEB72C
:1011700028970FB6F894DEBF0FBECDBF80917000E8
:101180008E7F8093700082ED94E00E94450463E2BC
:1011900082ED94E00E940F0526E1E22E22E0F22E7D
:1011A00036EBC32E35E0D32E8E010F5F1F4FF701B4
:1011B000819191917F01039789F04AE0B801F6018E
:1011C000808191810E946D0DF80101900020E9F766
:1011D0003197AF01401B510BB80104C041E050E012
:1011E00066E173E082ED94E00E94E1046CE782ED39
:1011F00094E00E940F05F2E0CF0ED11C28E4E21625
:1012000022E0F206A1F661E282ED94E00E940F0571
:101210004091D6045091D7044115510541F0609199
:10122000D2047091D3048EE293E00E9448028EEDC6
:1012300094E00E9445048CEC94E00E9445048EE208
:1012400093E00E94A80218161906A4F48EE293E017
:101250000E948702682F8CEC94E00E940F0581ECBD
:1012600097E000000197E9F781EC97E00000019713
:10127000E9F7E5CF8091D0049091D1049093E504F3
:101280008093E404892B09F4E7C01A8219821C8236
:101290001B821E821D826CEC74E0CE0101960E94BE
:1012A00023058D819E81892B49F068E173E0898156
:1012B0009A810E94E30F11E0892B09F010E0CE0122
:1012C00001960E944405112329F167E173E0CE01E4
:1012D00001960E94490563E2CE0101960E940F0526
:1012E00047E050E06EE173E0CE0101960E94E10418
:1012F00061E2CE0101960E940F054D815E816981F8
:101300007A818EE293E00E944802CE0101960E940B
:101310004405A2C01092E9041092E8041092E70478
:101320001092E6040091E4041091E504E12CF12C04
:10133000E016F10674F4C7010E945204833229F4C6
:10134000F092E704E092E60404C08FEFE81AF80A8E
:10135000EFCF0150110917FD09C0C8010E945204C6
:101360008132B9F71093E9040093E8041092EB047A
:101370001092EA040091E6041091E70496E0B92E79
:101380008091E8049091E904801791070CF464C0FF
:10139000C8010E945204982F9D7F913219F08C371A
:1013A00009F06CC0C8010E9452048C3709F051C08A
:1013B000C090EA04D090EB047601EE0CFF1CF7011C
:1013C000EA5EFD4F808191810397C9F08091DE0430
:1013D0009091DF04009719F00E94460D03C060E071
:1013E00070E0CB01EFEFCE1ADE0AD092EB04C09290
:1013F000EA04F701EA54FA4F7183608326C01A8227
:1014000019821C821B821E821D826EED74E0CE0149
:1014100001960E9423052091EA043091EB04C90152
:1014200001969093EB048093EA04B29EC001B39EB0
:10143000900D1124BE016F5F7F4F88519A4F0E941B
:101440002305CE0101960E9444058EED94E00E9492
:1014500045040F5F1F4F94CF0E94970828960FB640
:10146000F894DEBF0FBECDBFDF91CF911F910F91DA
:10147000FF90EF90DF90CF90BF900895682F8EED92
:1014800094E00E940F058ECFCF92DF92EF92FF92F1
:101490000F931F93CF93DF937C0182E3FB01D7016E
:1014A00001900D928A95E1F7670182E3C80ED11C85
:1014B0008B010E5C1F4FC0E0D0E0B8016C0F7D1FA8
:1014C000C6018C0F9D1F0E9423052696C639D105A3
:1014D000A1F7C701DF91CF911F910F91FF90EF907E
:1014E000DF90CF900895AF92BF92CF92DF92EF92AC
:1014F000FF920F931F93CF93DF938C017B01EC013D
:10150000E2965C0188ECA80EB11C6E0167E173E005
:10151000CE010E9449052696CA15DB05B9F7E701F9
:1015200076016E01E2E3CE0ED11C89919991F8010A
:10153000819391938F01C7010E944504F6E0EF0E5D
:10154000F11CCC15DD0589F7DF91CF911F910F912B
:10155000FF90EF90DF90CF90BF90AF900895CF9322
:10156000DF93109231031092300388EE93E0A0E0F5
:10157000B0E08093320390933303A0933403B0938D
:1015800035038AE892E090932F0380932E0385EC35
:1015900090E090933B0380933A0384EC90E0909327
:1015A0003D0380933C0380EC90E090933F03809355
:1015B0003E0381EC90E0909341038093400382ECE2
:1015C00090E0909343038093420386EC90E09093E5
:1015D00045038093440310924703109248031092EE
:1015E000490310924A03A2EDB2E0C4EFD2E0ED91BC
:1015F000FD91EE0FFF1FE653FD4F308189919991C8
:101600009927FC01EE56FD4F2491FC01E45BFD4F50
:101610008491882389F190E0880F991FFC01EE5C8A
:10162000FD4F45915491FC01E85EFD4F85919491E9
:1016300031110BC06FB7F894FA0130812095322335
:101640003083FC01308123230DC0323071F46FB739
:10165000F894FA017081322F309537233083FC01E2
:101660003081232B20836FBF07C08FB7F894FA0116
:101670009081292B20838FBFF2E0A43FBF0709F0A0
:10168000B6CF68E972E086EB95E00E94730A68E9DC
:1016900072E08EEE94E00E94730A67E173E08CECD6
:1016A00094E00E94490567E173E082ED94E00E94B6
:1016B000490567E173E088ED94E00E94490567E120
:1016C00073E08EED94E00E9449050E94A10182ED35
:1016D00094E00E9445048CEC94E00E94450488ED5F
:1016E00094E00E9445041092EB041092EA041092D8
:1016F000E9041092E8041092E7041092E6041092B4
:10170000E5041092E4041092ED041092EC046EEEE5
:1017100074E086EB95E0DF91CF910C94440ACF936F
:10172000DF9300D000D0CDB7DEB7789484B5826067
:1017300084BD84B5816084BD85B5826085BD85B575
:10174000816085BD80916E00816080936E001092F3
:10175000810080918100826080938100809181006E
:1017600081608093810080918000816080938000FF
:101770008091B10084608093B1008091B00081605D
:101780008093B0008091910082608093910080915D
:10179000910081608093910080919000816080939E
:1017A00090008091A10082608093A1008091A100AF
:1017B00081608093A1008091A00081608093A0004F
:1017C00080912101826080932101809121018160BB
:1017D000809321018091200181608093200180917C
:1017E0007A00846080937A0080917A00826080938E
:1017F0007A0080917A00816080937A0080917A00EB
:10180000806880937A001092C1000E94A1019EE03E
:1018100088E10FB6F894A895809360000FBE90936E
:10182000600088EC90E0A0E0B0E080932A03909301
:101830002B03A0932C03B0932D038DEA98E0909393
:10184000290380932803809170008E7F809370001D
:101850008091B0008C7F8093B0008091B100877F31
:101860008093B1008091B6008F7D8093B600809107
:1018700070008D7F809370008091B10084608093B0
:10188000B1008091B1008C7F8093B10086E090E040
:1018900090932703809326030E949708E6E0FE2E8C
:1018A00066EB75E08EEE94E00E94440A04E612E0D6
:1018B000D801ED91FD918D011995A895B2E00638FA
:1018C0001B07B1F78091CC059091CD058130910532
:1018D00009F04BC078E4C72E72E0D72EF6012191B3
:1018E00031916F01C901880F991FFC01EA5EFD4F1C
:1018F000408151814330510559F0FC01E251FB4FC9
:10190000DC01AA54BA4F8D919C919183808320C0B1
:101910001A8219821C821B821E821D82F29E800105
:10192000F39E100D11240E5C1F4FB8016A547A4FBC
:10193000CE0101960E942305BE016F5F7F4FC80153
:1019400082519B4F0E942305CE0101960E944405BF
:10195000F4E6CF16F2E0DF0609F68091FE049091DE
:10196000FF04892B09F047C04CC0892BB1F756E022
:10197000C52E52E0D52ED6012D913D916D01C901A4
:10198000880F991FFC01EA5EFD4F40815181433071
:10199000510559F0FC01E251FB4FDC01AA54BA4F4A
:1019A0008D919C919183808320C01A8219821C8220
:1019B0001B821E821D82F29E8001F39E100D112457
:1019C0000E5C1F4FB8016A547A4FCE0101960E94F7
:1019D0002305BE016F5F7F4FC80182519B4F0E945C
:1019E0002305CE0101960E944405B6E1CB16B2E074
:1019F000DB0609F6B2CF8091C6059091C705009726
:101A000049F46EEE74E086EB95E00E94440A0E9471
:101A1000430346CF9093FF048093FE04F2CFCF930D
:101A2000DF938EED94E00E94440588ED94E00E94DF
:101A3000440582ED94E00E9444058CEC94E00E9401
:101A4000440580E295E0892B39F488EE95E0892BF6
:101A5000D1F0C0E0D0E00DC0C0E0D0E0CE018055B4
:101A60009A4F0E9444052697CA368FEFD807B1F7E0
:101A7000ECCFCE018858994F0E9444052697CA366C
:101A80008FEFD807B1F7DF91CF9108951F93FC0135
:101A900099278827BC01E89411911032E9F3193095
:101AA00010F01E30C8F31B3251F01D3249F4689417
:101AB00006C00E94780D610F711D811D911D11914D
:101AC00010531A30B0F33EF490958095709561955F
:101AD0007F4F8F4F9F4F1F910895BB274A3031F49E
:101AE000992322F4BDE2909581959F4F0C948E0D21
:101AF000592F482F372F262F660F771F881F991FC2
:101B0000660F771F881F991F620F731F841F951F11
:101B1000660F771F881F991F0895BB27FB01552764
:101B2000AA27880F991FAA1FA41710F0A41B83953A
:101B30005051B9F7A05DAA3308F0A95DA1930097B1
:101B400079F7B111B1931192CB010C94A70DDC017F
:101B5000FC01672F71917723E1F7329704C07C91E4
:101B60006D9370836291AE17BF07C8F30895EE0FAF
:101B7000FF1F881F8BBF0790F691E02D1994CF931C
:101B8000DF938230910510F482E090E0E091D50679
:101B9000F091D60620E030E0C0E0D0E0309711F1BF
:101BA0004081518148175907C0F04817590761F41F
:101BB00082819381209719F09B838A832BC0909315
:101BC000D6068093D50626C02115310519F0421797
:101BD000530718F49A01BE01DF01EF010280F3817F
:101BE000E02DDCCF2115310509F1281B390B2430FC
:101BF000310590F412968D919C91139761157105A2
:101C000021F0FB019383828304C09093D6068093D6
:101C1000D506FD01329644C0FD01E20FF31F81930A
:101C20009193225031092D933C933AC02091D306D1
:101C30003091D406232B41F420910202309103020B
:101C40003093D4062093D3062091000230910102F4
:101C50002115310541F42DB73EB740910402509152
:101C60000502241B350BE091D306F091D406E21750
:101C7000F307A0F42E1B3F0B2817390778F0AC01AF
:101C80004E5F5F4F2417350748F04E0F5F1F50938C
:101C9000D4064093D3068193919302C0E0E0F0E034
:101CA000CF01DF91CF9108950F931F93CF93DF93CF
:101CB000009709F48CC0FC013297138212820091C4
:101CC000D5061091D6060115110581F420813181C8
:101CD000820F931F2091D3063091D406281739071D
:101CE00079F5F093D406E093D30671C0D80140E0B3
:101CF00050E0AE17BF0750F412962D913C91139708
:101D0000AD012115310509F1D901F3CF9D01DA01AA
:101D10003383228360817181860F971F8217930717
:101D200069F4EC0128813981260F371F2E5F3F4F60
:101D3000318320838A819B8193838283452B29F47D
:101D4000F093D606E093D50642C01396FC93EE932B
:101D50001297ED01499159919E01240F351FE21709
:101D6000F30771F480819181840F951F029611967B
:101D70009C938E938281938113969C938E9312975A
:101D8000E0E0F0E0D80112968D919C9113970097B6
:101D900019F0F8018C01F6CF8D919C9198012E5F7E
:101DA0003F4F820F931F2091D3063091D4062817FE
:101DB000390769F4309729F41092D6061092D506A7
:101DC00002C0138212821093D4060093D306DF91CF
:101DD000CF911F910F9108956F927F928F929F9252
:101DE000AF92BF92CF92DF92EF92FF920F931F9329
:101DF000CF93DF93EC01009789F4CB01DF91CF9172
:101E00001F910F91FF90EF90DF90CF90BF90AF9018
:101E10009F908F907F906F900C94BF0DFC01E60F08
:101E2000F71F9C0122503109E217F30708F4ACC0F8
:101E3000D9010D911C91119706171707B0F00530C5
:101E4000110508F49FC0C80104978617970708F486
:101E500099C002501109061B170B019311936D9342
:101E60007C93CF010E94540E8DC05B01A01AB10A71
:101E70004C01800E911EA091D506B091D60640E08F
:101E800050E0E12CF12C109709F44AC0A815B905CF
:101E9000D1F56D907C901197630182E0C80ED11C42
:101EA000CA14DB0480F1A3014A195B096A0182E0CC
:101EB000C80ED11C1296BC9012971396AC91B5E047
:101EC000CB16D10440F0B282A38351834083D90161
:101ED0006D937C930AC00E5F1F4FC301800F911F4B
:101EE000F90191838083EB2DFA2FE114F10431F095
:101EF000D7011396FC93EE93129744C0F093D60645
:101F0000E093D5063FC08D919C91119748175907D2
:101F100008F4AC017D0112960D90BC91A02DB3CFB9
:101F20008091D3069091D40688159905E1F446175F
:101F30005707C8F48091000290910102009741F484
:101F40008DB79EB74091040250910502841B950BFA
:101F5000E817F907C8F4F093D406E093D306F90123
:101F6000718360830FC0CB010E94BF0D7C0100977D
:101F700059F0A801BE010E94DA0FCE010E94540E52
:101F8000C70104C0CE0102C080E090E0DF91CF9194
:101F90001F910F91FF90EF90DF90CF90BF90AF9087
:101FA0009F908F907F906F90089581E090E0F894DB
:101FB0000C94F30FFB01DC0102C001900D92415023
:101FC0005040D8F70895FB01DC018D9101908019F4
:101FD0000110D9F3990B0895FB01DC0101900D92DA
:101FE0000020E1F7089511E0CDE6D1E000E006C061
:101FF000802FFE010E94B70D2196011DCE36D1071C
:0A20000080E00807A9F7F894FFCF6D
:10200A000000D7068000020003000100000004005F
:10201A00050006000B0000000000000000000000A0
:10202A0000000000010000000100010001000100A1
:10203A000100010001000000030003000300030087
:10204A00030003000100010000000400050006006F
:10205A000B001700180012001100130015001400DD
:10206A0013001600FB07D607B6079E076B0738074B
:10207A000507D2069F06580638061C0818061708D0
:10208A00F805D505BD0500000000DA02480277020E
:10209A002103A80287029A02000000000000000043
:1020AA00000000001E000000000000000000010007
:1020BA000000000000000000010000000000000015
:1020CA000000000000000000000002000200020000
:1020DA0001000000000000000000000000000000F5
:1020EA0000000000000000000300000003000000E0
:1020FA00000000001F0020002100250019001A001E
:10210A001B001C001D001E002700290016001800D5
:10211A002300220026002000237665727C00766563
:06212A00727C332E31002F
:00000001FF
