:100000000C946C010C949D010C949D010C949D0129
:100010000C949D010C949D010C949D010C949D01E8
:100020000C949D010C949D010C949D010C949D01D8
:100030000C949D010C949D010C949D010C949D01C8
:100040000C949D010C949D010C949D010C949D01B8
:100050000C949D010C949D010C949D010C947707C8
:100060000C949D010C9402050C94D8040C949D01F1
:100070000C949D010C949D010C949D010C949D0188
:100080000C949D010C949D010C949D010C949D0178
:100090000C949D010C949D010C949D010C949D0168
:1000A0000C949D010C949D010C949D010C949D0158
:1000B0000C949D010C949D010C949D010C949D0148
:1000C0000C949D010C949D010C949D010C949D0138
:1000D0000C949D010C949D010C949D010C949D0128
:1000E0000C949D0190059305820586058C05CA0533
:1000F00097059B05A105A505A905AF05B305B7059E
:10010000CA05BD05C105C5050C94A9050C940602D8
:100110000C94C5050C94F5050C94B20B0C941B03C0
:100120000C94CA050C94FB020C94BD050C945F045E
:100130000C94A3010C9477040C94B3050C948C05D7
:100140000C9497050C94C6010C94C0020C9486057F
:100150000C94D3040C944D020C947B0B0C943B0335
:100160000C94A8020C949B050C94D4010C94AF053C
:100170000C9493050C94A7030C9403040C94C105F0
:100180000C9479030C94DB020C94A5050C94B30138
:100190000C94A1050C94CE040C9490050C94D503FA
:1001A0000C9431040C9482050C94BC040C94B70597
:1001B0000C949704000020002300260029002C0046
:1001C0002F003200000100000301060109010000B8
:1001D0000A0B02090C0D0E080703040100000000C1
:1001E000000000000000000000000000000000000F
:1001F00000000000000000000000121110000000CC
:1002000000000000000000000000000000000000EE
:100210000000000000002200250028002B002E0016
:100220003100340002010000050108010B0100004B
:100230002100240027002A002D0030003300010196
:100240000000040107010A01050505050705080866
:100250000808020202020A0A080804040404010150
:100260000101010101010303030303030303040765
:1002700007070C0C0C0C0C0C0C0C020202020606FC
:100280000606060606060B0B0B0B0B0B0B0B0102EF
:100290001020200808102040102040800201020198
:1002A0000804020101020408102040808040201050
:1002B00008040201800402018040201008040201A9
:1002C0000804020101020408102040800102040811
:1002D00010204080B20B7B0B11241FBECFEFD1E268
:1002E000DEBFCDBF00E00CBF26E0A6E2B3E001C058
:1002F0001D92AC3CB207E1F713E0A0E0B2E0ECECF9
:10030000FEE100E00BBF02C007900D92A632B107DC
:10031000D9F711E0CBE6D1E000E006C02197010952
:10032000802FFE010E94180DCA36D10780E0080711
:10033000A9F70E944B080C94540F0C9400000895E8
:1003400080E090E00895FC01538D448D252F30E02E
:10035000842F90E0821B930B541718F081589F4F05
:10036000089501970895FC01918D828D981759F099
:10037000828DDF01A80FB11D5D968C91928D9F5FDC
:10038000928F90E008958FEF9FEF0895FC01918D7B
:10039000828D981731F0828DE80FF11D858D90E0E8
:1003A00008958FEF9FEF0895FC01918D828D981B2A
:1003B000892F90E008958AE293E00E94D40121E021
:1003C000892B09F420E0822F0895FC01848DDF0140
:1003D000A80FB11DA35EBE4F2C91848D90E00196B5
:1003E0008F779927848FA689B7892C93A089B189A3
:1003F0008C9180648C93938D848D981306C00288B1
:10040000F389E02D80818F7D80830895EF92FF92A4
:100410000F931F93CF93DF93EC0181E0888F9B8D27
:100420008C8D981305C0E889F989808185FD24C0E9
:10043000F62E0B8D10E00F5F1F4F0F771127E02E68
:100440008C8DE8120CC00FB607FCFACFE889F98949
:10045000808185FFF5CFCE010E94E501F1CF8B8D24
:10046000FE01E80FF11DE35EFE4FF0820B8FEA897B
:10047000FB898081806207C0EE89FF896083E889FB
:10048000F98980818064808381E090E0DF91CF9161
:100490001F910F91FF90EF900895CF93DF93EC01A0
:1004A000888D8823C9F0EA89FB89808185FD05C094
:1004B000A889B9898C9186FD0FC00FB607FCF5CFCE
:1004C000808185FFF2CFA889B9898C9185FFEDCF16
:1004D000CE010E94E501E7CFDF91CF91089580E042
:1004E00090E0892B21F00E94DB01811125C080E082
:1004F00090E0892B41F080E090E0892B21F00E9470
:10050000000081111CC080E090E0892B41F080E068
:1005100090E0892B21F00E940000811113C080E03F
:1005200090E0892BA1F080E090E0892B81F00E947F
:10053000000081110AC008950E940000D8CF0E94D7
:100540000000E1CF0E940000EACF0C940000089563
:100550008091FC049091FD04892B89F080E190E06A
:100560000E947C06892B39F481E090E09093070586
:1005700080930605089510920705109206050895C8
:100580008091FC049091FD04892BA1F08FE090E014
:100590000E947C06892B71F481E090E020910A058D
:1005A00030910B05232B11F080E090E090930B0528
:1005B00080930A0508958091FC049091FD04892B95
:1005C000C9F08EE090E00E947C06209108053091F1
:1005D0000905892B49F4232B69F481E090E090937D
:1005E0000905809308050895232B21F01092090531
:1005F0001092080508958091FC049091FD04892BC8
:10060000C9F08CE090E00E947C06209104053091B6
:100610000505892B49F4232B69F481E090E0909340
:100620000505809304050895232B21F010920505FC
:100630001092040508958091FC049091FD04892B8B
:10064000C9F08AE090E00E947C062091020530917A
:100650000305892B49F4232B69F481E090E0909302
:100660000305809302050895232B21F010920305C2
:100670001092020508958091FC049091FD04892B4D
:10068000B9F18091FE049091FF04019789F1809166
:10069000EC049091ED04892B59F18091FA0490912A
:1006A000FB04892B29F589E090E00E947C06892BC8
:1006B00059F4109229031092280383E090E090935C
:1006C000EF048093EE040FC08091280390912903DA
:1006D000893C91056CF01092290310922803109226
:1006E000EF041092EE041092F1041092F0040895B9
:1006F00008958091FC049091FD04892B39F180913B
:10070000FE049091FF04019709F18091EC0490910F
:10071000ED04892BD9F08091FA049091FB04892B88
:10072000A9F488E090E00E947C06892B79F410926D
:1007300029031092280382E090E09093EF048093C5
:10074000EE041092F1041092F0040895089580913F
:10075000FC049091FD04892B39F18091FE04909165
:10076000FF04019709F18091EC049091ED04892B2D
:10077000D9F08091FA049091FB04892BA9F487E0C9
:1007800090E00E947C06892B79F410922903109244
:10079000280381E090E09093EF048093EE041092A0
:1007A000F1041092F004089508958091FC04909152
:1007B000FD04892B39F18091FE049091FF0401978B
:1007C00009F18091EC049091ED04892BD9F080918E
:1007D000FA049091FB04892BA9F486E090E00E9432
:1007E0007C06892B79F41092290310922803109229
:1007F000EF041092EE0482E090E09093F104809375
:10080000F004089508958091FC049091FD04892BD3
:1008100039F18091FE049091FF04019709F18091D4
:10082000EC049091ED04892BD9F08091FA04909119
:10083000FB04892BA9F485E090E00E947C06892BBB
:1008400079F410922903109228031092EF04109269
:10085000EE0484E090E09093F1048093F004089516
:1008600008958091FC049091FD04892B39F18091C9
:10087000FE049091FF04019709F18091EC0490919E
:10088000ED04892BD9F08091FA049091FB04892B17
:10089000A9F484E090E00E947C06892B79F4109200
:1008A0002903109228031092EF041092EE0486E0C0
:1008B00090E09093F1048093F0040895089580915E
:1008C000FC049091FD04892B89F083E090E00E9464
:1008D0007C06892B39F481E090E09093F9048093B1
:1008E000F80408951092F9041092F8040895809184
:1008F000FC049091FD04892BC9F08091FE04909135
:10090000FF04019799F08091FA049091FB04892BE0
:1009100069F482E090E00E947C06892B39F48FEF25
:100920009FEF9093ED048093EC04089508958091D7
:10093000FC049091FD04892BF1F08091FE049091CC
:10094000FF040197C1F08091FA049091FB04892B78
:1009500091F481E090E00E947C06892B39F481E0DB
:1009600090E09093ED048093EC0408951092ED04D0
:100970001092EC040895089580E090E00E947C06B7
:10098000892B39F481E090E09093FD048093FC047E
:1009900008951092FD041092FC04089560911A05C8
:1009A00088E10C9422076091180589E20C942207D3
:1009B0001F920F920FB60F9211240BB60F922F9326
:1009C0003F934F935F936F937F938F939F93AF93D7
:1009D000BF93EF93FF938AE293E00E94E501FF91BA
:1009E000EF91BF91AF919F918F917F916F915F91A7
:1009F0004F913F912F910F900BBE0F900FBE0F9014
:100A00001F9018951F920F920FB60F9211240BB6DC
:100A10000F922F938F939F93EF93FF93E0913A035D
:100A2000F0913B038081E0914003F091410382FD0E
:100A300011C09081809143038F5F209144038217FE
:100A400051F0E0914303F0E0E65DFC4F958F809319
:100A5000430301C08081FF91EF919F918F912F916E
:100A60000F900BBE0F900FBE0F901F901895AF9276
:100A7000BF92CF92DF92EF92FF920F931F93CF938B
:100A8000DF938C017B01EC01E2965C0188ECA80EFF
:100A9000B11C6E0167E173E0CE010E943608269614
:100AA000CA15DB05B9F7E70176016E01E2E3CE0E68
:100AB000D11C89919991F801819391938F0167E1FC
:100AC00073E0C7010E940308F6E0EF0EF11CCC159D
:100AD000DD0579F7DF91CF911F910F91FF90EF9096
:100AE000DF90CF90BF90AF90089590E0FC013197D8
:100AF000E231F10508F04EC08827EE58FF4F8F4FC6
:100B00000C94180D809180008F7703C08091800035
:100B10008F7D80938000089580918000877FF9CF3A
:100B200084B58F7702C084B58F7D84BD0895809190
:100B3000B0008F7703C08091B0008F7D8093B000AC
:100B40000895809190008F7707C0809190008F7DED
:100B500003C080919000877F8093900008958091DA
:100B6000A0008F7707C08091A0008F7D03C0809187
:100B7000A000877F8093A0000895809120018F7747
:100B800007C0809120018F7D03C080912001877F65
:100B9000809320010895CF93DF93282F30E0F9014F
:100BA000E253FE4F8491F901E257FD4FD491F901D0
:100BB000E85BFD4FC491CC2391F081110E94750533
:100BC000EC2FF0E0EE0FFF1FEC54FE4FA591B49117
:100BD000EC91ED2381E090E021F480E002C080E020
:100BE00090E0DF91CF9108950895CF92DF92EF9238
:100BF000FF920F931F93CF93DF936C017A018B01C8
:100C0000C0E0D0E0CE15DF0589F0D8016D918D01EF
:100C1000D601ED91FC910190F081E02DC60119956E
:100C2000892B11F47E0102C02196ECCFC701DF9120
:100C3000CF911F910F91FF90EF90DF90CF9008958B
:100C40000E94360F0F931F93CF93DF93EC0188819F
:100C50009981009729F02A813B812617370788F46C
:100C60008B016F5F7F4F0E944D0E009761F099835B
:100C700088831B830A832C813D81232B11F4FC0183
:100C8000108281E001C080E0DF91CF911F910F9130
:100C90000895CF93DF93EC0188819981009711F03B
:100CA0000E94B50D198218821D821C821B821A8235
:100CB000DF91CF910895EF92FF920F931F93CF93FF
:100CC000DF93EC017B018A01BA010E9422068111A7
:100CD00004C0CE010E94490607C01D830C83B701E2
:100CE000888199810E944D0FCE01DF91CF911F9194
:100CF0000F91FF90EF900895CF93DF93EC01CC0F0D
:100D0000DD1FFE01EE52FD4F808191818130910502
:100D100009F5FE01EC50FD4F80810E94CB05892B27
:100D200009F045C0FE01EA55F94F80819181009795
:100D300061F4FE01EC57F94F11821082CA55D94F68
:100D400081E090E09983888303C00197C1F081E03E
:100D500090E038C0892BD9F7FE01EC50FD4F80811F
:100D60000E94CB05892B19F5FE01EA55F94F208128
:100D7000318121153105E9F221303105E9F4FE0117
:100D8000EC57F94F808191810196918380838C3259
:100D90009140ECF2FE01EC57F94F11821082CA55D6
:100DA000D94F82E090E09983888380E0D1CFCA5503
:100DB000D94F19821882CBCF81E090E022303105E3
:100DC00009F480E0DF91CF910895EAE2F3E0A08991
:100DD000B18982E08C93A485B5851C92A685B785E0
:100DE00080E18C93108EA489B58986E08C93A289CA
:100DF000B3898C9180618C93A289B3898C9188602E
:100E00008C93A289B3898C9180688C930288F38932
:100E1000E02D80818F7D808308952091CC043091D6
:100E2000CD048217930760F42091C8043091C9045F
:100E30002115310529F0F901E80FF91F8081089586
:100E400080E008951F93CF93DF93282F30E0F901BE
:100E5000E253FE4F8491F901E257FD4FD491F9011D
:100E6000E85BFD4FC491CC23C9F0162F81110E947D
:100E70007505EC2FF0E0EE0FFF1FEC5EFD4FA59126
:100E8000B4918FB7F894111105C09C91ED2FE095A6
:100E9000E92302C0EC91ED2BEC938FBFDF91CF9152
:100EA0001F9108953FB7F894809180069091810634
:100EB000A0918206B091830626B5A89B05C02F3F5E
:100EC00019F00196A11DB11D3FBFBA2FA92F982F70
:100ED0008827820F911DA11DB11DBC01CD0142E0EB
:100EE000660F771F881F991F4A95D1F708951F92A3
:100EF0000F920FB60F9211242F933F938F939F93CE
:100F0000AF93BF9380917C0690917D06A0917E0661
:100F1000B0917F0630917B0623E0230F2D3720F41C
:100F20000196A11DB11D05C026E8230F0296A11D43
:100F3000B11D20937B0680937C0690937D06A09341
:100F40007E06B0937F068091800690918106A091E5
:100F50008206B09183060196A11DB11D8093800683
:100F600090938106A0938206B0938306BF91AF91C0
:100F70009F918F913F912F910F900FBE0F901F90D7
:100F80001895EF92FF920F931F93CF93DF93FC017D
:100F9000248135816115710511F480E019C0411576
:100FA0005105A9F07B01EC018A01020F131FB80162
:100FB0000E942206882389F3288139818C819D81B2
:100FC000B701820F931F0E944D0F1D830C8381E098
:100FD000DF91CF911F910F91FF90EF900895CF93E4
:100FE000DF931F921F92CDB7DEB769831A8241E06B
:100FF00050E0BE016F5F7F4F0E94C1070F900F90BE
:10100000DF91CF910895CF93DF93EC0161157105C6
:1010100059F0FB0101900020E9F73197AF01461B21
:10102000570B0E945B0602C00E944906CE01DF9169
:10103000CF910895CF93DF93EC01FB0186179707BB
:1010400061F0608171816115710529F044815581DC
:101050000E945B0602C00E944906CE01DF91CF913B
:101060000895FC01808191810C94B50DFC011182E1
:10107000108213821282158214826115710551F05B
:10108000FB0101900020E9F73197AF01461B570B98
:101090000C945B060895CF93DF93CDB7DEB72A9704
:1010A0000FB6F894DEBF0FBECDBF789484B58260D2
:1010B00084BD84B5816084BD85B5826085BD85B5FC
:1010C000816085BD80916E00816080936E0010927A
:1010D00081008091810082608093810080918100F5
:1010E0008160809381008091800081608093800086
:1010F0008091B10084608093B1008091B0008160E4
:101100008093B000809191008260809391008091E3
:101110009100816080939100809190008160809324
:1011200090008091A10082608093A1008091A10035
:1011300081608093A1008091A00081608093A000D5
:101140008091210182608093210180912101816041
:101150008093210180912001816080932001809102
:101160007A00846080937A0080917A008260809314
:101170007A0080917A00816080937A0080917A0071
:10118000806880937A001092C1000E94E5069EE07C
:1011900088E10FB6F894A895809360000FBE9093F5
:1011A000600092E3C92E23E2322E8E010F5F1F4FA3
:1011B00036E0D32E809128039091290301969093D5
:1011C0002903809328038091260390912703019699
:1011D000909327038093260384E6E82E82E0F82E7E
:1011E000D701ED91FD917D011995A895B6E8EB1613
:1011F000B2E0FB06A9F780912603909127038D3D6D
:1012000095400CF461C2EAEEF4E0A2EBB5E08C2D5F
:1012100001900D928A95E1F7E12CF12CC701C2965D
:10122000BC0166517B4F8E549A4F0E941A08F6E01B
:10123000EF0EF11C26E9E216F10481F71A821982F9
:101240001C821B821E821D8239861A86BE01675F40
:101250007F4FC8010E9403088091CE049091CF0473
:10126000009789F069817A816115710551F040918B
:10127000D0045091D1042D813E814217530708F0CC
:1012800026C20E94B50D89819A819093CF048093E4
:10129000CE048B819C819093D1048093D0048D8166
:1012A0009E819093D3048093D2041A8219821C8267
:1012B0001B821E821D82C8010E943108A2E3EA2E11
:1012C000A2E0FA2EB2EB8B2EB5E09B2ED7018D91CA
:1012D0009D917D01039789F04AE0B801F401808176
:1012E00091810E94CE0CF80101900020E9F731971E
:1012F000AF01401B510BB80104C041E050E066E172
:1013000073E08EEC94E00E94C1076CE78EEC94E0F1
:101310000E94EF07F2E08F0E911C24E6E21622E015
:10132000F206A1F661E28EEC94E00E94EF07409194
:10133000D2045091D3044115510579F16091CE0446
:101340007091CF048AE293E00E94F505A8950E946F
:1013500052074B015C01F2E34F2E512C612C712C92
:101360000E945207DC01CB0188199909AA09BB091F
:10137000883E9340A105B10558F081E0481A510814
:1013800061087108A8EE8A0EA3E09A1EA11CB11C88
:10139000411451046104710419F7A89567E173E0E1
:1013A0008AED94E00E94030867E173E088EC94E022
:1013B0000E9403088AE293E00E94D40118161906DD
:1013C0006CF48AE293E00E94B301F82E682F88EC57
:1013D00094E00E94EF07F1E2FF12ECCF8091CC0481
:1013E0009091CD049093E1048093E004892B09F45B
:1013F000CEC0A8951A8219821C821B821E821D8271
:1014000068EC74E0C8010E941A088D819E81892BC6
:1014100051F068E173E089819A810E94440FFF24B2
:10142000F394892B09F0F12CC8010E943108FF20A8
:1014300001F167E173E0C8010E94360863E2C80168
:101440000E94EF0747E050E06EE173E0C8010E94A0
:10145000C10761E2C8010E94EF074D815E81698189
:101460007A818AE293E00E94F505C8010E94310862
:101470008EC01092E3041092E2048090E0049090F9
:10148000E104E12CF12CE814F90474F4C7010E9482
:101490000D07833229F4F092E304E092E20404C0E1
:1014A0002FEFE21AF20AEFCF1092E7041092E6044F
:1014B000E090E204F090E3048091E0049091E10474
:1014C000E816F9060CF063C0C7010E940D07982FBB
:1014D0009D7F913219F08C3709F002C1C7010E943B
:1014E0000D078C3709F04FC06090E6047090E70458
:1014F0004301880C991CF401EE5CFD4F80819181C1
:101500000397C9F08091DA049091DB04009719F0F9
:101510000E94A70C03C060E070E0CB01AFEF6A1A35
:101520007A0A7092E7046092E604F401EE54FA4FEE
:101530007183608322C01A8219821C821B821E82E0
:101540001D826AED74E0C8010E941A082091E60429
:101550003091E704C90101969093E7048093E60473
:10156000D29EC001D39E900D1124B8018C519A4F88
:101570000E941A08C8010E94310867E173E08AEDF1
:1015800094E00E940308BFEFEB1AFB0A95CF80910D
:10159000C8059091C9058130910509F048C076E1F0
:1015A000872E72E0972EF401219131914F01C901EC
:1015B000880F991FFC01EE5CFD4F40815181433043
:1015C000510559F0FC01E651FB4FDC01AE54BA4F16
:1015D0008D919C91918380831DC01A8219821C82F7
:1015E0001B821E821D82D29E7001D39EF00C11249C
:1015F000F2E3EF0EF11CB7016E547A4FC8010E945E
:101600001A08B801C70186519B4F0E941A08C801E9
:101610000E94310822E3821622E0920621F6809190
:10162000FA049091FB04892B09F044C049C0892B2E
:10163000B1F756E0852E52E0952ED4012D913D91C3
:101640004D01C901880F991FFC01EE5CFD4F4081DF
:1016500051814330510559F0FC01E651FB4FDC014B
:10166000AE54BA4F8D919C91918380831DC01A8294
:1016700019821C821B821E821D82D29E7001D39E03
:10168000F00C1124B2E3EB0EF11CB7016E547A4F4B
:10169000C8010E941A08B801C70186519B4F0E94D9
:1016A0001A08C8010E943108E6E18E16E2E09E06A3
:1016B00021F6B5CF8091C2059091C3050097B1F492
:1016C00010922703109226030E946F0273CD0E948E
:1016D0004D0F8D819E819093D3048093D204E9CDE8
:1016E000682F8AED94E00E94EF07F8CE9093FB04F8
:1016F0008093FA04E5CFCF93DF938AED94E00E94C4
:10170000310884ED94E00E9431088EEC94E00E9450
:10171000310888EC94E00E9431088CE195E0892B37
:1017200039F484EE95E0892BD1F0C0E0D0E00DC013
:10173000C0E0D0E0CE0184559A4F0E943108269730
:10174000CA368FEFD807B1F7ECCFCE018C58994F3E
:101750000E9431082697CA368FEFD807B1F7DF917C
:10176000CF910895CF93DF9310922D0310922C0305
:1017700088EE93E0A0E0B0E080932E0390932F03D7
:10178000A0933003B09331038AE892E090932B0347
:1017900080932A0385EC90E090933703809336037F
:1017A00084EC90E0909339038093380380EC90E0D0
:1017B00090933B0380933A0381EC90E090933D0338
:1017C00080933C0382EC90E090933F0380933E0330
:1017D00086EC90E090934103809340031092430382
:1017E000109244031092450310924603A2EDB2E01A
:1017F000C4EFD2E0ED91FD91EE0FFF1FE653FD4FD8
:101800003081899199919927FC01E257FD4F2491EC
:10181000FC01E85BFD4F8491882389F190E0880FFB
:10182000991FFC01E25DFD4F45915491FC01EC5E76
:10183000FD4F8591949131110BC06FB7F894FA0167
:101840003081209532233083FC01308123230DC069
:10185000323071F46FB7F894FA017081322F3095FD
:1018600037233083FC013081232B20836FBF07C0D7
:101870008FB7F894FA019081292B20838FBFF2E073
:10188000A43FBF0709F0B6CF68E972E082EB95E0AC
:101890000E94370568E972E08AEE94E00E943705FD
:1018A00067E173E088EC94E00E94360867E173E03A
:1018B0008EEC94E00E94360867E173E084ED94E0DA
:1018C0000E94360867E173E08AED94E00E943608D2
:1018D0000E94E50667E173E08EEC94E00E94030845
:1018E00067E173E088EC94E00E94030867E173E02D
:1018F00084ED94E00E9403081092E7041092E6043D
:101900001092E3041092E2041092E1041092E004B9
:101910001092E9041092E80482E3EAEEF4E0A2EB0C
:10192000B5E001900D928A95E1F7C0E0D0E0CE01DC
:10193000C296BC0166517B4F8E549A4F0E941A0882
:101940002696C639D10599F7DF91CF9108951F9357
:10195000FC0199278827BC01E89411911032E9F322
:10196000193010F01E30C8F31B3251F01D3249F40B
:10197000689406C00E94D90C610F711D811D911DD4
:10198000119110531A30B0F33EF4909580957095F4
:1019900061957F4F8F4F9F4F1F910895BB274A300E
:1019A00031F4992322F4BDE2909581959F4F0C94D8
:1019B000EF0C592F482F372F262F660F771F881FC0
:1019C000991F660F771F881F991F620F731F841F4F
:1019D000951F660F771F881F991F0895BB27FB016E
:1019E0005527AA27880F991FAA1FA41710F0A41B18
:1019F00083955051B9F7A05DAA3308F0A95DA19372
:101A0000009779F7B111B1931192CB010C94080DA5
:101A1000DC01FC01672F71917723E1F7329704C055
:101A20007C916D9370836291AE17BF07C8F30895E0
:101A3000EE0FFF1F881F8BBF0790F691E02D1994C2
:101A4000CF93DF938230910510F482E090E0E09133
:101A5000CA06F091CB0620E030E0C0E0D0E030973D
:101A600011F14081518148175907C0F048175907B3
:101A700061F482819381209719F09B838A832BC024
:101A80009093CB068093CA0626C02115310519F024
:101A90004217530718F49A01BE01DF01EF010280DB
:101AA000F381E02DDCCF2115310509F1281B390B1D
:101AB0002430310590F412968D919C911397611505
:101AC000710521F0FB019383828304C09093CB06C0
:101AD0008093CA06FD01329644C0FD01E20FF31F58
:101AE00081939193225031092D933C933AC02091D8
:101AF000C8063091C906232B41F42091020230918F
:101B000003023093C9062093C80620910002309149
:101B100001022115310541F42DB73EB74091040271
:101B200050910502241B350BE091C806F091C906BF
:101B3000E217F307A0F42E1B3F0B2817390778F0A4
:101B4000AC014E5F5F4F2417350748F04E0F5F1F03
:101B50005093C9064093C8068193919302C0E0E078
:101B6000F0E0CF01DF91CF9108950F931F93CF93B2
:101B7000DF93009709F48CC0FC0132971382128224
:101B80000091CA061091CB060115110581F4208140
:101B90003181820F931F2091C8063091C906281702
:101BA000390779F5F093C906E093C80671C0D801EA
:101BB00040E050E0AE17BF0750F412962D913C91D3
:101BC0001397AD012115310509F1D901F3CF9D011D
:101BD000DA013383228360817181860F971F821718
:101BE000930769F4EC0128813981260F371F2E5F96
:101BF0003F4F318320838A819B8193838283452B4E
:101C000029F4F093CB06E093CA0642C01396FC93E6
:101C1000EE931297ED01499159919E01240F351FC2
:101C2000E217F30771F480819181840F951F02966A
:101C300011969C938E938281938113969C938E939D
:101C40001297E0E0F0E0D80112968D919C911397E5
:101C5000009719F0F8018C01F6CF8D919C919801B5
:101C60002E5F3F4F820F931F2091C8063091C90607
:101C70002817390769F4309729F41092CB0610928F
:101C8000CA0602C0138212821093C9060093C806C6
:101C9000DF91CF911F910F9108956F927F928F9254
:101CA0009F92AF92BF92CF92DF92EF92FF920F93EB
:101CB0001F93CF93DF93EC01009789F4CB01DF9161
:101CC000CF911F910F91FF90EF90DF90CF90BF9039
:101CD000AF909F908F907F906F900C94200DFC019F
:101CE000E60FF71F9C0122503109E217F30708F4B1
:101CF000ACC0D9010D911C91119706171707B0F0D0
:101D00000530110508F49FC0C8010497861797078E
:101D100008F499C002501109061B170B0193119387
:101D20006D937C93CF010E94B50D8DC05B01A01A0D
:101D3000B10A4C01800E911EA091CA06B091CB064B
:101D400040E050E0E12CF12C109709F44AC0A815AE
:101D5000B905D1F56D907C901197630182E0C80EB2
:101D6000D11CCA14DB0480F1A3014A195B096A0182
:101D700082E0C80ED11C1296BC9012971396AC91BB
:101D8000B5E0CB16D10440F0B282A38351834083E7
:101D9000D9016D937C930AC00E5F1F4FC301800F62
:101DA000911FF90191838083EB2DFA2FE114F10447
:101DB00031F0D7011396FC93EE93129744C0F09341
:101DC000CB06E093CA063FC08D919C9111974817AE
:101DD000590708F4AC017D0112960D90BC91A02D1D
:101DE000B3CF8091C8069091C90688159905E1F492
:101DF00046175707C8F4809100029091010200979E
:101E000041F48DB79EB74091040250910502841BA6
:101E1000950BE817F907C8F4F093C906E093C806D4
:101E2000F901718360830FC0CB010E94200D7C01FA
:101E3000009759F0A801BE010E943B0FCE010E94FD
:101E4000B50DC70104C0CE0102C080E090E0DF9173
:101E5000CF911F910F91FF90EF90DF90CF90BF90A7
:101E6000AF909F908F907F906F90089581E090E069
:101E7000F8940C94540FFB01DC0102C001900D9208
:101E800041505040D8F70895FB01DC018D9101903D
:101E900080190110D9F3990B0895FB01DC01019021
:101EA0000D920020E1F7089511E0CBE6D1E000E0CB
:101EB00006C0802FFE010E94180D2196011DCC3610
:0C1EC000D10780E00807A9F7F894FFCFD5
:101ECC000000CC06800002000300010000000400AA
:101EDC00050006000B0000000400050006000B00C6
:101EEC001700180012001100130015001400130045
:101EFC0016000000000000000000000000000000C0
:101F0C0001000000010001000100010001000100BE
:101F1C0001000000030003000300030003000300A2
:101F2C0001000100BC04970477045F04310403042E
:101F3C00D503A70379033B031B03D304FB02CE0495
:101F4C00DB02C002A802000000000602F505A30196
:101F5C004D02D401B301C6010000000000000000D6
:101F6C00000000001E000000000000000000010046
:101F7C000000000000000000010000000000000054
:101F8C00000000000000000000000200020002003F
:101F9C000100000000000000000000000000000034
:101FAC00000000000000000003000000030000001F
:101FBC00010000001F0020002100250019001A005C
:101FCC001B001C001D001E00270029001600180015
:101FDC002300220026002000237665727C007665A3
:061FEC00727C332E31006F
:00000001FF
