:100000000C9494010C94C5010C94C5010C94C50189
:100010000C94C5010C94C5010C94C5010C94C50148
:100020000C94C5010C94C5010C94C5010C94C50138
:100030000C94C5010C94C5010C94C5010C94B60731
:100040000C94C5010C94C5010C94C5010C94C50118
:100050000C94C5010C94C5010C94C5010C941C0AA8
:100060000C94C5010C948C070C9462070C94C50188
:100070000C94C5010C94C5010C94C5010C94C501E8
:100080000C94C5010C94C5010C94C5010C94C501D8
:100090000C9438070C940E070C94C5010C94C50100
:1000A0000C94C5010C94C5010C94C5010C94C501B8
:1000B0000C94C5010C94C5010C94C5010C94C501A8
:1000C0000C94C5010C94C5010C94C5010C94C50198
:1000D0000C94C5010C94C5010C94C5010C94C50188
:1000E0000C94C501C304C804CD04D704E1045A0527
:1000F000EB04F304FB0405050F051905280532057B
:100100005A053C054605500547084A0839083D0888
:10011000430881084E08520858085C0860086608C1
:100120006A086E088108740878087C080C943908FD
:100130000C9415020C9447080C94AF060C943C05E3
:100140000C9419050C9478080C94E4010C94C304E5
:100150000C9497060C9450050C944A080C946A0869
:100160000C94EF050C947E0C0C9407020C948108FF
:100170000C9428050C9460080C94CF060C94CD04C4
:100180000C9443080C945C080C9466080C941906B3
:100190000C9474080C94C5050C949D020C946D0687
:1001A0000C947C080C9443060C94F3040C949A0C65
:1001B0000C9452080C94F3010C9446050C943205EF
:1001C0000C9419030C9405050C949B050C945A058A
:1001D0000C946E080C944E080C94E1040C94F406F4
:1001E0000C94FB040C94D7040C9456020C94AB08AA
:1001F0000C94C8040C9458080C94EB040C940F0550
:100200000C943D0800002100240027002A002D0046
:100210003000330001010000040107010A01000061
:100220002200250028002B002E003100340002019E
:100230000000050108010B0100002000230026003A
:1002400029002C002F0032000001000003010601EC
:10025000090105050505070508080808020202024C
:100260000A0A080804040404010101010101010152
:100270000303030303030303040707070C0C0C0C1D
:100280000C0C0C0C02020202060606060606060606
:100290000B0B0B0B0B0B0B0B010210202008081093
:1002A00020401020408002010201080402010102E6
:1002B00004081020408080402010080402018004BF
:1002C000020180402010080402010804020101021A
:1002D0000408102040800102040810204080000023
:1002E0000A0B02090C0D0E080703040100000000B0
:1002F00000000000000000000000000000000000FE
:1003000000000000000000000000121110000000BA
:1003100000000000000000000000000000000000DD
:10032000000000009A0C7E0C11241FBECFEFD1E21A
:10033000DEBFCDBF00E00CBF25E0AEE2B3E001C000
:100340001D92AC32B207E1F713E0A0E0B2E0E4EDB9
:10035000F0E200E00BBF02C007900D92AE32B10791
:10036000D9F711E0C3E9D1E000E006C02197010907
:10037000802FFE010E94250EC239D10780E00807B8
:10038000A9F70E94520B0C9458100C940000FC0129
:10039000A089B1898C91A689B78982FD0FC09C91F3
:1003A000818D8F5F8F73228D821749F0218DDF0140
:1003B000A20FB11D5D969C93818F08958C91089535
:1003C000089580E090E00895FC01538D448D252F21
:1003D00030E0842F90E0821B930B541710F0CF96DF
:1003E000089501970895FC01918D828D981761F011
:1003F000828DDF01A80FB11D5D968C91928D9F5F5C
:100400009F73928F90E008958FEF9FEF0895FC0106
:10041000918D828D981731F0828DE80FF11D858DB9
:1004200090E008958FEF9FEF0895FC01918D228D4C
:10043000892F90E0805C9F4F821B91098F739927D1
:1004400008958DE393E00E94150221E0892B09F4C1
:1004500020E0822F08958AED93E00E94150221E0AA
:10046000892B09F420E0822F0895FC01848DDF019F
:10047000A80FB11DA35ABF4F2C91848D90E0019617
:100480008F739927848FA689B7892C93A089B18906
:100490008C9180648C93938D848D981306C0028810
:1004A000F389E02D80818F7D80830895EF92FF9204
:1004B0000F931F93CF93DF93EC0181E0888F9B8D87
:1004C0008C8D981305C0E889F989808185FD24C049
:1004D000F62E0B8D10E00F5F1F4F0F731127E02ECC
:1004E0008C8DE8120CC00FB607FCFACFE889F989A9
:1004F000808185FFF5CFCE010E943502F1CF8B8D33
:10050000FE01E80FF11DE35AFF4FF0820B8FEA89DD
:10051000FB898081806207C0EE89FF896083E8895A
:10052000F98980818064808381E090E0DF91CF91C0
:100530001F910F91FF90EF900895CF93DF93EC01FF
:10054000888D8823C9F0EA89FB89808185FD05C0F3
:10055000A889B9898C9186FD0FC00FB607FCF5CF2D
:10056000808185FFF2CFA889B9898C9185FFEDCF75
:10057000CE010E943502E7CFDF91CF91089580E050
:1005800090E0892B21F00E942B02811121C080E094
:1005900090E0892B21F00E94210281111CC080E093
:1005A00090E0892B41F080E090E0892B21F00E94BF
:1005B0000000811113C080E090E0892BA1F080E061
:1005C00090E0892B81F00E94000081110AC00895FB
:1005D0000E940000DCCF0E940000E1CF0E940000DA
:1005E000EACF0C940000089510922F03109230036C
:1005F000109231031092320310922E038091330334
:10060000909134038093B200E0E7F0E08081816054
:100610008083089520E030E0281739074CF441EC3E
:1006200057E0000041505109E1F72F5F3F4FF4CFF1
:1006300008955F926F927F928F929F92AF92BF9236
:10064000CF92DF92EF92FF920F931F93CF93DF939E
:10065000CDB7DEB72C970FB6F894DEBF0FBECDBF77
:10066000809170008E7F809370008EE794E00E94EE
:10067000190B63E28EE794E00E94B50ABCE9CB2E29
:10068000B4E0DB2E8601F801619171918F018EE754
:1006900094E00E94660A6CE78EE794E00E94B50A37
:1006A000F4E0043B1F0779F761E28EE794E00E94D3
:1006B000B50A40918204509183044115510541F0DF
:1006C00060917E0470917F048AED93E00E94AB08F4
:1006D00089E190E00E940A036AEB72E0CE01019684
:1006E0000E943D0B88E794E00E94190B8AED93E08D
:1006F0000E9415021816190674F48AED93E00E9400
:10070000F301682F88E794E00E94B50A82E090E048
:100710000E940A03EBCF00917C0410917D04011527
:100720001105D1F489819A810E94C20E89E190E07D
:100730000E940A036AEB72E0CE0107960E943D0B0D
:1007400080913B0390913C030D970CF453C01092A1
:100750003C0310923B034EC0E12CF12CE016F10655
:100760004CF4C7010E949B09833261F02FEFE21A1B
:10077000F20AF4CFE12CF12C05C0C8010E949B09BC
:10078000813231F00150110917FFF7CF00E010E07E
:10079000A12CB12C0E151F052CF2C7010E949B093C
:1007A000982F9D7F913219F08C3709F0BEC1C70197
:1007B0000E949B098C37D1F489819A81009719F0A6
:1007C0000E94B40D03C060E070E0CB014501EFEF83
:1007D0008E1A9E0AF501EE0FFF1FE456FB4F718340
:1007E0006083CE0101960E94190B5401FFEFEF1AAE
:1007F000FF0AD0CF00913B0310913C030530110557
:100800002CF4580127E0A20EB11C03C07BE0A72EF8
:10081000B12C4801880C991CE12CF12C66E0562E75
:100820000A151B050CF055C0F701E80DF91DEA5F2C
:10083000FD4F80819181FC01EE0FFF1FE456FB4FBD
:10084000608071801A8219821C821B821E821D8226
:10085000589EB001599E700D11246B547B4FCE01F0
:1008600001960E94260BB301CE0101960E94660AF2
:10087000811104C0CE0101960E94E60ABE016F5F9D
:100880007F4FCE0107960E94260B89819A810E9494
:10089000C20E4B855C854115510521F16F8178852C
:1008A0008DE393E00E94AB086FEF8DE393E00E942D
:1008B00056026FEF8DE393E00E9456026FEF8DE3D7
:1008C00093E00E9456020F5F1F4F82E0E80EF11C7A
:1008D000A7CF80913B0390913C03079690933C03F4
:1008E00080933B038F8198850E94C20E89E190E03E
:1008F0000E940A033CE1E32E32E0F32EF7018191DE
:1009000091917F018F3FFFEF9F0709F4E9C0F60146
:1009100000811181880F991FFC01E657FD4F20814E
:1009200031812430310509F0CDC00F3F110519F098
:1009300014F00FEF10E017FF02C000E010E0FC0120
:10094000E256FD4FA080B18061E08A2D0E94E0094F
:100950000115110509F4B1C00F3F110509F4AFC02D
:10096000F501FF27E252FD4FE4914E2F50E0FA01CE
:100970003197E231F10508F09DC08827EE58FF4F0E
:100980008F4F0C94250E84B5806884BD07BDA8C028
:1009900084B5806284BD08BDA3C08091800080685A
:1009A00080938000109389000093880099C0809103
:1009B000800080628093800010938B0000938A00F7
:1009C0008FC08091800088608093800010938D009C
:1009D00000938C0085C08091B00080688093B00047
:1009E0000093B3007DC08091B00080628093B0001E
:1009F0000093B40075C0809190008068809390004F
:100A000010939900009398006BC0809190008062D1
:100A10008093900010939B0000939A0061C0809196
:100A2000900088608093900010939D0000939C003C
:100A300057C08091A00080688093A0008091A000A2
:100A40008F7B8093A0001093A9000093A80048C05A
:100A50008091A00080628093A0001093AB0000936F
:100A6000AA003EC08091A00088608093A0001093EF
:100A7000AD000093AC0034C0809120018068809369
:100A8000200110932901009328012AC080912001A0
:100A900080628093200110932B0100932A0120C0D3
:100AA0008091200188608093200110932D01009394
:100AB0002C0116C00038110514F460E001C061E09B
:100AC0008A2D0CC02330310559F461E0101611064F
:100AD0000CF060E0FC01E256FD4F80810E94B009FD
:100AE000F2E0CF0ED11C24E3E21622E0F20609F078
:100AF00005CF89E190E00E940A030E94F4022C963F
:100B00000FB6F894DEBF0FBECDBFDF91CF911F911E
:100B10000F91FF90EF90DF90CF90BF90AF909F909C
:100B20008F907F906F905F900895682FCE0101960F
:100B30000E94B50A3CCE8091960490919704892B2F
:100B400019F180919804909199040197E9F08091AE
:100B5000860490918704892BB9F080919404909138
:100B60009504892B89F489E090E00E94FF08892B85
:100B700059F483E090E09093890480938804109264
:100B80008B0410928A0408950895809196049091A0
:100B90009704892B19F180919804909199040197F9
:100BA000E9F08091860490918704892BB9F08091B7
:100BB000940490919504892B89F488E090E00E9438
:100BC000FF08892B59F482E090E090938904809388
:100BD000880410928B0410928A04089508958091DD
:100BE000960490919704892B19F180919804909123
:100BF00099040197E9F08091860490918704892BEC
:100C0000B9F08091940490919504892B89F487E040
:100C100090E00E94FF08892B59F481E090E09093C6
:100C200089048093880410928B0410928A0408959A
:100C300008958091960490919704892B19F18091E1
:100C40009804909199040197E9F08091860490911D
:100C50008704892BB9F08091940490919504892B95
:100C600089F486E090E00E94FF08892B59F41092E5
:100C700089041092880481E090E090938B04809323
:100C80008A04089508958091960490919704892B81
:100C900019F180919804909199040197E9F080915D
:100CA000860490918704892BB9F0809194049091E7
:100CB0009504892B89F485E090E00E94FF08892B38
:100CC00059F4109289041092880482E090E0909385
:100CD0008B0480938A0408950895809196049091DE
:100CE0009704892B19F180919804909199040197A8
:100CF000E9F08091860490918704892BB9F0809166
:100D0000940490919504892B89F484E090E00E94EA
:100D1000FF08892B59F4109289041092880483E00B
:100D200090E090938B0480938A04089508958091B5
:100D3000960490919704892B89F083E090E00E94BB
:100D4000FF08892B39F481E090E09093930480931D
:100D50009204089510929304109292040895809141
:100D6000960490919704892BC9F0809198049091F2
:100D70009904019799F08091940490919504892B9E
:100D800069F482E090E00E94FF08892B39F48FEF2C
:100D90009FEF90938704809386040895089580912F
:100DA000960490919704892BF1F08091980490918A
:100DB00099040197C1F08091940490919504892B36
:100DC00091F481E090E00E94FF08892B39F481E0E2
:100DD00090E090938704809386040895109287048E
:100DE0001092860408950895109289041092880440
:100DF00010928B0410928A0480E090E00E94FF0819
:100E0000892B39F481E090E09093970480939604C5
:100E10000895109297041092960408951F920F92CD
:100E20000FB60F9211240BB60F922F933F934F934F
:100E30005F936F937F938F939F93AF93BF93EF9342
:100E4000FF938DE393E00E943502FF91EF91BF91F4
:100E5000AF919F918F917F916F915F914F913F9152
:100E60002F910F900BBE0F900FBE0F901F901895F3
:100E70001F920F920FB60F9211240BB60F922F9361
:100E80003F934F935F936F937F938F939F93AF9312
:100E9000BF93EF93FF938DE393E00E94C701FF910F
:100EA000EF91BF91AF919F918F917F916F915F91E2
:100EB0004F913F912F910F900BBE0F900FBE0F904F
:100EC0001F9018951F920F920FB60F9211240BB618
:100ED0000F922F933F934F935F936F937F938F93D3
:100EE0009F93AF93BF93EF93FF938AED93E00E949C
:100EF0003502FF91EF91BF91AF919F918F917F91BB
:100F00006F915F914F913F912F910F900BBE0F907A
:100F10000FBE0F901F9018951F920F920FB60F9251
:100F200011240BB60F922F933F934F935F936F93C0
:100F30007F938F939F93AF93BF93EF93FF938AED2C
:100F400093E00E94C701FF91EF91BF91AF919F91F4
:100F50008F917F916F915F914F913F912F910F9062
:100F60000BBE0F900FBE0F901F9018951F920F92FF
:100F70000FB60F9211240BB60F922F933F934F93FE
:100F80005F936F937F938F939F93AF93BF93EF93F1
:100F9000FF9380913303909134038093B20080914A
:100FA0002F0390913003A0913103B0913203019649
:100FB000A11DB11D80932F0390933003A0933103A3
:100FC000B093320380912F0390913003A0913103AD
:100FD000B091320340913703509138036091390347
:100FE00070913A0384179507A607B70710F180910F
:100FF0002E0381111EC081E080932E0380912F0368
:1010000090913003A0913103B0913203841B950B72
:10101000A60BB70B80932F0390933003A09331035B
:10102000B0933203E0913503F09136031995109295
:101030002E03FF91EF91BF91AF919F918F917F917F
:101040006F915F914F913F912F910F900BBE0F9039
:101050000FBE0F901F90189590E0FC013197E23180
:10106000F10508F04EC08827EC57FF4F8F4F0C94C6
:10107000250E809180008F7703C0809180008F7D46
:1010800080938000089580918000877FF9CF84B598
:101090008F7702C084B58F7D84BD08958091B000A4
:1010A0008F7703C08091B0008F7D8093B00008954A
:1010B000809190008F7707C0809190008F7D03C052
:1010C00080919000877F8093900008958091A00088
:1010D0008F7707C08091A0008F7D03C08091A00012
:1010E000877F8093A0000895809120018F7707C0AB
:1010F000809120018F7D03C080912001877F8093A4
:1011000020010895CF93DF93282F30E0F901E252B8
:10111000FD4F8491F901E856FD4FD491F901EE5A43
:10112000FD4FC491CC2391F081110E942C08EC2F2B
:10113000F0E0EE0FFF1FE85CFD4FA591B491EC913C
:10114000ED2381E090E021F480E002C080E090E0B7
:10115000DF91CF910895CF92DF92EF92FF920F939C
:101160001F93CF93DF936C017A018B01C0E0D0E035
:10117000CE15DF0589F0D8016D918D01D601ED9175
:10118000FC910190F081E02DC6011995892B11F495
:101190007E0102C02196ECCFC701DF91CF911F9154
:1011A0000F91FF90EF90DF90CF9008950E94431031
:1011B0000F931F93CF93DF93EC0188819981009760
:1011C00029F02A813B812617370788F48B016F5F4E
:1011D0007F4F0E945A0F009761F0998388831B8389
:1011E0000A832C813D81232B11F4FC01108281E0C4
:1011F00001C080E0DF91CF911F910F910895CF93AF
:10120000DF93EC01CC0FDD1FFE01E657FD4F80811F
:10121000918181309105C1F5FE01E256FD4F80813B
:101220000E948208892BD1F5FE01EC5EFA4F808185
:101230009181009761F4FE01E050FB4F1182108212
:10124000CC5EDA4F81E090E09983888303C00197F8
:1012500019F081E090E045C0FE01E050FB4F808135
:101260009181019691838083883E934094F3FE019F
:10127000E050FB4F11821082CC5EDA4F82E090E0AA
:101280009983888380E0E6CF892B19F7FE01E25627
:10129000FD4F80810E948208892B29F0CC5EDA4FB5
:1012A00019821882D6CFFE01EC5EFA4F208131817F
:1012B0002115310509F4BFCF2130310561F4FE015C
:1012C000E050FB4F80819181019691838083803231
:1012D00093406CF6BECF81E090E02230310509F4F6
:1012E00080E0DF91CF910895FC01A089B18982E06F
:1012F0008C93A485B5851C92A685B78580E18C93D7
:10130000108EA489B58986E08C93A289B3898C91CB
:1013100080618C93A289B3898C9188608C93A28917
:10132000B3898C9180688C930288F389E02D808149
:101330008F7D8083089520917C0430917D048217F5
:10134000930760F4209178043091790421153105D8
:1013500029F0F901E80FF91F8081089580E00895D0
:101360001F93CF93DF93282F30E0F901E252FD4F16
:101370008491F901E856FD4FD491F901EE5AFD4FE1
:10138000C491CC23C9F0162F81110E942C08EC2F98
:10139000F0E0EE0FFF1FE25EFD4FA591B4918FB715
:1013A000F894111105C09C91ED2FE095E92302C03E
:1013B000EC91ED2BEC938FBFDF91CF911F910895AE
:1013C000CF93DF9390E0FC01E856FD4F2491FC01A0
:1013D000EE5AFD4F8491882361F190E0880F991FA8
:1013E000FC01EC5FFD4FC591D491FC01E25EFD4F25
:1013F000A591B491611109C09FB7F8948881209597
:1014000082238883EC912E230BC0623061F49FB756
:10141000F8943881822F809583238883EC912E2B3A
:101420002C939FBF06C08FB7F894E8812E2B28839A
:101430008FBFDF91CF9108951F920F920FB60F9239
:1014400011242F933F938F939F93AF93BF938091DA
:10145000FC049091FD04A091FE04B091FF04309132
:10146000FB0423E0230F2D3720F40196A11DB11DAD
:1014700005C026E8230F0296A11DB11D2093FB0491
:101480008093FC049093FD04A093FE04B093FF04AA
:101490008091F7049091F804A091F904B091FA04B6
:1014A0000196A11DB11D8093F7049093F804A093B9
:1014B000F904B093FA04BF91AF919F918F913F913E
:1014C0002F910F900FBE0F901F901895CF92DF9223
:1014D000EF92FF920F931F93CF93DF93CDB7DEB7B9
:1014E00028970FB6F894DEBF0FBECDBF8C01CB019D
:1014F0004AE09E012F5F3F4F6901B9010E94DB0D59
:10150000F60101900020E9F73197EC19FD09D801A7
:101510001496ED90FC9015973097B9F0EE0EFF1EE3
:10152000B701C8010E94D808882381F0F801208102
:10153000318184819581B601820F931F0E945110E1
:10154000D8011596FC92EE92149781E028960FB67A
:10155000F894DEBF0FBECDBFDF91CF911F910F91E9
:10156000FF90EF90DF90CF900895EF92FF920F934E
:101570001F93CF93DF931F921F92CDB7DEB78C01DD
:1015800069831A82FC01E480F580FFEFEF1AFF0AFD
:10159000B7010E94D808882381F0F80120813181A9
:1015A00084819581BE016F5F7F4F820F931F0E94E0
:1015B0005110F801F582E48281E00F900F90DF91E5
:1015C000CF911F910F91FF90EF900895CF93DF93EC
:1015D000EC0188819981009711F00E94C20E198256
:1015E00018821D821C821B821A82DF91CF9108957E
:1015F000EF92FF920F931F93CF93DF93EC017B0148
:101600008A01BA010E94D808811104C0CE010E944B
:10161000E60A07C01D830C83B701888199810E9467
:101620005110CE01DF91CF911F910F91FF90EF905C
:101630000895CF93DF93EC0140E050E06AEB72E055
:101640000E94F80ACE01DF91CF910895CF93DF93E6
:10165000EC01FB018617970761F0608171816115CC
:10166000710529F0448155810E94F80A02C00E9448
:10167000E60ACE01DF91CF910895FC01118210821C
:1016800013821282158214826115710551F0FB01DB
:1016900001900020E9F73197AF01461B570B0C94DE
:1016A000F80A0895789484B5826084BD84B5816019
:1016B00084BD85B5826085BD85B5816085BD80911D
:1016C0006E00816080936E00109281008091810095
:1016D000826080938100809181008160809381008D
:1016E000809180008160809380008091B10084604F
:1016F0008093B1008091B00081608093B0008091B0
:10170000910082608093910080919100816080932C
:101710009100809190008160809390008091A10061
:1017200082608093A1008091A10081608093A100DC
:101730008091A00081608093A0008091210182604F
:10174000809321018091210181608093210180910A
:10175000200181608093200180917A0084608093D1
:101760007A0080917A00826080937A0080917A007A
:10177000816080937A0080917A00806880937A00FB
:101780001092C1008AED93E00E9474098DE393E00A
:101790000E94740910923C0310923B038CE291E08A
:1017A000A0E0B0E08093370390933803A09339030F
:1017B000B0933A0389E193E0909336038093350325
:1017C000809170008E7F809370008091B0008C7F3C
:1017D0008093B0008091B100877F8093B1008091A9
:1017E000B6008F7D8093B600809170008D7F8093CE
:1017F00070008091B10084608093B1008091B1004D
:101800008C7F8093B10086E090E0909334038093C6
:1018100033030E94F40218E1ECE9F4E0A4E8B4E038
:10182000812F01900D928A95E1F7C4E4D2E0E9910D
:10183000F991199582E0C835D807C9F78091B204AB
:101840009091B3048130910559F520919C04309119
:101850009D0430938504209384042091A404309146
:10186000A50430938D0420938C042091A60430911C
:10187000A70430938F0420938E042091A804309104
:10188000A904309391042093900490939B04809337
:101890009A048091940490919504892BC1F41DC001
:1018A000892BB9F7E4E3F2E081919191880F991FB8
:1018B000DC01AC57BB4FEC01C456DB4F88819981EA
:1018C0008D939C9382E0E434F80771F7E2CF809126
:1018D000AC049091AD04009761F4E4E8F4E0ACE965
:1018E000B4E0812F01900D928A95E1F70E94BF022A
:1018F00093CF9093950480939404EFCFCF93DF938D
:1019000080917E0490917F040E94C20E80917804A1
:10191000909179040E94C20EC7EFD4E02697888187
:1019200099810E94C20E84E0C53BD807B9F7DF91C8
:10193000CF9108950F931F93CF93DF93109240039D
:1019400010923F0348EE53E060E070E040934103A3
:101950005093420360934303709344038CE592E0F9
:1019600090933E0380933D032DEC30E030934A0387
:10197000209349032CEC30E030934C0320934B032D
:1019800028EC30E030934E0320934D0329EC30E0F7
:101990003093500320934F032AEC30E030935203EE
:1019A000209351032EEC30E03093540320935303E3
:1019B0001092560310925703109258031092590335
:1019C0001092DD031092DC034093DE035093DF039B
:1019D0006093E0037093E1039093DB038093DA0359
:1019E00085EC90E09093E7038093E60384EC90E02D
:1019F0009093E9038093E80380EC90E09093EB03ED
:101A00008093EA0381EC90E09093ED038093EC03E4
:101A100082EC90E09093EF038093EE0386EC90E0ED
:101A20009093F1038093F0031092F3031092F40368
:101A30001092F5031092F60362EB72E085EB94E0EE
:101A40000E943D0B6BEB72E08BEB94E00E943D0B30
:101A500069EC72E081EC94E00E943D0B62ED72E073
:101A600087EC94E00E943D0B6DED72E08DEC94E00C
:101A70000E943D0B66EE72E083ED94E00E943D0B08
:101A800062EF72E089ED94E00E943D0B6EEF72E030
:101A90008FED94E00E943D0B68E073E085EE94E0EA
:101AA0000E943D0B68E173E08BEE94E00E943D0BD9
:101AB00064E273E081EF94E00E943D0BCAE8D2E05B
:101AC0000EE912E0E991F991D8018C910E5F1F4F58
:101AD000EE0FFF1FEE57FD4F60810E94E009B2E05C
:101AE000CE39DB0779F7EAE6F2E0CCE9D4E0DF01B2
:101AF0008D919D918993999382E0A238B807C1F79F
:101B0000A4E8B4E0819191918D939D9382E0E238B5
:101B1000F807C1F76AEB72E088E794E00E943D0B9A
:101B20006AEB72E08EE794E00E943D0B8AED93E051
:101B30000E9474098DE393E00E94740988E794E0A1
:101B40000E94190B8EE794E00E94190B88E1E4E8EB
:101B5000F4E0ACE9B4E001900D928A95E1F7DF91F1
:101B6000CF911F910F9108951F93FC01992788270A
:101B7000BC01E89411911032E9F3193010F01E30D5
:101B8000C8F31B3251F01D3249F4689406C00E941C
:101B9000E60D610F711D811D911D119110531A30B9
:101BA000B0F33EF490958095709561957F4F8F4F7F
:101BB0009F4F1F910895BB274A3031F4992322F497
:101BC000BDE2909581959F4F0C94FC0D592F482FA5
:101BD000372F262F660F771F881F991F660F771FD5
:101BE000881F991F620F731F841F951F660F771F31
:101BF000881F991F0895BB27FB015527AA27880F27
:101C0000991FAA1FA41710F0A41B83955051B9F770
:101C1000A05DAA3308F0A95DA193009779F7B111EF
:101C2000B1931192CB010C94150EDC01FC01672FCE
:101C300071917723E1F7329704C07C916D937083A3
:101C40006291AE17BF07C8F30895EE0FFF1F881FFC
:101C50008BBF0790F691E02D1994CF93DF938230DC
:101C6000910510F482E090E0E0912A05F0912B05B7
:101C700020E030E0C0E0D0E0309711F140815181A8
:101C800048175907C0F04817590761F482819381BA
:101C9000209719F09B838A832BC090932B05809308
:101CA0002A0526C02115310519F04217530718F4EB
:101CB0009A01BE01DF01EF010280F381E02DDCCF4C
:101CC0002115310509F1281B390B2430310590F419
:101CD00012968D919C9113976115710521F0FB016E
:101CE0009383828304C090932B0580932A05FD0182
:101CF000329644C0FD01E20FF31F8193919322506D
:101D000031092D933C933AC0209128053091290543
:101D1000232B41F4209102023091030230932905D4
:101D200020932805209100023091010221153105F0
:101D300041F42DB73EB74091040250910502241B97
:101D4000350BE0912805F0912905E217F307A0F47F
:101D50002E1B3F0B2817390778F0AC014E5F5F4F01
:101D60002417350748F04E0F5F1F50932905409305
:101D700028058193919302C0E0E0F0E0CF01DF916C
:101D8000CF9108950F931F93CF93DF93009709F49A
:101D90008CC0FC0132971382128200912A051091A7
:101DA0002B050115110581F420813181820F931FCC
:101DB00020912805309129052817390779F5F093E6
:101DC0002905E093280571C0D80140E050E0AE1726
:101DD000BF0750F412962D913C911397AD01211538
:101DE000310509F1D901F3CF9D01DA013383228353
:101DF00060817181860F971F8217930769F4EC0148
:101E000028813981260F371F2E5F3F4F3183208372
:101E10008A819B8193838283452B29F4F0932B0540
:101E2000E0932A0542C01396FC93EE931297ED01BE
:101E3000499159919E01240F351FE217F30771F460
:101E400080819181840F951F029611969C938E93A9
:101E50008281938113969C938E931297E0E0F0E039
:101E6000D80112968D919C911397009719F0F80163
:101E70008C01F6CF8D919C9198012E5F3F4F820F80
:101E8000931F20912805309129052817390769F4F7
:101E9000309729F410922B0510922A0502C0138264
:101EA00012821093290500932805DF91CF911F918D
:101EB0000F9108956F927F928F929F92AF92BF92EF
:101EC000CF92DF92EF92FF920F931F93CF93DF9306
:101ED000EC01009789F4CB01DF91CF911F910F9115
:101EE000FF90EF90DF90CF90BF90AF909F908F903A
:101EF0007F906F900C942D0EFC01E60FF71F9C0154
:101F000022503109E217F30708F4ACC0D9010D9152
:101F10001C91119706171707B0F00530110508F44A
:101F20009FC0C80104978617970708F499C002500C
:101F30001109061B170B019311936D937C93CF012D
:101F40000E94C20E8DC05B01A01AB10A4C01800E26
:101F5000911EA0912A05B0912B0540E050E0E12CA4
:101F6000F12C109709F44AC0A815B905D1F56D9068
:101F70007C901197630182E0C80ED11CCA14DB0467
:101F800080F1A3014A195B096A0182E0C80ED11CE5
:101F90001296BC9012971396AC91B5E0CB16D10473
:101FA00040F0B282A38351834083D9016D937C9327
:101FB0000AC00E5F1F4FC301800F911FF90191836B
:101FC0008083EB2DFA2FE114F10431F0D701139641
:101FD000FC93EE93129744C0F0932B05E0932A05EF
:101FE0003FC08D919C9111974817590708F4AC0197
:101FF0007D0112960D90BC91A02DB3CF8091280544
:102000009091290588159905E1F446175707C8F4FA
:102010008091000290910102009741F48DB79EB724
:102020004091040250910502841B950BE817F907B3
:10203000C8F4F0932905E0932805F90171836083C2
:102040000FC0CB010E942D0E7C01009759F0A80112
:10205000BE010E944810CE010E94C20EC70104C0FA
:10206000CE0102C080E090E0DF91CF911F910F91EF
:10207000FF90EF90DF90CF90BF90AF909F908F90A8
:102080007F906F90089581E090E0F8940C94581040
:10209000FB01DC0102C001900D9241505040D8F785
:1020A0000895FB01DC0101900D920020E1F70895F5
:1020B00011E0C3E9D1E000E006C0802FFE010E94DC
:1020C000250E2196011DC439D10780E00807A9F724
:0420D000F894FFCFB2
:1020D40000002C0580000000010002000300040041
:1020E400050006000700080009000A00FFFFFFFFC3
:1020F400FFFFFFFFFFFFFFFFFFFFFFFFFFFFFFFFEC
:10210400FFFF0000020003000100000004000500BE
:1021140006000B00F406CF06AF0697066D064306CD
:102124001906EF05C5059B05000000005602AB0823
:10213400E4019D021502F301070200000000000003
:102144000000000000001E0000000000000000006D
:102154000100020002000200010000000000000073
:1021640000000000000000000000000000001F004C
:1021740020002100250019001A001B001C001D006E
:102184001E007370642E76616C3D00726573657217
:102194007665722E76616C3D007077722E76616C76
:1021A4003D006272616B652E76616C3D00736967F8
:1021B4002E76616C3D007369676469732E76616C79
:1021C4003D007370646C696D2E76616C3D00686FC0
:1021D400726E2E76616C3D007370656564636F6E1C
:1021E40073742E76616C3D006D73746B65792E7615
:0E21F400616C3D00656D672E76616C3D0000EC
:00000001FF
