:100000000C9494010C94C5010C94C5010C94C50189
:100010000C94C5010C94C5010C94C5010C94C50148
:100020000C94C5010C94C5010C94C5010C94C50138
:100030000C94C5010C94C5010C94C5010C94C9071E
:100040000C94C5010C94C5010C94C5010C94C50118
:100050000C94C5010C94C5010C94C5010C942F0A95
:100060000C94C5010C949F070C9475070C94C50162
:100070000C94C5010C94C5010C94C5010C94C501E8
:100080000C94C5010C94C5010C94C5010C94C501D8
:100090000C944B070C9421070C94C5010C94C501DA
:1000A0000C94C5010C94C5010C94C5010C94C501B8
:1000B0000C94C5010C94C5010C94C5010C94C501A8
:1000C0000C94C5010C94C5010C94C5010C94C50198
:1000D0000C94C5010C94C5010C94C5010C94C50188
:1000E0000C94C501C304C804CD04D704E1045A0527
:1000F000EB04F304FB0405050F051905280532057B
:100100005A053C05460550055A085D084C0850083C
:1001100056089408610865086B086F087308790829
:100120007D088108940887088B088F080C944C0878
:100130000C9415020C945A080C94AF060C943C05D0
:100140000C9419050C94FF050C948B080C94C706AD
:100150000C94D3050C94E4010C94C3040C94E706AE
:100160000C942B060C9450050C945D080C947D089F
:100170000C940C070C94910C0C9407020C949408AA
:100180000C9428050C9473080C94CD040C94570619
:100190000C9456080C946F080C9483060C94790800
:1001A0000C9487080C949D020C948F080C94F30413
:1001B0000C94AD0C0C9465080C94F3010C9446055A
:1001C0000C9432050C9419030C9405050C949B05B2
:1001D0000C945A050C9481080C9461080C94E10469
:1001E0000C94FB040C94D7040C9456020C94BE0897
:1001F0000C94C8040C946B080C94EB040C940F053D
:100200000C94500800002100240027002A002D0033
:100210003000330001010000040107010A01000061
:100220002200250028002B002E003100340002019E
:100230000000050108010B0100002000230026003A
:1002400029002C002F0032000001000003010601EC
:10025000090105050505070508080808020202024C
:100260000A0A080804040404010101010101010152
:100270000303030303030303040707070C0C0C0C1D
:100280000C0C0C0C02020202060606060606060606
:100290000B0B0B0B0B0B0B0B010210202008081093
:1002A00020401020408002010201080402010102E6
:1002B00004081020408080402010080402018004BF
:1002C000020180402010080402010804020101021A
:1002D0000408102040800102040810204080000023
:1002E0000A0B02090C0D0E080703040100000000B0
:1002F00000000000000000000000000000000000FE
:1003000000000000000000000000121110000000BA
:1003100000000000000000000000000000000000DD
:1003200000000000AD0C910C11241FBECFEFD1E2F4
:10033000DEBFCDBF00E00CBF25E0AEE2B3E001C000
:100340001D92AC32B207E1F713E0A0E0B2E0EAEFB1
:10035000F0E200E00BBF02C007900D92AE32B10791
:10036000D9F711E0C3E9D1E000E006C02197010907
:10037000802FFE010E94380EC239D10780E00807A5
:10038000A9F70E94650B0C946B100C940000FC0103
:10039000A089B1898C91A689B78982FD0FC09C91F3
:1003A000818D8F5F8F73228D821749F0218DDF0140
:1003B000A20FB11D5D969C93818F08958C91089535
:1003C000089580E090E00895FC01538D448D252F21
:1003D00030E0842F90E0821B930B541710F0CF96DF
:1003E000089501970895FC01918D828D981761F011
:1003F000828DDF01A80FB11D5D968C91928D9F5F5C
:100400009F73928F90E008958FEF9FEF0895FC0106
:10041000918D828D981731F0828DE80FF11D858DB9
:1004200090E008958FEF9FEF0895FC01918D228D4C
:10043000892F90E0805C9F4F821B91098F739927D1
:1004400008958DE393E00E94150221E0892B09F4C1
:1004500020E0822F08958AED93E00E94150221E0AA
:10046000892B09F420E0822F0895FC01848DDF019F
:10047000A80FB11DA35ABF4F2C91848D90E0019617
:100480008F739927848FA689B7892C93A089B18906
:100490008C9180648C93938D848D981306C0028810
:1004A000F389E02D80818F7D80830895EF92FF9204
:1004B0000F931F93CF93DF93EC0181E0888F9B8D87
:1004C0008C8D981305C0E889F989808185FD24C049
:1004D000F62E0B8D10E00F5F1F4F0F731127E02ECC
:1004E0008C8DE8120CC00FB607FCFACFE889F989A9
:1004F000808185FFF5CFCE010E943502F1CF8B8D33
:10050000FE01E80FF11DE35AFF4FF0820B8FEA89DD
:10051000FB898081806207C0EE89FF896083E8895A
:10052000F98980818064808381E090E0DF91CF91C0
:100530001F910F91FF90EF900895CF93DF93EC01FF
:10054000888D8823C9F0EA89FB89808185FD05C0F3
:10055000A889B9898C9186FD0FC00FB607FCF5CF2D
:10056000808185FFF2CFA889B9898C9185FFEDCF75
:10057000CE010E943502E7CFDF91CF91089580E050
:1005800090E0892B21F00E942B02811121C080E094
:1005900090E0892B21F00E94210281111CC080E093
:1005A00090E0892B41F080E090E0892B21F00E94BF
:1005B0000000811113C080E090E0892BA1F080E061
:1005C00090E0892B81F00E94000081110AC00895FB
:1005D0000E940000DCCF0E940000E1CF0E940000DA
:1005E000EACF0C940000089510922F03109230036C
:1005F000109231031092320310922E038091330334
:10060000909134038093B200E0E7F0E08081816054
:100610008083089520E030E0281739074CF441EC3E
:1006200057E0000041505109E1F72F5F3F4FF4CFF1
:1006300008955F926F927F928F929F92AF92BF9236
:10064000CF92DF92EF92FF920F931F93CF93DF939E
:10065000CDB7DEB72C970FB6F894DEBF0FBECDBF77
:10066000809170008E7F809370008EE794E00E94EE
:100670002C0B63E28EE794E00E94C80ABCE9CB2E03
:10068000B4E0DB2E8601F801619171918F018EE754
:1006900094E00E94790A6CE78EE794E00E94C80A11
:1006A000F4E0043B1F0779F761E28EE794E00E94D3
:1006B000C80A40918204509183044115510541F0CC
:1006C00060917E0470917F048AED93E00E94BE08E1
:1006D00089E190E00E940A036BEB72E0CE01019683
:1006E0000E94500B88E794E00E942C0B8AED93E067
:1006F0000E9415021816190674F48AED93E00E9400
:10070000F301682F88E794E00E94C80A82E090E035
:100710000E940A03EBCF00917C0410917D04011527
:100720001105D1F489819A810E94D50E89E190E06A
:100730000E940A036BEB72E0CE0107960E94500BF9
:1007400080913B0390913C030D970CF453C01092A1
:100750003C0310923B034EC0E12CF12CE016F10655
:100760004CF4C7010E94AE09833261F02FEFE21A08
:10077000F20AF4CFE12CF12C05C0C8010E94AE09A9
:10078000813231F00150110917FFF7CF00E010E07E
:10079000A12CB12C0E151F052CF2C7010E94AE0929
:1007A000982F9D7F913219F08C3709F0BEC1C70197
:1007B0000E94AE098C37D1F489819A81009719F093
:1007C0000E94C70D03C060E070E0CB014501EFEF70
:1007D0008E1A9E0AF501EE0FFF1FE456FB4F718340
:1007E0006083CE0101960E942C0B5401FFEFEF1A9B
:1007F000FF0AD0CF00913B0310913C030530110557
:100800002CF4580127E0A20EB11C03C07BE0A72EF8
:10081000B12C4801880C991CE12CF12C66E0562E75
:100820000A151B050CF055C0F701E80DF91DE95F2D
:10083000FD4F80819181FC01EE0FFF1FE456FB4FBD
:10084000608071801A8219821C821B821E821D8226
:10085000589EB001599E700D11246B547B4FCE01F0
:1008600001960E94390BB301CE0101960E94790ACC
:10087000811104C0CE0101960E94F90ABE016F5F8A
:100880007F4FCE0107960E94390B89819A810E9481
:10089000D50E4B855C854115510521F16F81788519
:1008A0008DE393E00E94BE086FEF8DE393E00E941A
:1008B00056026FEF8DE393E00E9456026FEF8DE3D7
:1008C00093E00E9456020F5F1F4F82E0E80EF11C7A
:1008D000A7CF80913B0390913C03079690933C03F4
:1008E00080933B038F8198850E94D50E89E190E02B
:1008F0000E940A033DE1E32E32E0F32EF7018191DD
:1009000091917F018F3FFFEF9F0709F4E9C0F60146
:1009100000811181880F991FFC01E557FD4F20814F
:1009200031812430310509F0CDC00F3F110519F098
:1009300014F00FEF10E017FF02C000E010E0FC0120
:10094000E156FD4FA080B18061E08A2D0E94F3093D
:100950000115110509F4B1C00F3F110509F4AFC02D
:10096000F501FF27E252FD4FE4914E2F50E0FA01CE
:100970003197E231F10508F09DC08827EE58FF4F0E
:100980008F4F0C94380E84B5806884BD07BDA8C015
:1009900084B5806284BD08BDA3C08091800080685A
:1009A00080938000109389000093880099C0809103
:1009B000800080628093800010938B0000938A00F7
:1009C0008FC08091800088608093800010938D009C
:1009D00000938C0085C08091B00080688093B00047
:1009E0000093B3007DC08091B00080628093B0001E
:1009F0000093B40075C0809190008068809390004F
:100A000010939900009398006BC0809190008062D1
:100A10008093900010939B0000939A0061C0809196
:100A2000900088608093900010939D0000939C003C
:100A300057C08091A00080688093A0008091A000A2
:100A40008F7B8093A0001093A9000093A80048C05A
:100A50008091A00080628093A0001093AB0000936F
:100A6000AA003EC08091A00088608093A0001093EF
:100A7000AD000093AC0034C0809120018068809369
:100A8000200110932901009328012AC080912001A0
:100A900080628093200110932B0100932A0120C0D3
:100AA0008091200188608093200110932D01009394
:100AB0002C0116C00038110514F460E001C061E09B
:100AC0008A2D0CC02330310559F461E0101611064F
:100AD0000CF060E0FC01E156FD4F80810E94C309EB
:100AE000F2E0CF0ED11C25E3E21622E0F20609F077
:100AF00005CF89E190E00E940A030E94F4022C963F
:100B00000FB6F894DEBF0FBECDBFDF91CF911F911E
:100B10000F91FF90EF90DF90CF90BF90AF909F909C
:100B20008F907F906F905F900895682FCE0101960F
:100B30000E94C80A3CCE8091960490919704892B1C
:100B400089F18091980490919904019759F18091CD
:100B5000860490918704892B29F1809194049091C7
:100B60009504892BF9F489E090E00E941209892B01
:100B700061F41092000283E090E0909389048093E6
:100B8000880410928B0410928A04809100028823BA
:100B900049F0109289041092880410928B041092EC
:100BA0008A04089508958091960490919704892B62
:100BB00029F180919804909199040197F9F080911E
:100BC000860490918704892BC9F0809194049091B8
:100BD0009504892B99F488E090E00E941209892BF2
:100BE00069F41092000282E090E09093890480936F
:100BF000880410928B0410928A04089508958091BD
:100C0000960490919704892B29F1809198049091F2
:100C100099040197F9F08091860490918704892BBB
:100C2000C9F08091940490919504892B99F487E000
:100C300090E00E941209892B69F41092000281E071
:100C400090E0909389048093880410928B04109212
:100C50008A04089508958091960490919704892BB1
:100C600029F180919804909199040197F9F080916D
:100C7000860490918704892BC9F080919404909107
:100C80009504892B99F486E090E00E941209892B43
:100C900069F410920002109289041092880482E094
:100CA00090E090938B0480938A0408950895809136
:100CB000960490919704892B29F180919804909142
:100CC00099040197F9F08091860490918704892B0B
:100CD000C9F08091940490919504892B99F485E052
:100CE00090E00E941209892B69F410920002109280
:100CF00089041092880484E090E090938B048093A0
:100D00008A04089508958091960490919704892B00
:100D100029F180919804909199040197F9F08091BC
:100D2000860490918704892BC9F080919404909156
:100D30009504892B99F484E090E00E941209892B94
:100D400069F410920002109289041092880486E0DF
:100D500090E090938B0480938A0408950895809185
:100D6000960490919704892B89F083E090E00E948B
:100D70001209892B39F481E090E0909393048093D9
:100D80009204089510929304109292040895809111
:100D9000960490919704892BC9F0809198049091C2
:100DA0009904019799F08091940490919504892B6E
:100DB00069F482E090E00E941209892B39F48FEFE8
:100DC0009FEF9093870480938604089508958091FF
:100DD000960490919704892BF1F08091980490915A
:100DE00099040197C1F08091940490919504892B06
:100DF00091F481E090E00E941209892B39F481E09E
:100E000090E090938704809386040895109287045D
:100E1000109286040895089581E08093000280E096
:100E200090E00E941209892B39F481E090E09093C0
:100E30009704809396040895109297041092960454
:100E400008951F920F920FB60F9211240BB60F92B6
:100E50002F933F934F935F936F937F938F939F93C2
:100E6000AF93BF93EF93FF938DE393E00E9435021E
:100E7000FF91EF91BF91AF919F918F917F916F9172
:100E80005F914F913F912F910F900BBE0F900FBE2E
:100E90000F901F9018951F920F920FB60F9211246A
:100EA0000BB60F922F933F934F935F936F937F9364
:100EB0008F939F93AF93BF93EF93FF938DE393E053
:100EC0000E94C701FF91EF91BF91AF919F918F91C8
:100ED0007F916F915F914F913F912F910F900BBE3A
:100EE0000F900FBE0F901F9018951F920F920FB684
:100EF0000F9211240BB60F922F933F934F935F9352
:100F00006F937F938F939F93AF93BF93EF93FF93D1
:100F10008AED93E00E943502FF91EF91BF91AF916E
:100F20009F918F917F916F915F914F913F912F9101
:100F30000F900BBE0F900FBE0F901F9018951F9231
:100F40000F920FB60F9211240BB60F922F933F936F
:100F50004F935F936F937F938F939F93AF93BF93C1
:100F6000EF93FF938AED93E00E94C701FF91EF9109
:100F7000BF91AF919F918F917F916F915F914F91B1
:100F80003F912F910F900BBE0F900FBE0F901F90AF
:100F900018951F920F920FB60F9211240BB60F9255
:100FA0002F933F934F935F936F937F938F939F9371
:100FB000AF93BF93EF93FF938091330390913403EA
:100FC0008093B20080912F0390913003A091310360
:100FD000B09132030196A11DB11D80932F03909310
:100FE0003003A0933103B093320380912F0390918B
:100FF0003003A0913103B0913203409137035091F7
:1010000038036091390370913A0384179507A60756
:10101000B70710F180912E0381111EC081E08093EB
:101020002E0380912F0390913003A0913103B09152
:101030003203841B950BA60BB70B80932F03909361
:101040003003A0933103B0933203E0913503F09164
:101050003603199510922E03FF91EF91BF91AF9136
:101060009F918F917F916F915F914F913F912F91C0
:101070000F900BBE0F900FBE0F901F90189590E031
:10108000FC013197E231F10508F04EC08827EC579A
:10109000FF4F8F4F0C94380E809180008F7703C0E4
:1010A000809180008F7D80938000089580918000E2
:1010B000877FF9CF84B58F7702C084B58F7D84BDDB
:1010C00008958091B0008F7703C08091B0008F7D2C
:1010D0008093B0000895809190008F7707C0809131
:1010E00090008F7D03C080919000877F8093900057
:1010F00008958091A0008F7707C08091A0008F7D18
:1011000003C08091A000877F8093A0000895809104
:1011100020018F7707C0809120018F7D03C08091CF
:101120002001877F809320010895CF93DF93282F9C
:1011300030E0F901E252FD4F8491F901E856FD4F8C
:10114000D491F901EE5AFD4FC491CC2391F0811155
:101150000E943F08EC2FF0E0EE0FFF1FE85CFD4F10
:10116000A591B491EC91ED2381E090E021F480E031
:1011700002C080E090E0DF91CF910895CF92DF929E
:10118000EF92FF920F931F93CF93DF936C017A013D
:101190008B01C0E0D0E0CE15DF0589F0D8016D915C
:1011A0008D01D601ED91FC910190F081E02DC601F9
:1011B0001995892B11F47E0102C02196ECCFC7014D
:1011C000DF91CF911F910F91FF90EF90DF90CF9023
:1011D00008950E9456100F931F93CF93DF93EC0155
:1011E00088819981009729F02A813B81261737074A
:1011F00088F48B016F5F7F4F0E946D0F009761F045
:10120000998388831B830A832C813D81232B11F4CE
:10121000FC01108281E001C080E0DF91CF911F913D
:101220000F910895CF93DF93EC01CC0FDD1FFE01EA
:10123000E557FD4F8081918181309105C1F5FE0117
:10124000E156FD4F80810E949508892BD1F5FE0162
:10125000EC5EFA4F80819181009761F4FE01E050CD
:10126000FB4F11821082CC5EDA4F81E090E09983CF
:10127000888303C0019719F081E090E045C0FE012A
:10128000E050FB4F80819181019691838083883E5D
:10129000934094F3FE01E050FB4F11821082CC5E2C
:1012A000DA4F82E090E09983888380E0E6CF892B53
:1012B00019F7FE01E156FD4F80810E949508892BA8
:1012C00029F0CC5EDA4F19821882D6CFFE01EC5E8F
:1012D000FA4F208131812115310509F4BFCF21302A
:1012E000310561F4FE01E050FB4F80819181019650
:1012F00091838083803293406CF6BECF81E090E092
:101300002230310509F480E0DF91CF910895FC018E
:10131000A089B18982E08C93A485B5851C92A685AD
:10132000B78580E18C93108EA489B58986E08C9373
:10133000A289B3898C9180618C93A289B3898C91A5
:1013400088608C93A289B3898C9180688C93028881
:10135000F389E02D80818F7D8083089520917C0426
:1013600030917D048217930760F4209178043091C6
:1013700079042115310529F0F901E80FF91F808161
:10138000089580E008951F93CF93DF93282F30E0D6
:10139000F901E252FD4F8491F901E856FD4FD491D5
:1013A000F901EE5AFD4FC491CC23C9F0162F8111DB
:1013B0000E943F08EC2FF0E0EE0FFF1FE25EFD4FB2
:1013C000A591B4918FB7F894111105C09C91ED2FA0
:1013D000E095E92302C0EC91ED2BEC938FBFDF91F8
:1013E000CF911F910895CF93DF9390E0FC01E856D1
:1013F000FD4F2491FC01EE5AFD4F8491882361F149
:1014000090E0880F991FFC01EC5FFD4FC591D491CE
:10141000FC01E25EFD4FA591B491611109C09FB737
:10142000F8948881209582238883EC912E230BC029
:10143000623061F49FB7F8943881822F80958323BE
:101440008883EC912E2B2C939FBF06C08FB7F89406
:10145000E8812E2B28838FBFDF91CF9108951F92B3
:101460000F920FB60F9211242F933F938F939F9358
:10147000AF93BF938091FC049091FD04A091FE0472
:10148000B091FF043091FB0423E0230F2D3720F4AB
:101490000196A11DB11D05C026E8230F0296A11DCE
:1014A000B11D2093FB048093FC049093FD04A09352
:1014B000FE04B093FF048091F7049091F804A0918A
:1014C000F904B091FA040196A11DB11D8093F704AF
:1014D0009093F804A093F904B093FA04BF91AF91EC
:1014E0009F918F913F912F910F900FBE0F901F9062
:1014F0001895CF92DF92EF92FF920F931F93CF93A5
:10150000DF93CDB7DEB728970FB6F894DEBF0FBED6
:10151000CDBF8C01CB014AE09E012F5F3F4F690197
:10152000B9010E94EE0DF60101900020E9F7319714
:10153000EC19FD09D8011496ED90FC9015973097A1
:10154000B9F0EE0EFF1EB701C8010E94EB08882318
:1015500081F0F8012081318184819581B601820F6B
:10156000931F0E946410D8011596FC92EE92149776
:1015700081E028960FB6F894DEBF0FBECDBFDF9195
:10158000CF911F910F91FF90EF90DF90CF90089532
:10159000EF92FF920F931F93CF93DF931F921F92AF
:1015A000CDB7DEB78C0169831A82FC01E480F58037
:1015B000FFEFEF1AFF0AB7010E94EB08882381F0C2
:1015C000F8012081318184819581BE016F5F7F4F59
:1015D000820F931F0E946410F801F582E48281E07B
:1015E0000F900F90DF91CF911F910F91FF90EF908F
:1015F0000895CF93DF93EC0188819981009711F0D2
:101600000E94D50E198218821D821C821B821A82AA
:10161000DF91CF910895EF92FF920F931F93CF9395
:10162000DF93EC017B018A01BA010E94EB08811172
:1016300004C0CE010E94F90A07C01D830C83B701C4
:10164000888199810E946410CE01DF91CF911F9112
:101650000F91FF90EF900895CF93DF93EC0140E05E
:1016600050E06BEB72E00E940B0BCE01DF91CF914B
:101670000895CF93DF93EC01FB018617970761F084
:10168000608171816115710529F0448155810E9445
:101690000B0B02C00E94F90ACE01DF91CF91089591
:1016A000FC0111821082138212821582148261154C
:1016B000710551F0FB0101900020E9F73197AF016E
:1016C000461B570B0C940B0B0895789484B58260DD
:1016D00084BD84B5816084BD85B5826085BD85B5D6
:1016E000816085BD80916E00816080936E00109254
:1016F00081008091810082608093810080918100CF
:10170000816080938100809180008160809380005F
:101710008091B10084608093B1008091B0008160BD
:101720008093B000809191008260809391008091BD
:1017300091008160809391008091900081608093FE
:1017400090008091A10082608093A1008091A1000F
:1017500081608093A1008091A00081608093A000AF
:10176000809121018260809321018091210181601B
:1017700080932101809120018160809320018091DC
:101780007A00846080937A0080917A0082608093EE
:101790007A0080917A00816080937A0080917A004B
:1017A000806880937A001092C1008AED93E00E94D5
:1017B00087098DE393E00E94870910923C03109201
:1017C0003B038CE291E0A0E0B0E08093370390937C
:1017D0003803A0933903B0933A0389E193E09093DF
:1017E000360380933503809170008E7F8093700064
:1017F0008091B0008C7F8093B0008091B100877F92
:101800008093B1008091B6008F7D8093B600809167
:1018100070008D7F809370008091B1008460809310
:10182000B1008091B1008C7F8093B10086E090E0A0
:1018300090933403809333030E94F40218E1ECE99F
:10184000F4E0A4E8B4E0812F01900D928A95E1F7CD
:10185000C5E4D2E0E991F991199582E0C935D8073C
:10186000C9F78091B2049091B3048130910559F584
:1018700020919C0430919D0430938504209384042E
:101880002091A4043091A50430938D0420938C04FE
:101890002091A6043091A70430938F0420938E04E6
:1018A0002091A8043091A9043093910420939004CE
:1018B00090939B0480939A04809194049091950452
:1018C000892BC1F41DC0892BB9F7E5E3F2E08191C2
:1018D0009191880F991FDC01AC57BB4FEC01C456A6
:1018E000DB4F888199818D939C9382E0E534F807E2
:1018F00071F7E2CF8091AC049091AD04009761F450
:10190000E4E8F4E0ACE9B4E0812F01900D928A950F
:10191000E1F70E94BF0293CF9093950480939404C3
:10192000EFCFCF93DF9380917E0490917F040E944C
:10193000D50E80917804909179040E94D50EC7EF5E
:10194000D4E02697888199810E94D50E84E0C53B1A
:10195000D807B9F7DF91CF9108950F931F93CF93D5
:10196000DF931092400310923F0348EE53E060E093
:1019700070E040934103509342036093430370939C
:1019800044038DE592E090933E0380933D032DEC5C
:1019900030E030934A03209349032CEC30E030933D
:1019A0004C0320934B0328EC30E030934E032093FC
:1019B0004D0329EC30E03093500320934F032AEC81
:1019C00030E030935203209351032EEC30E03093FB
:1019D000540320935303109256031092570310920E
:1019E0005803109259031092DD031092DC034093C8
:1019F000DE035093DF036093E0037093E103909361
:101A0000DB038093DA0385EC90E09093E703809307
:101A1000E60384EC90E09093E9038093E80380EC84
:101A200090E09093EB038093EA0381EC90E0909335
:101A3000ED038093EC0382EC90E09093EF038093AE
:101A4000EE0386EC90E09093F1038093F003109204
:101A5000F3031092F4031092F5031092F60363EB74
:101A600072E085EB94E00E94500B6CEB72E08BEB24
:101A700094E00E94500B6AEC72E081EC94E00E94CA
:101A8000500B63ED72E087EC94E00E94500B6EED1A
:101A900072E08DEC94E00E94500B67EE72E083EDF3
:101AA00094E00E94500B63EF72E089ED94E00E9495
:101AB000500B6FEF72E08FED94E00E94500B69E0E5
:101AC00073E085EE94E00E94500B69E173E08BEEC9
:101AD00094E00E94500B65E273E081EF94E00E9475
:101AE000500BCBE8D2E00FE912E0E991F991D8016F
:101AF0008C910E5F1F4FEE0FFF1FED57FD4F608162
:101B00000E94F309B2E0CF39DB0779F7EBE6F2E0A8
:101B1000CCE9D4E0DF018D919D918993999382E086
:101B2000A338B807C1F7A4E8B4E0819191918D93EF
:101B30009D9382E0E338F807C1F76BEB72E088E72A
:101B400094E00E94500B6BEB72E08EE794E00E94F1
:101B5000500B8AED93E00E9487098DE393E00E9489
:101B6000870988E794E00E942C0B8EE794E00E949E
:101B70002C0B88E1E4E8F4E0ACE9B4E001900D92CC
:101B80008A95E1F7DF91CF911F910F9108951F93EF
:101B9000FC0199278827BC01E89411911032E9F3E0
:101BA000193010F01E30C8F31B3251F01D3249F4C9
:101BB000689406C00E94F90D610F711D811D911D71
:101BC000119110531A30B0F33EF4909580957095B2
:101BD00061957F4F8F4F9F4F1F910895BB274A30CC
:101BE00031F4992322F4BDE2909581959F4F0C9496
:101BF0000F0E592F482F372F262F660F771F881F5C
:101C0000991F660F771F881F991F620F731F841F0C
:101C1000951F660F771F881F991F0895BB27FB012B
:101C20005527AA27880F991FAA1FA41710F0A41BD5
:101C300083955051B9F7A05DAA3308F0A95DA1932F
:101C4000009779F7B111B1931192CB010C94280E42
:101C5000DC01FC01672F71917723E1F7329704C013
:101C60007C916D9370836291AE17BF07C8F308959E
:101C7000EE0FFF1F881F8BBF0790F691E02D199480
:101C8000CF93DF938230910510F482E090E0E091F1
:101C90002A05F0912B0520E030E0C0E0D0E030973D
:101CA00011F14081518148175907C0F04817590771
:101CB00061F482819381209719F09B838A832BC0E2
:101CC00090932B0580932A0526C02115310519F024
:101CD0004217530718F49A01BE01DF01EF01028099
:101CE000F381E02DDCCF2115310509F1281B390BDB
:101CF0002430310590F412968D919C9113976115C3
:101D0000710521F0FB019383828304C090932B051E
:101D100080932A05FD01329644C0FD01E20FF31FB6
:101D200081939193225031092D933C933AC0209195
:101D3000280530912905232B41F42091030230918D
:101D40000402309329052093280520910102309147
:101D500002022115310541F42DB73EB7409105022D
:101D600050910602241B350BE0912805F0912905BE
:101D7000E217F307A0F42E1B3F0B2817390778F062
:101D8000AC014E5F5F4F2417350748F04E0F5F1FC1
:101D900050932905409328058193919302C0E0E078
:101DA000F0E0CF01DF91CF9108950F931F93CF9370
:101DB000DF93009709F48CC0FC01329713821282E2
:101DC00000912A0510912B050115110581F4208140
:101DD0003181820F931F2091280530912905281702
:101DE000390779F5F0932905E093280571C0D801EA
:101DF00040E050E0AE17BF0750F412962D913C9191
:101E00001397AD012115310509F1D901F3CF9D01DA
:101E1000DA013383228360817181860F971F8217D5
:101E2000930769F4EC0128813981260F371F2E5F53
:101E30003F4F318320838A819B8193838283452B0B
:101E400029F4F0932B05E0932A0542C01396FC93E6
:101E5000EE931297ED01499159919E01240F351F80
:101E6000E217F30771F480819181840F951F029628
:101E700011969C938E938281938113969C938E935B
:101E80001297E0E0F0E0D80112968D919C911397A3
:101E9000009719F0F8018C01F6CF8D919C91980173
:101EA0002E5F3F4F820F931F209128053091290507
:101EB0002817390769F4309729F410922B051092EE
:101EC0002A0502C013821282109329050093280567
:101ED000DF91CF911F910F9108956F927F928F9212
:101EE0009F92AF92BF92CF92DF92EF92FF920F93A9
:101EF0001F93CF93DF93EC01009789F4CB01DF911F
:101F0000CF911F910F91FF90EF90DF90CF90BF90F6
:101F1000AF909F908F907F906F900C94400EFC013B
:101F2000E60FF71F9C0122503109E217F30708F46E
:101F3000ACC0D9010D911C91119706171707B0F08D
:101F40000530110508F49FC0C8010497861797074C
:101F500008F499C002501109061B170B0193119345
:101F60006D937C93CF010E94D50E8DC05B01A01AAA
:101F7000B10A4C01800E911EA0912A05B0912B054B
:101F800040E050E0E12CF12C109709F44AC0A8156C
:101F9000B905D1F56D907C901197630182E0C80E70
:101FA000D11CCA14DB0480F1A3014A195B096A0140
:101FB00082E0C80ED11C1296BC9012971396AC9179
:101FC000B5E0CB16D10440F0B282A38351834083A5
:101FD000D9016D937C930AC00E5F1F4FC301800F20
:101FE000911FF90191838083EB2DFA2FE114F10405
:101FF00031F0D7011396FC93EE93129744C0F093FF
:102000002B05E0932A053FC08D919C9111974817AD
:10201000590708F4AC017D0112960D90BC91A02DDA
:10202000B3CF809128059091290588159905E1F491
:1020300046175707C8F48091010290910202009759
:1020400041F48DB79EB74091050250910602841B62
:10205000950BE817F907C8F4F0932905E0932805D4
:10206000F901718360830FC0CB010E94400E7C0197
:10207000009759F0A801BE010E945B10CE010E949A
:10208000D50EC70104C0CE0102C080E090E0DF9110
:10209000CF911F910F91FF90EF90DF90CF90BF9065
:1020A000AF909F908F907F906F90089581E090E027
:1020B000F8940C946B10FB01DC0102C001900D92AE
:1020C00041505040D8F70895FB01DC0101900D927A
:1020D0000020E1F7089511E0C3E9D1E000E006C077
:1020E000802FFE010E94380E2196011DC439D107B0
:0A20F00080E00807A9F7F894FFCF7D
:1020FA000100002C0580000000010002000300041A
:10210A0000050006000700080009000A00FFFFFF9B
:10211A00FFFFFFFFFFFFFFFFFFFFFFFFFFFFFFFFC5
:10212A00FFFFFF0000020003000100000004000599
:10213A000006000B000C07E706C706AF0683065722
:10214A00062B06FF05D3059B05000000005602BEBC
:10215A0008E4019D021502F30107020000000000D5
:10216A00000000000000001E000000000000000047
:10217A00000100020002000200010000000000004D
:10218A000000000000000000000000000000001F26
:10219A000020002100250019001A001B001C001D48
:1021AA00001E007370642E76616C3D007265736563
:1021BA00727665722E76616C3D007077722E76614A
:1021CA006C3D006272616B652E76616C3D007369CD
:1021DA00672E76616C3D007369676469732E766158
:1021EA006C3D007370646C696D2E76616C3D00689D
:1021FA006F726E2E76616C3D007370656564636FF5
:10220A006E73742E76616C3D006D73746B65792EF6
:0E221A0076616C3D00656D672E76616C3D004F
:00000001FF
