:100000000C94A2010C94D3010C94D3010C94D30151
:100010000C94D3010C94D3010C94D3010C94D30110
:100020000C94D3010C94D3010C94D3010C94D30100
:100030000C94D3010C94D3010C94D3010C94450877
:100040000C94D3010C94D3010C94D3010C94D301E0
:100050000C94D3010C94D3010C94D3010C94740B25
:100060000C94D3010C9410080C94E6070C94D30163
:100070000C94D3010C94D3010C94D3010C94D301B0
:100080000C94D3010C94D3010C94D3010C94D301A0
:100090000C94D3010C94D3010C94D3010C94D30190
:1000A0000C94D3010C94D3010C94D3010C94D30180
:1000B0000C94D3010C94D3010C94D3010C94D30170
:1000C0000C94D3010C94D3010C94D3010C94D30160
:1000D0000C94D3010C94D3010C94D3010C94D30150
:1000E0000C94D30189048E0493049D04A704200575
:1000F000B104B904C104CB04D504DF04EE04F80450
:10010000200502050C051605410944093309370984
:100110003D097B0948094C09520956095A096009E9
:10012000640968097B096E09720976090C94CB048D
:100130000C9433090C946E090C9452090C94A70486
:100140000C941C060C94EE040C94B1040C947505EC
:100150000C9472090C9493040C94E8060C94950585
:100160000C9402050C94F4020C94DF040C945307D5
:100170000C943C020C940A020C944C090C9420053B
:100180000C94FC010C94F8040C94000E0C947B0964
:100190000C941B070C94E9010C9437090C94F6029B
:1001A0000C9448090C9476090C94C1040C946009D1
:1001B0000C9468090C9464090C9416050C94B90409
:1001C0000C949D040C944F060C94A5090C9478078C
:1001D0000C9444090C94B5060C9433070C94B505A3
:1001E0000C94F5020C940C050C943D090C94D50567
:1001F0000C9494070C94D9010C943B0C0C945A0960
:100200000C9441090C9489040C94D5040C94820636
:100210000C9456090C945D050C948E040C94830286
:1002200000002100240027002A002D0030003300A8
:1002300001010000040107010A010000220025005D
:1002400028002B002E0031003400020100000501BF
:1002500008010B01000020002300260029002C00CB
:100260002F0032000001000003010601090105050D
:100270000505070508080808020202020A0A08081C
:10028000040404040101010101010101030303034A
:1002900003030303040707070C0C0C0C0C0C0C0CD9
:1002A0000202020206060606060606060B0B0B0BEA
:1002B0000B0B0B0B0102102020080810204010200F
:1002C000408002010201080402010102040810201A
:1002D0004080804020100804020180040201804018
:1002E0002010080402010804020101020408102081
:1002F0004080010204081020408000000A0B02091F
:100300000C0D0E08070304010000000000000000AF
:1003100000000000000000000000000000000000DD
:10032000000000000000121110000000000000009A
:1003300000000000000000000000000000000000BD
:10034000000E3B0C11241FBECFEFD1E2DEBFCDBFAC
:1003500000E00CBF28E0A4EEB3E001C01D92A5327E
:10036000B207E1F713E0A0E0B2E0EAECF3E200E06C
:100370000BBF02C007900D92A43EB107D9F711E060
:10038000C1EAD1E000E006C021970109802FFE01FB
:100390000E94A00FC03AD10780E00807A9F70E9489
:1003A0007C0C0C94D3110C940000089580E090E034
:1003B0000895FC01538D448D252F30E0842F90E06B
:1003C000821B930B541718F081589F4F0895019783
:1003D0000895FC01918D828D981759F0828DDF016F
:1003E000A80FB11D5D968C91928D9F5F928F90E0CA
:1003F00008958FEF9FEF0895FC01918D828D9817DE
:1004000031F0828DE80FF11D858D90E008958FEF1A
:100410009FEF0895FC01918D828D981B892F90E0AC
:1004200008958FEF93E00E940A0221E0892B09F4DE
:1004300020E0822F0895FC01848DDF01A80FB11DFB
:10044000A35EBE4F2C91848D90E001968F77992703
:10045000848FA689B7892C93A089B1898C918064F7
:100460008C93938D848D981306C00288F389E02DB8
:1004700080818F7D80830895EF92FF920F931F9369
:10048000CF93DF93EC0181E0888F9B8D8C8D981347
:1004900005C0E889F989808185FD24C0F62E0B8D81
:1004A00010E00F5F1F4F0F771127E02E8C8DE812A1
:1004B0000CC00FB607FCFACFE889F989808185FF67
:1004C000F5CFCE010E941B02F1CF8B8DFE01E80F0C
:1004D000F11DE35EFE4FF0820B8FEA89FB8980817C
:1004E000806207C0EE89FF896083E889F98980818D
:1004F0008064808381E090E0DF91CF911F910F9124
:10050000FF90EF900895CF93DF93EC01888D8823BF
:10051000C9F0EA89FB89808185FD05C0A889B98970
:100520008C9186FD0FC00FB607FCF5CF808185FF4B
:10053000F2CFA889B9898C9185FFEDCFCE010E94B9
:100540001B02E7CFDF91CF91089580E090E0892BE7
:1005500021F00E941102811125C080E090E0892BDA
:1005600041F080E090E0892B21F00E940000811191
:100570001CC080E090E0892B41F080E090E0892B66
:1005800021F00E940000811113C080E090E0892BCF
:10059000A1F080E090E0892B81F00E9400008111A1
:1005A0000AC008950E940000D8CF0E940000E1CF49
:1005B0000E940000EACF0C94000008951092F1030D
:1005C0001092F2031092F3031092F4031092F003CE
:1005D0008091F5039091F6038093B200E0E7F0E09C
:1005E0008081816080830895089508958F929F92FD
:1005F000BF92CF92DF92EF92FF920F931F93CF9310
:10060000DF93CDB7DEB728970FB6F894DEBF0FBEE5
:10061000CDBF809170008E7F8093700083EA95E05B
:100620000E94C10A63E283EA95E00E94EC0B68E451
:10063000C62E62E0D62E77E8E72E76E0F72E470149
:100640008E010F5F1F4FF601819191916F0103970A
:1006500089F04AE0B801F401808191810E94560F2F
:10066000F80101900020E9F73197AF01401B510BD1
:10067000B80104C041E050E068E473E083EA95E02B
:100680000E94BE0B6CE783EA95E00E94EC0BF2E05F
:100690008F0E911C2AE7C21622E0D206A1F661E273
:1006A00083EA95E00E94EC0B4091A7055091A805C4
:1006B0004115510541F06091A3057091A4058FEF9C
:1006C00093E00E94A5098FEA95E00E94C10A8DE996
:1006D00095E00E94C10A8FEF93E00E940A0218166B
:1006E0001906A4F48FEF93E00E94E901682F8DE9C9
:1006F00095E00E94EC0B81EC97E000000197E9F790
:1007000081EC97E000000197E9F7E5CF0091A105A2
:100710001091A2051093B6050093B50501151105BA
:1007200039F456E0C52E52E0D52EBB24B3949EC0BA
:100730001092BA051092B9051092B8051092B7053B
:10074000C12CD12CC016D10674F4C6010E94CE0A69
:10075000833229F4D092B805C092B70504C08FEF58
:10076000C81AD80AEFCF0150110917FD09C0C801F6
:100770000E94CE0A8132B9F71093BA050093B905E9
:100780001092BC051092BB050091B7051091B805F9
:1007900046E0B42E8091B9059091BA058017910773
:1007A0000CF4BFCFC8010E94CE0A982F9D7F9132D2
:1007B00019F08C3709F07BC1C8010E94CE0A8C3732
:1007C00009F051C08090BB059090BC056401CC0C31
:1007D000DD1CF601E85BFD4F808191810397C9F034
:1007E0008091AF059091B005009719F00E942F0FEE
:1007F00003C060E070E0CB01EFEF8E1A9E0A90928A
:10080000BC058092BB05F601E957F94F71836083FF
:1008100026C01A8219821C821B821E821D826FEAE8
:1008200075E0CE0101960E94000C2091BB0530912D
:10083000BC05C90101969093BC058093BB05B29E8F
:10084000C001B39E900D1124BE016F5F7F4F87548E
:10085000994F0E94000CCE0101960E94210C8FEA54
:1008600095E00E94C10A0F5F1F4F94CFF60181915E
:1008700091916F018F3FFFEF9F0709F4FBC020911B
:10088000E803211109C0F701208131813093E7038A
:100890002093E603B092E803880F991FFC01EC5FF8
:1008A000FC4F208131812430310509F0D1C0009105
:1008B000E6031091E7030F3F110519F014F00FEF55
:1008C00010E017FF02C000E010E0FC01EA5DFC4F01
:1008D0008080918061E0882D0E94130B0115110525
:1008E00009F4B1C00F3F110509F4AFC0F401FF27AF
:1008F000E650FD4FE4914E2F50E0FA013197E2317E
:10090000F10508F09DC08827EE58FF4F8F4F0C94DB
:10091000A00F84B5806884BD07BDACC084B580627B
:1009200084BD08BDA7C0809180008068809380004E
:1009300010938900009388009DC0809180008062A0
:100940008093800010938B0000938A0093C0809165
:10095000800088608093800010938D0000938C004D
:1009600089C08091B00080688093B0000093B3008C
:1009700081C08091B00080628093B0000093B40089
:1009800079C08091900080688093900010939900C6
:10099000009398006FC080919000806280939000D7
:1009A00010939B0000939A0065C08091900088602E
:1009B0008093900010939D0000939C005BC08091F9
:1009C000A00080688093A0008091A0008F7B80931E
:1009D000A0001093A9000093A8004CC08091A00033
:1009E00080628093A0001093AB000093AA0042C0E5
:1009F0008091A00088608093A0001093AD000093C8
:100A0000AC0038C080912001806880932001109351
:100A10002901009328012EC08091200180628093DB
:100A2000200110932B0100932A0124C08091200102
:100A300088608093200110932D0100932C011AC02F
:100A40000038110514F460E001C061E0882D10C089
:100A50002330310579F461E02091E6033091E7031A
:100A6000121613060CF060E0FC01EA5DFC4F808179
:100A70000E94E30AF2E0EF0EF11C28E3C21622E026
:100A8000D20609F0F3CE0E94DE0228960FB6F89443
:100A9000DEBF0FBECDBFDF91CF911F910F91FF90B1
:100AA000EF90DF90CF90BF909F908F900895682F28
:100AB0008FEA95E00E94EC0B7FCE8091D10590915A
:100AC000D205892B89F080E190E00E94240A892BCD
:100AD00039F481E090E09093DC058093DB05089584
:100AE0001092DC051092DB0508958091D10590915C
:100AF000D205892BC9F08EE090E00E94240A209153
:100B0000DD053091DE05892B49F4232B69F481E062
:100B100090E09093DE058093DD050895232B21F06E
:100B20001092DE051092DD0508958091D105909117
:100B3000D205892BC9F08CE090E00E94240A209114
:100B4000D9053091DA05892B49F4232B69F481E02A
:100B500090E09093DA058093D9050895232B21F036
:100B60001092DA051092D90508958091D1059091DF
:100B7000D205892BC9F08AE090E00E94240A2091D6
:100B8000D7053091D805892B49F4232B69F481E0EE
:100B900090E09093D8058093D7050895232B21F0FA
:100BA0001092D8051092D70508958091D1059091A3
:100BB000D205892B09F43FC08091D3059091D405CB
:100BC0000197C9F18091C1059091C205892B99F1D6
:100BD0008091CF059091D005892B69F589E090E04F
:100BE0000E94240A892B99F48091E4039091E503F3
:100BF00001979093E5038093E40383E090E0909362
:100C0000C4058093C3051092C6051092C505809156
:100C1000E4039091E503893592406CF01092C4058D
:100C20001092C3051092C6051092C5051092E503F7
:100C30001092E403089508958091D1059091D20512
:100C4000892B61F18091D3059091D405019731F101
:100C50008091C1059091C205892B01F18091CF054A
:100C60009091D005892BD1F488E090E00E94240A6D
:100C7000892BA1F48091E4039091E503019790936F
:100C8000E5038093E40382E090E09093C4058093B1
:100C9000C3051092C6051092C50508950895809168
:100CA000D1059091D205892B61F18091D305909166
:100CB000D405019731F18091C1059091C205892B2E
:100CC00001F18091CF059091D005892BD1F487E077
:100CD00090E00E94240A892BA1F48091E403909172
:100CE000E50301979093E5038093E40381E090E0AE
:100CF0009093C4058093C3051092C6051092C50554
:100D0000089508958091D1059091D205892B61F1C4
:100D10008091D3059091D405019731F18091C1055F
:100D20009091C205892B01F18091CF059091D0055A
:100D3000892BD1F486E090E00E94240A892BA1F44B
:100D40008091E4039091E50301979093E5038093EC
:100D5000E4031092C4051092C30582E090E09093E2
:100D6000C6058093C505089508958091D105909199
:100D7000D205892B61F18091D3059091D40501971B
:100D800031F18091C1059091C205892B01F18091CB
:100D9000CF059091D005892BD1F485E090E00E9499
:100DA000240A892BA1F48091E4039091E503019733
:100DB0009093E5038093E4031092C4051092C30559
:100DC00084E090E09093C6058093C505089508954A
:100DD0008091D1059091D205892B61F18091D30545
:100DE0009091D405019731F18091C1059091C20590
:100DF000892B01F18091CF059091D005892BD1F4F9
:100E000084E090E00E94240A892BA1F48091E403FD
:100E10009091E50301979093E5038093E40310928A
:100E2000C4051092C30586E090E09093C6058093B8
:100E3000C505089508958091D1059091D205892B1B
:100E400089F083E090E00E94240A892B39F481E044
:100E500090E09093CE058093CD0508951092CE0535
:100E60001092CD0508958091D1059091D205892BDE
:100E7000C9F08091D3059091D405019799F08091A4
:100E8000CF059091D005892B69F482E090E00E9413
:100E9000240A892B39F48FEF9FEF9093C20580933A
:100EA000C105089508958091D1059091D205892BAF
:100EB000F1F08091D3059091D4050197C1F0809114
:100EC000CF059091D005892B91F481E090E00E94AC
:100ED000240A892B39F481E090E09093C205809335
:100EE000C10508951092C2051092C1050895089594
:100EF00080E090E00E94240A2091E4033091E50311
:100F00002F5F3F4F3093E5032093E403892B39F49F
:100F100081E090E09093D2058093D10508951092DE
:100F2000D2051092D10508958F929F92AF92BF92F1
:100F3000CF92DF92EF92FF928091D1059091D205EE
:100F4000892BD9F18FE090E00E94240A892BA9F522
:100F500081E090E02091DF053091E005232B11F036
:100F600080E090E09093E0058093DF050E944F0BB6
:100F70004B015C0188EEC82E83E0D82EE12CF12CC9
:100F80000E944F0BDC01CB0188199909AA09BB0902
:100F9000883E9340A105B10558F021E0C21AD1085E
:100FA000E108F10888EE880E83E0981EA11CB11CB0
:100FB000C114D104E104F10419F7FF90EF90DF9020
:100FC000CF90BF90AF909F908F9008951F920F92F7
:100FD0000FB60F9211240BB60F922F933F934F939E
:100FE0005F936F937F938F939F93AF93BF93EF9391
:100FF000FF938FEF93E00E941B02FF91EF91BF914F
:10100000AF919F918F917F916F915F914F913F91A0
:101010002F910F900BBE0F900FBE0F901F90189541
:101020001F920F920FB60F9211240BB60F922F93AF
:101030008F939F93EF93FF93E0910F04F09110042F
:101040008081E0911504F091160482FD11C0908119
:10105000809118048F5F20911904821751F0E0915C
:101060001804F0E0E150FC4F958F8093180401C004
:101070008081FF91EF919F918F912F910F900BBEE7
:101080000F900FBE0F901F9018951F920F920FB6E2
:101090000F9211240BB60F922F933F934F935F93B0
:1010A0006F937F938F939F93AF93BF93EF93FF9330
:1010B0008091F5039091F6038093B2008091F10343
:1010C0009091F203A091F303B091F4030196A11D56
:1010D000B11D8093F1039093F203A093F303B093B7
:1010E000F4038091F1039091F203A091F303B09186
:1010F000F4034091F9035091FA036091FB0370915E
:10110000FC0384179507A607B70710F18091F00339
:1011100081111EC081E08093F0038091F1039091D2
:10112000F203A091F303B091F403841B950BA60B7B
:10113000B70B8093F1039093F203A093F303B09362
:10114000F403E091F703F091F80319951092F0037E
:10115000FF91EF91BF91AF919F918F917F916F918F
:101160005F914F913F912F910F900BBE0F900FBE4B
:101170000F901F901895CF92DF92EF92FF920F93EE
:101180001F93CF93DF937C0182E3FB01D701019092
:101190000D928A95E1F7670182E3C80ED11C8B019D
:1011A0000E5C1F4FC0E0D0E0B8016C0F7D1FC60180
:1011B0008C0F9D1F0E94000C2696C639D105A1F701
:1011C000C701DF91CF911F910F91FF90EF90DF90BA
:1011D000CF900895AF92BF92CF92DF92EF92FF929D
:1011E0000F931F93CF93DF938C017B01EC01E29669
:1011F0005C0188ECA80EB11C6E0169E473E0CE01BD
:101200000E94260C2696CA15DB05B9F7E701760180
:101210006E01E2E3CE0ED11C89919991F801819380
:1012200091938F01C7010E94C10AF6E0EF0EF11CF5
:10123000CC15DD0589F7DF91CF911F910F91FF90BC
:10124000EF90DF90CF90BF90AF90089590E0FC01B9
:101250003197E231F10508F04EC08827EC57FF4F77
:101260008F4F0C94A00F809180008F7703C08091E6
:1012700080008F7D80938000089580918000877F1B
:10128000F9CF84B58F7702C084B58F7D84BD089572
:101290008091B0008F7703C08091B0008F7D8093E4
:1012A000B0000895809190008F7707C080919000E2
:1012B0008F7D03C080919000877F80939000089578
:1012C0008091A0008F7707C08091A0008F7D03C020
:1012D0008091A000877F8093A000089580912001D5
:1012E0008F7707C0809120018F7D03C080912001FE
:1012F000877F809320010895CF93DF93282F30E0DC
:10130000F901E650FD4F8491F901EC54FD4FD49161
:10131000F901E259FD4FC491CC2391F081110E9453
:101320002609EC2FF0E0EE0FFF1FEC5AFD4FA591C0
:10133000B491EC91ED2381E090E021F480E002C0D3
:1013400080E090E0DF91CF910895CF92DF92EF920D
:10135000FF920F931F93CF93DF936C017A018B0160
:10136000C0E0D0E0CE15DF0589F0D8016D918D0188
:10137000D601ED91FC910190F081E02DC601199507
:10138000892B11F47E0102C02196ECCFC701DF91B9
:10139000CF911F910F91FF90EF90DF90CF90089524
:1013A0000E94BE110F931F93CF93DF93EC018881AE
:1013B0009981009729F02A813B812617370788F405
:1013C0008B016F5F7F4F0E94D510009761F099836A
:1013D00088831B830A832C813D81232B11F4FC011C
:1013E000108281E001C080E0DF91CF911F910F91C9
:1013F0000895EF92FF920F931F93CF93DF93EC0129
:101400007B018A01BA010E94D209288139818111A8
:101410000DC02115310519F0C9010E943D10198236
:1014200018821D821C821B821A8206C01D830C83B7
:10143000B701C9010E94CC11CE01DF91CF911F915C
:101440000F91FF90EF900895CF93DF93EC01CC0FB5
:10145000DD1FFE01EC5FFC4F8081918181309105A1
:10146000C1F5FE01EA5DFC4F80810E947C09892B59
:10147000D1F5FE01E150F84F80819181009761F430
:10148000FE01E352F84F11821082C150D84F81E023
:1014900090E09983888303C0019719F081E090E080
:1014A00045C0FE01E352F84F8081918101969183FE
:1014B0008083843F914094F3FE01E352F84F118200
:1014C0001082C150D84F82E090E09983888380E0F9
:1014D000E6CF892B19F7FE01EA5DFC4F80810E945F
:1014E0007C09892B29F0C150D84F19821882D6CF98
:1014F000FE01E150F84F208131812115310509F4B9
:10150000BFCF2130310561F4FE01E352F84F8081F5
:1015100091810196918380838C3291406CF6BECF8D
:1015200081E090E02230310509F480E0DF91CF9135
:101530000895EFEFF3E0A089B18982E08C93A48550
:10154000B5851C92A685B78580E18C93108EA48901
:10155000B58986E08C93A289B3898C9180618C9344
:10156000A289B3898C9188608C93A289B3898C916C
:1015700080688C930288F389E02D80818F7D808341
:101580000895CF93DF93EC0140E050E069E473E00D
:101590000E94F909CE01DF91CF9108952091A10514
:1015A0003091A2058217930760F420919D05309138
:1015B0009E052115310529F0F901E80FF91F8081F9
:1015C000089580E008951F93CF93DF93282F30E094
:1015D000F901E650FD4F8491F901EC54FD4FD4918F
:1015E000F901E259FD4FC491CC23C9F0162F8111A6
:1015F0000E942609EC2FF0E0EE0FFF1FE65CFD4F86
:10160000A591B4918FB7F894111105C09C91ED2F5D
:10161000E095E92302C0EC91ED2BEC938FBFDF91B5
:10162000CF911F910895CF93DF9390E0FC01EC548C
:10163000FD4F2491FC01E259FD4F8491882361F113
:1016400090E0880F991FFC01E05EFD4FC591D49199
:10165000FC01E65CFD4FA591B491611109C09FB7F3
:10166000F8948881209582238883EC912E230BC0E7
:10167000623061F49FB7F8943881822F809583237C
:101680008883EC912E2B2C939FBF06C08FB7F894C4
:10169000E8812E2B28838FBFDF91CF9108953FB72C
:1016A000F8948091D9079091DA07A091DB07B09167
:1016B000DC0726B5A89B05C02F3F19F00196A11D98
:1016C000B11D3FBFBA2FA92F982F8827820F911DD8
:1016D000A11DB11DBC01CD0142E0660F771F881F1F
:1016E000991F4A95D1F708951F920F920FB60F9246
:1016F00011242F933F938F939F93AF93BF93809128
:10170000D5079091D607A091D707B091D80730910F
:10171000D40723E0230F2D3720F40196A11DB11D1E
:1017200005C026E8230F0296A11DB11D2093D40702
:101730008093D5079093D607A093D707B093D80787
:101740008091D9079091DA07A091DB07B091DC076F
:101750000196A11DB11D8093D9079093DA07A0933C
:10176000DB07B093DC07BF91AF919F918F913F91C1
:101770002F910F900FBE0F901F901895EF92FF9230
:101780000F931F93CF93DF93FC0124813581611563
:10179000710511F480E019C041155105A9F07B01D4
:1017A000EC018A01020F131FB8010E94D20988239D
:1017B00089F3288139818C819D81B701820F931F24
:1017C0000E94CC111D830C8381E0DF91CF911F918A
:1017D0000F91FF90EF900895CF93DF931F921F9288
:1017E000CDB7DEB769831A8241E050E0BE016F5F7A
:1017F0007F4F0E94BE0B0F900F90DF91CF91089505
:10180000CF93DF93EC01FB0186179707B1F060815E
:1018100071816115710529F0448155810E94F90992
:101820000CC088819981009711F00E943D101982A7
:1018300018821D821C821B821A82CE01DF91CF91F9
:101840000895FC01808191810C943D10FC0111826E
:10185000108213821282158214826115710551F073
:10186000FB0101900020E9F73197AF01461B570BB0
:101870000C94F9090895CF93DF938FEA95E00E94C5
:10188000210C89EA95E00E94210C83EA95E00E94F0
:10189000210C8DE995E00E94210C81EF95E0892BC8
:1018A00039F489EB96E0892BD1F0C0E0D0E00DC08F
:1018B000C0E0D0E0CE018F57994F0E94210C2697AF
:1018C000CA368FEFD807B1F7ECCFCE01875B984FC0
:1018D0000E94210C2697CA368FEFD807B1F7C4EDC6
:1018E000D7E02697CE010E94210C87E0C035D807AB
:1018F000C1F7DF91CF910895CF93DF9300D000D04F
:10190000CDB7DEB7789484B5826084BD84B581603C
:1019100084BD85B5826085BD85B5816085BD8091BA
:101920006E00816080936E00109281008091810032
:10193000826080938100809181008160809381002A
:10194000809180008160809380008091B1008460EC
:101950008093B1008091B00081608093B00080914D
:1019600091008260809391008091910081608093CA
:101970009100809190008160809390008091A100FF
:1019800082608093A1008091A10081608093A1007A
:101990008091A00081608093A000809121018260ED
:1019A00080932101809121018160809321018091A8
:1019B000200181608093200180917A00846080936F
:1019C0007A0080917A00826080937A0080917A0018
:1019D000816080937A0080917A00806880937A0099
:1019E0001092C1000E94990A9EE088E10FB6F89417
:1019F000A895809360000FBE909360001092FE0344
:101A00001092FD038CE291E0A0E0B0E08093F90336
:101A10009093FA03A093FB03B093FC0386EF92E04C
:101A20009093F8038093F703809170008E7F8093EA
:101A300070008091B0008C7F8093B0008091B100E5
:101A4000877F8093B1008091B6008F7D8093B60030
:101A5000809170008D7F809370008091B1008460D0
:101A60008093B1008091B1008C7F8093B10086E0BB
:101A700090E09093F6038093F5030E94DE02E6E087
:101A8000FE2E67E876E08FEB95E00E94BB08A895F4
:101A900006E912E0D801ED91FD918D011995B2E0B2
:101AA000083B1B07B9F780919D0690919E068130F7
:101AB000910509F04BC07AE7C72E72E0D72EF601E8
:101AC000219131916F01C901880F991FFC01E85BD9
:101AD000FD4F408151814330510559F0FC01E154E3
:101AE000FA4FDC01A957B94F8D919C919183808366
:101AF00020C01A8219821C821B821E821D82F29EC5
:101B00008001F39E100D11240E5C1F4FB801695720
:101B1000794FCE0101960E94000CBE016F5F7F4F8E
:101B2000C80181549A4F0E94000CCE0101960E9478
:101B3000210CF6E9CF16F2E0DF0609F68091CF0519
:101B40009091D005892B09F047C04CC0892BB1F783
:101B500058E3C52E52E0D52ED6012D913D916D0151
:101B6000C901880F991FFC01E85BFD4F408151813D
:101B70004330510559F0FC01E154FA4FDC01A957FB
:101B8000B94F8D919C919183808320C01A821982D4
:101B90001C821B821E821D82F29E8001F39E100D0C
:101BA00011240E5C1F4FB8016957794FCE01019681
:101BB0000E94000CBE016F5F7F4FC80181549A4F95
:101BC0000E94000CCE0101960E94210CB8E4CB16B5
:101BD000B2E0DB0609F6B2CF8091970690919806A5
:101BE000009749F46FEB75E087E896E00E94BB0828
:101BF0000E94A50246CF9093D0058093CF05F2CFE7
:101C00000F931F93CF93DF9310920204109201045D
:101C100088EE93E0A0E0B0E0809303049093040486
:101C2000A0930504B09306048CEB92E0909300041B
:101C30008093FF0385EC90E090930C0480930B0459
:101C400084EC90E090930E0480930D0480EC90E07F
:101C50009093100480930F0481EC90E09093120411
:101C60008093110482EC90E0909314048093130409
:101C700086EC90E09093160480931504109218045B
:101C80001092190410921A0410921B046AE473E073
:101C900080E597E00E94260C61E573E086E597E019
:101CA0000E94260C68E573E08CE597E00E94260C04
:101CB0006FE573E082E697E00E94260C66E673E02B
:101CC00088E697E00E94260C6DE673E08EE697E0CA
:101CD0000E94260C64E773E084E797E00E94260CDC
:101CE0006BE773E08AE797E00E94260C62E873E0F6
:101CF00080E897E00E94260C69E873E086E897E0A8
:101D00000E94260C60E973E08CE897E00E94260CA4
:101D100067E973E082E997E00E94260C6EE973E0C0
:101D200088E997E00E94260C65EA73E08EE997E067
:101D30000E94260C6CEA73E084EA97E00E94260C6D
:101D400063EB73E08AEA97E00E94260C6AEB73E08B
:101D500080EB97E00E94260C61EC73E086EB97E045
:101D60000E94260C68EC73E08CEB97E00E94260C36
:101D70006FEC73E082EC97E00E94260C66ED73E056
:101D800088EC97E00E94260C6DED73E08EEC97E0F6
:101D90000E94260CC4E0D3E006E213E0E991F99139
:101DA000D8018C910E5F1F4FEE0FFF1FE450FD4FC7
:101DB00060810E94130BB3E0C632DB0779F76AEC4F
:101DC00072E087E896E00E94EA086AEC72E08FEB26
:101DD00095E00E94EA0869E473E08DE995E00E94CD
:101DE000260C69E473E083EA95E00E94260C69E41E
:101DF00073E089EA95E00E94260C69E473E08FEABB
:101E000095E00E94260C0E94990A83EA95E00E94C0
:101E1000C10A8DE995E00E94C10A89EA95E00E9415
:101E2000C10A1092BC051092BB051092BA0510921F
:101E3000B9051092B8051092B7051092B605109228
:101E4000B5051092BE051092BD056FEB75E087E8F1
:101E500096E0DF91CF911F910F910C94BB081F93D7
:101E6000FC0199278827BC01E89411911032E9F30D
:101E7000193010F01E30C8F31B3251F01D3249F4F6
:101E8000689406C00E94610F610F711D811D911D34
:101E9000119110531A30B0F33EF4909580957095DF
:101EA00061957F4F8F4F9F4F1F910895BB274A30F9
:101EB00031F4992322F4BDE2909581959F4F0C94C3
:101EC000770F592F482F372F262F660F771F881F20
:101ED000991F660F771F881F991F620F731F841F3A
:101EE000951F660F771F881F991F0895BB27FB0159
:101EF0005527AA27880F991FAA1FA41710F0A41B03
:101F000083955051B9F7A05DAA3308F0A95DA1935C
:101F1000009779F7B111B1931192CB010C94900F06
:101F2000DC01FC01672F71917723E1F7329704C040
:101F30007C916D9370836291AE17BF07C8F30895CB
:101F4000EE0FFF1F881F8BBF0790F691E02D1994AD
:101F5000CF93DF938230910510F482E090E0E0911E
:101F60002308F091240820E030E0C0E0D0E0309772
:101F700011F14081518148175907C0F0481759079E
:101F800061F482819381209719F09B838A832BC00F
:101F9000909324088093230826C02115310519F059
:101FA0004217530718F49A01BE01DF01EF010280C6
:101FB000F381E02DDCCF2115310509F1281B390B08
:101FC0002430310590F412968D919C9113976115F0
:101FD000710521F0FB019383828304C09093240850
:101FE00080932308FD01329644C0FD01E20FF31FE8
:101FF00081939193225031092D933C933AC02091C3
:10200000210830912208232B41F4209102023091C3
:10201000030230932208209321082091000230917E
:1020200001022115310541F42DB73EB7409104025C
:1020300050910502241B350BE0912108F0912208F4
:10204000E217F307A0F42E1B3F0B2817390778F08F
:10205000AC014E5F5F4F2417350748F04E0F5F1FEE
:1020600050932208409321088193919302C0E0E0AD
:10207000F0E0CF01DF91CF9108950F931F93CF939D
:10208000DF93009709F48CC0FC013297138212820F
:1020900000912308109124080115110581F4208175
:1020A0003181820F931F2091210830912208281737
:1020B000390779F5F0932208E093210871C0D8011F
:1020C00040E050E0AE17BF0750F412962D913C91BE
:1020D0001397AD012115310509F1D901F3CF9D0108
:1020E000DA013383228360817181860F971F821703
:1020F000930769F4EC0128813981260F371F2E5F81
:102100003F4F318320838A819B8193838283452B38
:1021100029F4F0932408E093230842C01396FC931B
:10212000EE931297ED01499159919E01240F351FAD
:10213000E217F30771F480819181840F951F029655
:1021400011969C938E938281938113969C938E9388
:102150001297E0E0F0E0D80112968D919C911397D0
:10216000009719F0F8018C01F6CF8D919C919801A0
:102170002E5F3F4F820F931F20912108309122083C
:102180002817390769F4309729F41092240810921F
:10219000230802C0138212821093220800932108A0
:1021A000DF91CF911F910F9108956F927F928F923F
:1021B0009F92AF92BF92CF92DF92EF92FF920F93D6
:1021C0001F93CF93DF93EC01009789F4CB01DF914C
:1021D000CF911F910F91FF90EF90DF90CF90BF9024
:1021E000AF909F908F907F906F900C94A80FFC0100
:1021F000E60FF71F9C0122503109E217F30708F49C
:10220000ACC0D9010D911C91119706171707B0F0BA
:102210000530110508F49FC0C80104978617970779
:1022200008F499C002501109061B170B0193119372
:102230006D937C93CF010E943D108DC05B01A01A6D
:10224000B10A4C01800E911EA0912308B091240880
:1022500040E050E0E12CF12C109709F44AC0A81599
:10226000B905D1F56D907C901197630182E0C80E9D
:10227000D11CCA14DB0480F1A3014A195B096A016D
:1022800082E0C80ED11C1296BC9012971396AC91A6
:10229000B5E0CB16D10440F0B282A38351834083D2
:1022A000D9016D937C930AC00E5F1F4FC301800F4D
:1022B000911FF90191838083EB2DFA2FE114F10432
:1022C00031F0D7011396FC93EE93129744C0F0932C
:1022D0002408E09323083FC08D919C9111974817E3
:1022E000590708F4AC017D0112960D90BC91A02D08
:1022F000B3CF809121089091220888159905E1F4C7
:1023000046175707C8F48091000290910102009788
:1023100041F48DB79EB74091040250910502841B91
:10232000950BE817F907C8F4F0932208E093210809
:10233000F901718360830FC0CB010E94A80F7C015B
:10234000009759F0A801BE010E94C311CE010E945E
:102350003D10C70104C0CE0102C080E090E0DF91D3
:10236000CF911F910F91FF90EF90DF90CF90BF9092
:10237000AF909F908F907F906F90089581E090E054
:10238000F8940C94D311FB01DC0102C001900D9272
:1023900041505040D8F70895FB01DC0101900D92A7
:1023A0000020E1F7089511E0C1EAD1E000E006C0A5
:1023B000802FFE010E94A00F2196011DC23AD10775
:0A23C00080E00807A9F7F894FFCFAA
:1023CA00000025088000FFFFFFFFFFFFFFFFFFFF60
:1023DA00FFFFFFFFFFFFFFFFFFFFFFFFFFFFFFFF03
:1023EA00FFFFFFFFFFFFFFFFFFFFFFFFFFFFFFFFF3
:1023FA00FFFFFFFF0B000D000200030001000000B9
:10240A000400050006000B000000000000000000A8
:10241A0000000000000001000000010001000100AE
:10242A000100010001000100000003000300030095
:10243A00030003000300010001000000040005007E
:10244A0006000B00170018001200110013001500F7
:10245A001400130016007807530733071B07E80612
:10246A00B50682064F061C06D505B505F502950583
:10247A00F402750594075D05000000003C02A509F9
:10248A00D90183020A02E901FC01000000000000F0
:10249A000000000000001E00000000000000000014
:1024AA00010001000100000000000100000000001E
:1024BA00000000000000000000000000020002000E
:1024CA0002000100000000000000000000000000FF
:1024DA0000000000000000000000030000000300EC
:1024EA000000000000001F00200021002500190044
:1024FA001A001B001C001D001E00270029001600E0
:10250A0018002300220026002000612E76616C3D0F
:10251A0000622E76616C3D00752E7478743D0063FE
:10252A002E76616C3D00642E76616C3D00652E76D8
:10253A00616C3D00762E7478743D00662E76616C6F
:10254A003D00672E76616C3D00682E76616C3D0019
:10255A00692E76616C3D006A2E76616C3D006B2EA9
:10256A0076616C3D006C2E76616C3D006D2E766155
:10257A006C3D006E2E76616C3D006F2E76616C3D6F
:10258A0000702E76616C3D00712E7478743D007275
:10259A002E7478743D00732E7478743D00742E7412
:0425AA0078743D0004
:00000001FF
