:100000000C9490010C94C1010C94C1010C94C10199
:100010000C94C1010C94C1010C94C1010C94C10158
:100020000C94C1010C94C1010C94C1010C94C10148
:100030000C94C1010C94C1010C94C1010C947D0776
:100040000C94C1010C94C1010C94C1010C94C10128
:100050000C94C1010C94C1010C94C1010C94D709FA
:100060000C94C1010C9453070C9429070C94C10102
:100070000C94C1010C94C1010C94C1010C94C101F8
:100080000C94C1010C94C1010C94C1010C94C101E8
:100090000C94FF060C94D5060C94C1010C94C1017C
:1000A0000C94C1010C94C1010C94C1010C94C101C8
:1000B0000C94C1010C94C1010C94C1010C94C101B8
:1000C0000C94C1010C94C1010C94C1010C94C101A8
:1000D0000C94C1010C94C1010C94C1010C94C10198
:1000E0000C94C101BF04C404C904D304DD04560543
:1000F000E704EF04F70401050B05150524052E059B
:100100005605380542054C050E081108000804087C
:100110000A084808150819081F08230827082D0889
:100120003108350848083B083F0843080C94380557
:100130000C94C4040C94390C0C94EE050C94A90591
:100140000C94E7040C943B080C9472080C94480837
:100150000C9427080C9423080C94F7040C943F0883
:100160000C9442050C940B050C941F080C94110878
:100170000C9404080C9424050C9415050C944C055F
:100180000C9403020C94C1050C9415030C94DD042B
:100190000C9400080C9443080C94D3040C940E089F
:1001A0000C9435080C94550C0C94C9040C94150847
:1001B0000C9497050C94BF040C942D080C940A0819
:1001C0000C9406060C94EF040C9419080C949902F4
:1001D0000C9401050C9426060C94E0010C94EF019C
:1001E0000C9490060C9456050C942E050C94520217
:1001F0000C9411020C9431080C944B060000210061
:10020000240027002A002D003000330001010000E7
:10021000040107010A0100002200250028002B002C
:100220002E003100340002010000050108010B011D
:10023000000020002300260029002C002F0032009F
:100240000001000003010601090105050505070578
:1002500008080808020202020A0A08080404040442
:10026000010101010101010103030303030303036E
:10027000040707070C0C0C0C0C0C0C0C02020202FD
:1002800006060606060606060B0B0B0B0B0B0B0BE6
:100290000102102020080810204010204080020198
:1002A000020108040201010204081020408080407D
:1002B000201008040201800402018040201008047C
:1002C000020108040201010204081020408001021A
:1002D00004081020408000000A0B02090C0D0E08D3
:1002E00007030401000000000000000000000000FF
:1002F00000000000000000000000000000000000FE
:1003000000001211100000000000000000000000BA
:10031000000000000000000000000000550C390C37
:1003200011241FBECFEFD1E2DEBFCDBF00E00CBF76
:1003300025E0A2E2B3E001C01D92A831B207E1F7C7
:1003400013E0A0E0B2E0EAE4F0E200E00BBF02C09C
:1003500007900D92A232B107D9F711E0CFE8D1E0B2
:1003600000E006C021970109802FFE010E94E00DE8
:10037000CE38D10780E00807A9F70E940D0B0C9436
:1003800013100C940000FC01A089B1898C91A689FE
:10039000B78982FD0FC09C91818D8F5F8F73228DF5
:1003A000821749F0218DDF01A20FB11D5D969C934C
:1003B000818F08958C910895089580E090E00895CC
:1003C000FC01538D448D252F30E0842F90E0821B5B
:1003D000930B541710F0CF96089501970895FC01E0
:1003E000918D828D981761F0828DDF01A80FB11D6C
:1003F0005D968C91928D9F5F9F73928F90E0089590
:100400008FEF9FEF0895FC01918D828D981731F049
:10041000828DE80FF11D858D90E008958FEF9FEF9D
:100420000895FC01918D228D892F90E0805C9F4F73
:10043000821B91098F739927089581E393E00E94AD
:10044000110221E0892B09F420E0822F08958EEC1F
:1004500093E00E94110221E0892B09F420E0822F11
:100460000895FC01848DDF01A80FB11DA35ABF4F71
:100470002C91848D90E001968F739927848FA689A3
:10048000B7892C93A089B1898C9180648C93938DCA
:10049000848D981306C00288F389E02D80818F7DBA
:1004A00080830895EF92FF920F931F93CF93DF9372
:1004B000EC0181E0888F9B8D8C8D981305C0E889B5
:1004C000F989808185FD24C0F62E0B8D10E00F5F29
:1004D0001F4F0F731127E02E8C8DE8120CC00FB642
:1004E00007FCFACFE889F989808185FFF5CFCE0135
:1004F0000E943102F1CF8B8DFE01E80FF11DE35A0E
:10050000FF4FF0820B8FEA89FB898081806207C0F0
:10051000EE89FF896083E889F9898081806480831E
:1005200081E090E0DF91CF911F910F91FF90EF90CC
:100530000895CF93DF93EC01888D8823C9F0EA8971
:10054000FB89808185FD05C0A889B9898C9186FDCC
:100550000FC00FB607FCF5CF808185FFF2CFA889C9
:10056000B9898C9185FFEDCFCE010E943102E7CF92
:10057000DF91CF91089580E090E0892B21F00E94D7
:100580002702811121C080E090E0892B21F00E9498
:100590001D0281111CC080E090E0892B41F080E0B9
:1005A00090E0892B21F00E940000811113C080E0AF
:1005B00090E0892BA1F080E090E0892B81F00E94EF
:1005C000000081110AC008950E940000DCCF0E9443
:1005D0000000E1CF0E940000EACF0C9400000895D3
:1005E00010922303109224031092250310922603E5
:1005F0001092220380912703909128038093B200E8
:10060000E0E7F0E0808181608083089520E030E0C1
:10061000281739074CF441EC57E0000041505109CC
:10062000E1F72F5F3F4FF4CF08955F926F927F9273
:100630008F929F92AF92BF92CF92DF92EF92FF92F2
:100640000F931F93CF93DF93CDB7DEB72C970FB6E1
:10065000F894DEBF0FBECDBF809170008E7F809377
:10066000700082E794E00E94D40A63E282E794E09B
:100670000E94700AB0E9CB2EB4E0DB2E8601F801AF
:10068000619171918F0182E794E00E94210A6CE7E9
:1006900082E794E00E94700AF4E0083A1F0779F7B5
:1006A00061E282E794E00E94700A409176045091E2
:1006B00077044115510541F0609172047091730403
:1006C0008EEC93E00E94720882E390E00E940603A1
:1006D0006EEA72E0CE0101960E94F80A8CE694E080
:1006E0000E94D40A8EEC93E00E941102181619069B
:1006F00074F48EEC93E00E94EF01682F8CE694E096
:100700000E94700A82E090E00E940603EBCF009105
:1007100070041091710401151105D1F489819A8139
:100720000E947D0E82E390E00E9406036EEA72E072
:10073000CE0107960E94F80A80912F039091300312
:100740000D970CF453C01092300310922F034EC03B
:10075000E12CF12CE016F1064CF4C7010E94560979
:10076000833261F02FEFE21AF20AF4CFE12CF12C80
:1007700005C0C8010E945609813231F001501109AB
:1007800017FFF7CF00E010E0A12CB12C0E151F05CC
:100790002CF2C7010E945609982F9D7F913219F0C3
:1007A0008C3709F0BEC1C7010E9456098C37D1F4BD
:1007B00089819A81009719F00E946F0D03C060E053
:1007C00070E0CB014501EFEF8E1A9E0AF501EE0FA6
:1007D000FF1FE057FB4F71836083CE0101960E949B
:1007E000D40A5401FFEFEF1AFF0AD0CF00912F0374
:1007F00010913003053011052CF4580127E0A20EAA
:10080000B11C03C07BE0A72EB12C4801880C991CB9
:10081000E12CF12C66E0562E0A151B050CF055C094
:10082000F701E80DF91DEA5FFD4F80819181FC0120
:10083000EE0FFF1FE057FB4F608071801A82198214
:100840001C821B821E821D82589EB001599E700D13
:10085000112467557B4FCE0101960E94E10AB30136
:10086000CE0101960E94210A811104C0CE01019699
:100870000E94A10ABE016F5F7F4FCE0107960E94C2
:10088000E10A89819A810E947D0E4B855C85411524
:10089000510521F16F81788581E393E00E94720810
:1008A0006FEF81E393E00E9452026FEF81E393E0E8
:1008B0000E9452026FEF81E393E00E9452020F5FA9
:1008C0001F4F82E0E80EF11CA7CF80912F0390917B
:1008D000300307969093300380932F038F81988580
:1008E0000E947D0E82E390E00E9406033CE1E32E2D
:1008F00032E0F32EF701819191917F018F3FFFEF5D
:100900009F0709F4E9C0F60100811181880F991F42
:10091000FC01EA57FD4F208131812430310509F077
:10092000CDC00F3F110519F014F00FEF10E017FFC5
:1009300002C000E010E0FC01EA56FD4FA080B1804B
:1009400061E08A2D0E949B090115110509F4B1C0CF
:100950000F3F110509F4AFC0F501FF27EA52FD4F23
:10096000E4914E2F50E0FA013197E231F10508F0A1
:100970009DC08827EE58FF4F8F4F0C94E00D84B533
:10098000806884BD07BDA8C084B5806284BD08BDF1
:10099000A3C08091800080688093800010938900BC
:1009A0000093880099C080918000806280938000CD
:1009B00010938B0000938A008FC080918000886024
:1009C0008093800010938D0000938C0085C08091EF
:1009D000B00080688093B0000093B3007DC0809128
:1009E000B00080628093B0000093B40075C0809125
:1009F0009000806880939000109399000093980075
:100A00006BC08091900080628093900010939B0057
:100A100000939A0061C0809190008860809390005C
:100A200010939D0000939C0057C08091A0008068A7
:100A30008093A0008091A0008F7B8093A0001093F2
:100A4000A9000093A80048C08091A0008062809314
:100A5000A0001093AB000093AA003EC08091A000BC
:100A600088608093A0001093AD000093AC0034C068
:100A700080912001806880932001109329010093C8
:100A800028012AC080912001806280932001109368
:100A90002B0100932A0120C080912001886080935F
:100AA000200110932D0100932C0116C00038110570
:100AB00014F460E001C061E08A2D0CC023303105E0
:100AC00059F461E0101611060CF060E0FC01EA56E2
:100AD000FD4F80810E946B09F2E0CF0ED11C24E310
:100AE000E21622E0F20609F005CF82E390E00E94D0
:100AF00006030E94F0022C960FB6F894DEBF0FBEDC
:100B0000CDBFDF91CF911F910F91FF90EF90DF90BC
:100B1000CF90BF90AF909F908F907F906F905F909D
:100B20000895682FCE0101960E94700A3CCE87E09E
:100B300090E00E94C608892B39F481E090E0909300
:100B40008B0480938A04089510928B0410928A0477
:100B5000089580918A0490918B04892B89F086E016
:100B600090E00E94C608892B39F481E090E09093D0
:100B70008D0480938C04089510928D0410928C043F
:100B8000089580918A0490918B04892B31F1809192
:100B90008C0490918D04019701F180917A049091D9
:100BA0007B04892BD1F085E090E00E94C608892B58
:100BB000A1F48091880490918904892B49F4809153
:100BC000780490917904909389048093880408951F
:100BD00010928904109288040895089580918A04DF
:100BE00090918B04892B89F084E090E00E94C608E4
:100BF000892B39F481E090E09093870480938604F8
:100C000008951092870410928604089580918A04B2
:100C100090918B04892BC9F080918C0490918D0464
:100C2000019799F08091880490918904892B69F447
:100C300083E090E00E94C608892B39F48FEF9FEF84
:100C400090937B0480937A040895089580918A0498
:100C500090918B04892BF1F080918C0490918D04FC
:100C60000197C1F08091880490918904892B91F4B7
:100C700082E090E00E94C608892B39F481E090E080
:100C800090937B0480937A04089510927B041092D1
:100C90007A040895089580918A0490918B04892B99
:100CA000F1F180918C0490918D040197C1F18091B4
:100CB0007A0490917B04892B91F180918804909122
:100CC0008904892B61F581E090E00E94C608892B98
:100CD00031F580917E0490917F0420917C043091C5
:100CE0007D04121613065CF42150310930937D0403
:100CF00020937C0410927F0410927E040895883023
:100D0000910514F4019602C088E090E090937F046E
:100D100080937E0410927D0410927C0408950895BF
:100D200080918A0490918B04892BF1F180918C043D
:100D300090918D040197C1F180917A0490917B0488
:100D4000892B91F18091880490918904892B61F518
:100D500080E090E00E94C608892B31F520917E0446
:100D600030917F0480917C0490917D0412161306CB
:100D70005CF42150310930937F0420937E0410925B
:100D80007D0410927C0408958430910514F401963A
:100D900002C084E090E090937D0480937C041092E4
:100DA0007F0410927E04089508951F920F920FB64B
:100DB0000F9211240BB60F922F933F934F935F9393
:100DC0006F937F938F939F93AF93BF93EF93FF9313
:100DD00081E393E00E943102FF91EF91BF91AF91C7
:100DE0009F918F917F916F915F914F913F912F9143
:100DF0000F900BBE0F900FBE0F901F9018951F9273
:100E00000F920FB60F9211240BB60F922F933F93B0
:100E10004F935F936F937F938F939F93AF93BF9302
:100E2000EF93FF9381E393E00E94C301FF91EF9161
:100E3000BF91AF919F918F917F916F915F914F91F2
:100E40003F912F910F900BBE0F900FBE0F901F90F0
:100E500018951F920F920FB60F9211240BB60F9296
:100E60002F933F934F935F936F937F938F939F93B2
:100E7000AF93BF93EF93FF938EEC93E00E94310208
:100E8000FF91EF91BF91AF919F918F917F916F9162
:100E90005F914F913F912F910F900BBE0F900FBE1E
:100EA0000F901F9018951F920F920FB60F9211245A
:100EB0000BB60F922F933F934F935F936F937F9354
:100EC0008F939F93AF93BF93EF93FF938EEC93E039
:100ED0000E94C301FF91EF91BF91AF919F918F91BC
:100EE0007F916F915F914F913F912F910F900BBE2A
:100EF0000F900FBE0F901F9018951F920F920FB674
:100F00000F9211240BB60F922F933F934F935F9341
:100F10006F937F938F939F93AF93BF93EF93FF93C1
:100F200080912703909128038093B200809123033E
:100F300090912403A0912503B09126030196A11D51
:100F4000B11D8093230390932403A0932503B093B2
:100F500026038091230390912403A0912503B0914F
:100F6000260340912B0350912C0360912D03709127
:100F70002E0384179507A607B70710F18091220367
:100F800081111EC081E08093220380912303909100
:100F90002403A0912503B0912603841B950BA60B77
:100FA000B70B8093230390932403A0932503B0935E
:100FB0002603E0912903F0912A0319951092220348
:100FC000FF91EF91BF91AF919F918F917F916F9121
:100FD0005F914F913F912F910F900BBE0F900FBEDD
:100FE0000F901F90189590E0FC013197E231F105C8
:100FF00008F04EC08827EC57FF4F8F4F0C94E00D40
:10100000809180008F7703C0809180008F7D8093D6
:101010008000089580918000877FF9CF84B58F7715
:1010200002C084B58F7D84BD08958091B0008F7714
:1010300003C08091B0008F7D8093B00008958091AF
:1010400090008F7707C0809190008F7D03C08091C2
:101050009000877F8093900008958091A0008F7703
:1010600007C08091A0008F7D03C08091A000877F82
:101070008093A0000895809120018F7707C0809110
:1010800020018F7D03C080912001877F8093200104
:101090000895CF93DF93282F30E0F901EA52FD4FF6
:1010A0008491F901E057FD4FD491F901E65BFD4FC2
:1010B000C491CC2391F081110E94F307EC2FF0E052
:1010C000EE0FFF1FE05DFD4FA591B491EC91ED2374
:1010D00081E090E021F480E002C080E090E0DF91C8
:1010E000CF910895CF92DF92EF92FF920F931F93CB
:1010F000CF93DF936C017A018B01C0E0D0E0CE1575
:10110000DF0589F0D8016D918D01D601ED91FC913B
:101110000190F081E02DC6011995892B11F47E0113
:1011200002C02196ECCFC701DF91CF911F910F91A3
:10113000FF90EF90DF90CF9008950E94FE0F0F93E5
:101140001F93CF93DF93EC0188819981009729F059
:101150002A813B812617370788F48B016F5F7F4F09
:101160000E94150F009761F0998388831B830A837F
:101170002C813D81232B11F4FC01108281E001C000
:1011800080E0DF91CF911F910F910895CF93DF936E
:10119000EC01CC0FDD1FFE01EA57FD4F80819181EC
:1011A0008130910509F5FE01EA56FD4F80810E94CC
:1011B0004908892B09F045C0FE01EC5FFA4F808198
:1011C0009181009761F4FE01EC50FB4F1182108277
:1011D000CC5FDA4F81E090E09983888303C0019768
:1011E000C1F081E090E038C0892BD9F7FE01EA56C2
:1011F000FD4F80810E944908892B19F5FE01EC5FA3
:10120000FA4F2081318121153105E9F22130310574
:10121000E9F4FE01EC50FB4F8081918101969183AE
:1012200080838C3D9540ECF2FE01EC50FB4F118227
:101230001082CC5FDA4F82E090E09983888380E06F
:10124000D1CFCC5FDA4F19821882CBCF81E090E00A
:101250002230310509F480E0DF91CF910895FC013F
:10126000A089B18982E08C93A485B5851C92A6855E
:10127000B78580E18C93108EA489B58986E08C9324
:10128000A289B3898C9180618C93A289B3898C9156
:1012900088608C93A289B3898C9180688C93028832
:1012A000F389E02D80818F7D8083089520917004E3
:1012B000309171048217930760F420916C0430918F
:1012C0006D042115310529F0F901E80FF91F80811E
:1012D000089580E008951F93CF93DF93282F30E087
:1012E000F901EA52FD4F8491F901E057FD4FD49185
:1012F000F901E65BFD4FC491CC23C9F0162F811193
:101300000E94F307EC2FF0E0EE0FFF1FEA5EFD4FA7
:10131000A591B4918FB7F894111105C09C91ED2F50
:10132000E095E92302C0EC91ED2BEC938FBFDF91A8
:10133000CF911F910895CF93DF9390E0FC01E05788
:10134000FD4F2491FC01E65BFD4F8491882361F100
:1013500090E0880F991FFC01E450FE4FC591D49195
:10136000FC01EA5EFD4FA591B491611109C09FB7E0
:10137000F8948881209582238883EC912E230BC0DA
:10138000623061F49FB7F8943881822F809583236F
:101390008883EC912E2B2C939FBF06C08FB7F894B7
:1013A000E8812E2B28838FBFDF91CF9108951F9264
:1013B0000F920FB60F9211242F933F938F939F9309
:1013C000AF93BF938091F0049091F104A091F20447
:1013D000B091F3043091EF0423E0230F2D3720F474
:1013E0000196A11DB11D05C026E8230F0296A11D7F
:1013F000B11D2093EF048093F0049093F104A09327
:10140000F204B093F3048091EB049091EC04A0916A
:10141000ED04B091EE040196A11DB11D8093EB0483
:101420009093EC04A093ED04B093EE04BF91AF91C0
:101430009F918F913F912F910F900FBE0F901F9012
:101440001895CF92DF92EF92FF920F931F93CF9355
:10145000DF93CDB7DEB728970FB6F894DEBF0FBE87
:10146000CDBF8C01CB014AE09E012F5F3F4F690148
:10147000B9010E94960DF60101900020E9F731971D
:10148000EC19FD09D8011496ED90FC901597309752
:10149000B9F0EE0EFF1EB701C8010E949F08882315
:1014A00081F0F8012081318184819581B601820F1C
:1014B000931F0E940C10D8011596FC92EE9214977F
:1014C00081E028960FB6F894DEBF0FBECDBFDF9146
:1014D000CF911F910F91FF90EF90DF90CF900895E3
:1014E000EF92FF920F931F93CF93DF931F921F9260
:1014F000CDB7DEB78C0169831A82FC01E480F580E8
:10150000FFEFEF1AFF0AB7010E949F08882381F0BE
:10151000F8012081318184819581BE016F5F7F4F09
:10152000820F931F0E940C10F801F582E48281E083
:101530000F900F90DF91CF911F910F91FF90EF903F
:101540000895CF93DF93EC0188819981009711F082
:101550000E947D0E198218821D821C821B821A82B3
:10156000DF91CF910895EF92FF920F931F93CF9346
:10157000DF93EC017B018A01BA010E949F0881116F
:1015800004C0CE010E94A10A07C01D830C83B701CD
:10159000888199810E940C10CE01DF91CF911F911B
:1015A0000F91FF90EF900895CF93DF93EC0140E00F
:1015B00050E06EEA72E00E94B30ACE01DF91CF9153
:1015C0000895CF93DF93EC01FB018617970761F035
:1015D000608171816115710529F0448155810E94F6
:1015E000B30A02C00E94A10ACE01DF91CF910895F3
:1015F000FC011182108213821282158214826115FD
:10160000710551F0FB0101900020E9F73197AF011E
:10161000461B570B0C94B30A0895789484B58260E6
:1016200084BD84B5816084BD85B5826085BD85B586
:10163000816085BD80916E00816080936E00109204
:10164000810080918100826080938100809181007F
:101650008160809381008091800081608093800010
:101660008091B10084608093B1008091B00081606E
:101670008093B0008091910082608093910080916E
:1016800091008160809391008091900081608093AF
:1016900090008091A10082608093A1008091A100C0
:1016A00081608093A1008091A00081608093A00060
:1016B00080912101826080932101809121018160CC
:1016C000809321018091200181608093200180918D
:1016D0007A00846080937A0080917A00826080939F
:1016E0007A0080917A00816080937A0080917A00FC
:1016F000806880937A001092C1008EEC93E00E9483
:101700002F0981E393E00E942F0910923003109279
:101710002F0384EF91E0A0E0B0E080932B0390933F
:101720002C03A0932D03B0932E0385E193E09093B7
:101730002A0380932903809170008E7F809370002C
:101740008091B0008C7F8093B0008091B100877F42
:101750008093B1008091B6008F7D8093B600809118
:1017600070008D7F809370008091B10084608093C1
:10177000B1008091B1008C7F8093B10086E090E051
:1017800090932803809327030E94F00218E1E0E978
:10179000F4E0A8E7B4E0812F01900D928A95E1F77B
:1017A000C4E4D2E0E991F991199582E0C435D807F3
:1017B000C9F78091A6049091A7048130910559F54D
:1017C000209190043091910430937904209378040F
:1017D00020919804309199043093810420938004DF
:1017E00020919A0430919B043093830420938204C7
:1017F00020919C0430919D043093850420938404AF
:1018000090938F0480938E04809188049091890432
:10181000892BC1F41DC0892BB9F7E4E3F2E0819173
:101820009191880F991FDC01A858BB4FEC01C0575C
:10183000DB4F888199818D939C9382E0E434F80793
:1018400071F7E2CF8091A0049091A104009761F418
:10185000E8E7F4E0A0E9B4E0812F01900D928A95C9
:10186000E1F70E94BB0293CF909389048093880490
:10187000EFCFCF93DF9380917204909173040E9415
:101880007D0E80916C0490916D040E947D0ECBEED4
:10189000D4E02697888199810E947D0E84E0C93A20
:1018A000D807B9F7DF91CF9108950F931F93CF9386
:1018B000DF93109234031092330348EE53E060E05C
:1018C00070E0409335035093360360933703709371
:1018D000380388E592E090933203809331032DEC36
:1018E00030E030933E0320933D032CEC30E0309306
:1018F000400320933F0328EC30E0309342032093D1
:10190000410329EC30E030934403209343032AEC55
:1019100030E030934603209345032EEC30E03093C3
:1019200048032093470310924A0310924B031092EE
:101930004C0310924D031092D1031092D0034093A8
:10194000D2035093D3036093D4037093D503909341
:10195000CF038093CE0385EC90E09093DB038093DC
:10196000DA0384EC90E09093DD038093DC0380EC59
:1019700090E09093DF038093DE0381EC90E09093FE
:10198000E1038093E00382EC90E09093E303809383
:10199000E20386EC90E09093E5038093E4031092D9
:1019A000E7031092E8031092E9031092EA0366EA53
:1019B00072E089EA94E00E94F80A6FEA72E08FEA26
:1019C00094E00E94F80A6DEB72E085EB94E00E94CF
:1019D000F80A66EC72E08BEB94E00E94F80A61ED85
:1019E00072E081EC94E00E94F80A6AED72E087EC04
:1019F00094E00E94F80A66EE72E08DEC94E00E949A
:101A0000F80A62EF72E083ED94E00E94F80A6CEF4E
:101A100072E089ED94E00E94F80A6CE073E08FEDCB
:101A200094E00E94F80A68E173E085EE94E00E9479
:101A3000F80AC6E8D2E006E912E0E991F991D80186
:101A40008C910E5F1F4FEE0FFF1FE258FD4F60811C
:101A50000E949B09B2E0C639DB0779F7E6E6F2E0BF
:101A6000C0E9D4E0DF018D919D918993999382E043
:101A7000AE37B807C1F7A8E7B4E0819191918D9393
:101A80009D9382E0EE37F807C1F76EEA72E08CE6CC
:101A900094E00E94F80A6EEA72E082E794E00E9405
:101AA000F80A8EEC93E00E942F0981E393E00E94F4
:101AB0002F098CE694E00E94D40A82E794E00E9409
:101AC000D40A88E1E8E7F4E0A0E9B4E001900D92DF
:101AD0008A95E1F7DF91CF911F910F9108951F93A0
:101AE000FC0199278827BC01E89411911032E9F391
:101AF000193010F01E30C8F31B3251F01D3249F47A
:101B0000689406C00E94A10D610F711D811D911D79
:101B1000119110531A30B0F33EF490958095709562
:101B200061957F4F8F4F9F4F1F910895BB274A307C
:101B300031F4992322F4BDE2909581959F4F0C9446
:101B4000B70D592F482F372F262F660F771F881F65
:101B5000991F660F771F881F991F620F731F841FBD
:101B6000951F660F771F881F991F0895BB27FB01DC
:101B70005527AA27880F991FAA1FA41710F0A41B86
:101B800083955051B9F7A05DAA3308F0A95DA193E0
:101B9000009779F7B111B1931192CB010C94D00D4C
:101BA000DC01FC01672F71917723E1F7329704C0C4
:101BB0007C916D9370836291AE17BF07C8F308954F
:101BC000EE0FFF1F881F8BBF0790F691E02D199431
:101BD000CF93DF938230910510F482E090E0E091A2
:101BE0001605F091170520E030E0C0E0D0E0309716
:101BF00011F14081518148175907C0F04817590722
:101C000061F482819381209719F09B838A832BC092
:101C1000909317058093160526C02115310519F0FC
:101C20004217530718F49A01BE01DF01EF01028049
:101C3000F381E02DDCCF2115310509F1281B390B8B
:101C40002430310590F412968D919C911397611573
:101C5000710521F0FB019383828304C090931705E3
:101C600080931605FD01329644C0FD01E20FF31F7B
:101C700081939193225031092D933C933AC0209146
:101C8000140530911505232B41F420910202309167
:101C90000302309315052093140520910002309122
:101CA00001022115310541F42DB73EB740910402E0
:101CB00050910502241B350BE0911405F091150598
:101CC000E217F307A0F42E1B3F0B2817390778F013
:101CD000AC014E5F5F4F2417350748F04E0F5F1F72
:101CE00050931505409314058193919302C0E0E051
:101CF000F0E0CF01DF91CF9108950F931F93CF9321
:101D0000DF93009709F48CC0FC0132971382128292
:101D100000911605109117050115110581F4208118
:101D20003181820F931F20911405309115052817DA
:101D3000390779F5F0931505E093140571C0D801C2
:101D400040E050E0AE17BF0750F412962D913C9141
:101D50001397AD012115310509F1D901F3CF9D018B
:101D6000DA013383228360817181860F971F821786
:101D7000930769F4EC0128813981260F371F2E5F04
:101D80003F4F318320838A819B8193838283452BBC
:101D900029F4F0931705E093160542C01396FC93BF
:101DA000EE931297ED01499159919E01240F351F31
:101DB000E217F30771F480819181840F951F0296D9
:101DC00011969C938E938281938113969C938E930C
:101DD0001297E0E0F0E0D80112968D919C91139754
:101DE000009719F0F8018C01F6CF8D919C91980124
:101DF0002E5F3F4F820F931F2091140530911505E0
:101E00002817390769F4309729F4109217051092B2
:101E1000160502C013821282109315050093140553
:101E2000DF91CF911F910F9108956F927F928F92C2
:101E30009F92AF92BF92CF92DF92EF92FF920F9359
:101E40001F93CF93DF93EC01009789F4CB01DF91CF
:101E5000CF911F910F91FF90EF90DF90CF90BF90A7
:101E6000AF909F908F907F906F900C94E80DFC0145
:101E7000E60FF71F9C0122503109E217F30708F41F
:101E8000ACC0D9010D911C91119706171707B0F03E
:101E90000530110508F49FC0C801049786179707FD
:101EA00008F499C002501109061B170B01931193F6
:101EB0006D937C93CF010E947D0E8DC05B01A01AB3
:101EC000B10A4C01800E911EA0911605B091170524
:101ED00040E050E0E12CF12C109709F44AC0A8151D
:101EE000B905D1F56D907C901197630182E0C80E21
:101EF000D11CCA14DB0480F1A3014A195B096A01F1
:101F000082E0C80ED11C1296BC9012971396AC9129
:101F1000B5E0CB16D10440F0B282A3835183408355
:101F2000D9016D937C930AC00E5F1F4FC301800FD0
:101F3000911FF90191838083EB2DFA2FE114F104B5
:101F400031F0D7011396FC93EE93129744C0F093AF
:101F50001705E09316053FC08D919C911197481786
:101F6000590708F4AC017D0112960D90BC91A02D8B
:101F7000B3CF809114059091150588159905E1F46A
:101F800046175707C8F4809100029091010200970C
:101F900041F48DB79EB74091040250910502841B15
:101FA000950BE817F907C8F4F0931505E0931405AD
:101FB000F901718360830FC0CB010E94E80D7C01A1
:101FC000009759F0A801BE010E940310CE010E94A3
:101FD0007D0EC70104C0CE0102C080E090E0DF9119
:101FE000CF911F910F91FF90EF90DF90CF90BF9016
:101FF000AF909F908F907F906F90089581E090E0D8
:10200000F8940C941310FB01DC0102C001900D92B6
:1020100041505040D8F70895FB01DC0101900D922A
:102020000020E1F7089511E0CFE8D1E000E006C01C
:10203000802FFE010E94E00D2196011DC039D107BD
:0A20400080E00807A9F7F894FFCF2D
:10204A0000001805800000000100020003000400DF
:10205A00050006000700080009000A00FFFFFFFF4D
:10206A00FFFFFFFFFFFFFFFFFFFFFFFFFFFFFFFF76
:10207A00FFFF000002000300010000000400050049
:10208A0006000B0090064B0626060606EE05C1055D
:10209A00A90597050000000052027208E0019902A2
:1020AA001102EF010302000000000000000000001E
:1020BA0000001E00000000000000000001000200F5
:1020CA0002000200010001000100000000000000FF
:1020DA000100000000001E001F0020002100220055
:1020EA002300240025007370642E76616C3D007213
:1020FA00657365727665722E76616C3D00707772D3
:10210A002E76616C3D006272616B652E76616C3D64
:10211A00007369672E76616C3D0073696764697341
:10212A002E76616C3D007370646C696D2E76616CFD
:10213A003D00686F726E2E76616C3D007370656546
:10214A0064636F6E73742E76616C3D006D73746B8D
:10215A0065792E76616C3D00656D672E76616C3D02
:02216A00000073
:00000001FF
