:100000000C9461010C9492010C9492010C94920155
:100010000C9492010C9492010C9492010C94920114
:100020000C9492010C9492010C9492010C94920104
:100030000C9492010C9492010C9492010C94CB08B4
:100040000C9492010C9492010C9492010C949201E4
:100050000C9492010C9492010C9492010C94D90787
:100060000C9492010C94A1080C9477080C949201C2
:100070000C9492010C9492010C9492010C949201B4
:100080000C9492010C9492010C9492010C949201A4
:100090000C944D080C9423080C9492010C9492013A
:1000A0000C9492010C9492010C9492010C94920184
:1000B0000C9492010C9492010C9492010C94920174
:1000C0000C9492010C9492010C9492010C94920164
:1000D0000C9492010C9492010C9492010C94920154
:1000E0000C94920111021402030207020B024B024C
:1000F00018021C02220226022A02300234023802AE
:100100004B023E0242024602A407AB07B407BB07FC
:10011000C207C907D2070C94A4070C9418020C94C8
:10012000D2070C94BB070C940B020C9442020C9463
:1001300003020C943E020C94B4070C94C9070C946F
:10014000AB070C9446020C9435030C9411020C94EA
:1001500026020C94CA020C9434020C9422020C94D1
:100160002A020C9412030C9407020C9421030C94A1
:10017000C2070C949E050C9430020C941C020C9443
:1001800043030C944B020C94CB030C942B0B0C9458
:1001900014020C9441090C9438020C94840300005E
:1001A00020002300260029002C002F00320000012F
:1001B000000003010601090100000A0B02090C0DF1
:1001C0000E0807030401000000000000000000000A
:1001D000000000000000000000000000000000001F
:1001E00000000000121110000000000000000000DC
:1001F00000000000000000000000000000000000FF
:100200002200250028002B002E00310034000201BE
:100210000000050108010B01000021002400270057
:100220002A002D0030003300010100000401070105
:100230000A0105050505070508080808020202026B
:100240000A0A080804040404010101010101010172
:100250000303030303030303040707070C0C0C0C3D
:100260000C0C0C0C02020202060606060606060626
:100270000B0B0B0B0B0B0B0B0102102020080810B3
:100280002040102040800201020108040201010206
:1002900004081020408080402010080402018004DF
:1002A000020180402010080402010804020101023A
:1002B00004081020408001020408102040804109F9
:1002C0002B0B11241FBECFEFD1E2DEBFCDBF00E06C
:1002D0000CBF24E0ACE6B2E001C01D92A930B20729
:1002E000E1F712E0A0E0B2E0EAE0FCE100E00BBFE1
:1002F00002C007900D92AC36B107D9F711E0C0E605
:10030000D1E000E006C021970109802FFE010E9484
:10031000C00BCF35D10780E00807A9F70E94FF097D
:100320000C94F30D0C940000FC01A089B18982E0CB
:100330008C93A485B5851C92A685B78580E18C93A6
:10034000108EA489B58986E08C93A289B3898C919B
:1003500080618C93A289B3898C9188608C93A289E7
:10036000B3898C9180688C930288F389E02D808119
:100370008F7D80830895CF93DF9390E0FC01E85850
:10038000FD4F2491FC01EE5CFD4F84918823C1F068
:1003900090E0880F991FFC01E85EFD4FC591D49154
:1003A000FC01E250FE4FA591B4919FB7F8943881BB
:1003B000822F809583238883EC91E22BEC939FBF5F
:1003C000DF91CF91089590E0FC01E854FE4F4491F5
:1003D000FC01E858FD4F2491FC01EE5CFD4F949127
:1003E000992309F467C0442309F455C050E0FA0189
:1003F0003197E231F10508F04EC08827EE58FF4FE3
:100400008F4F0C94C00B809180008F7707C0809134
:1004100080008F7D03C080918000877F8093800063
:100420003AC084B58F7702C084B58F7D84BD33C058
:100430008091B0008F7703C08091B0008F7D809352
:10044000B00029C0809190008F7707C08091900004
:100450008F7D03C080919000877F809390001BC0A8
:100460008091A0008F7707C08091A0008F7D03C08E
:100470008091A000877F8093A0000DC08091200113
:100480008F7707C0809120018F7D03C0809120016C
:10049000877F80932001E92FF0E0EE0FFF1FE256E7
:1004A000FE4FA591B491EC912E2381E090E021F4D0
:1004B00080E0089580E090E008953FB7F89480913F
:1004C0007E0290917F02A0918002B091810226B5B8
:1004D000A89B05C02F3F19F00196A11DB11D3FBF7C
:1004E000BA2FA92F982F8827820F911DA11DB11D0A
:1004F000BC01CD0142E0660F771F881F991F4A9506
:10050000D1F708958F929F92AF92BF92CF92DF92D0
:10051000EF92FF926B017C010E945D024B015C0136
:10052000C114D104E104F104F1F00E945D02DC0188
:10053000CB0188199909AA09BB09883E9340A105F6
:10054000B10570F321E0C21AD108E108F10888EE84
:10055000880E83E0981EA11CB11CC114D104E104D3
:10056000F10419F7DDCFFF90EF90DF90CF90BF90AF
:10057000AF909F908F900895DC01ED91FC91DB018D
:1005800014964D915C9115976D917C910280F38149
:10059000E02D1994CF92DF92EF92FF920F931F9369
:1005A000CF93DF936C017A018B01C0E0D0E0CE15D0
:1005B000DF0589F0D8016D918D01D601ED91FC9197
:1005C0000190F081E02DC6011995892B11F47E016F
:1005D00002C02196ECCFC701DF91CF911F910F91FF
:1005E000FF90EF90DF90CF900895FC01A089B18932
:1005F0008C91A689B78982FD0FC09C91818D8F5FF8
:100600008F73228D821749F0218DDF01A20FB11D5A
:100610005D969C93818F08958C910895089580E054
:1006200090E00895FC01538D448D252F30E0842FF8
:1006300090E0821B930B541710F0CF96089501970A
:100640000895FC01918D828D981761F0828DDF01F4
:10065000A80FB11D5D968C91928D9F5F9F73928FB5
:1006600090E008958FEF9FEF0895FC01918D828DAA
:10067000981731F0828DE80FF11D858D90E0089577
:100680008FEF9FEF0895FC01918D228D892F90E0CF
:10069000805C9F4F821B91098F739927089582E890
:1006A00092E00E94430321E0892B09F420E0822F8D
:1006B00008958FE193E00E94430321E0892B09F420
:1006C00020E0822F0895FC01848DDF01A80FB11D69
:1006D000A35ABF4F2C91848D90E001968F73992778
:1006E000848FA689B7892C93A089B1898C91806465
:1006F0008C93938D848D981306C00288F389E02D26
:1007000080818F7D80830895EF92FF920F931F93D6
:10071000CF93DF93EC0181E0888F9B8D8C8D9813B4
:1007200005C0E889F989808185FD24C0F62E0B8DEE
:1007300010E00F5F1F4F0F731127E02E8C8DE81212
:100740000CC00FB607FCFACFE889F989808185FFD4
:10075000F5CFCE010E946303F1CF8B8DFE01E80F30
:10076000F11DE35AFF4FF0820B8FEA89FB898081EC
:10077000806207C0EE89FF896083E889F9898081FA
:100780008064808381E090E0DF91CF911F910F9191
:10079000FF90EF900895CF93DF93EC01888D88232D
:1007A000C9F0EA89FB89808185FD05C0A889B989DE
:1007B0008C9186FD0FC00FB607FCF5CF808185FFB9
:1007C000F2CFA889B9898C9185FFEDCFCE010E9427
:1007D0006303E7CFDF91CF91089580E090E0892B0C
:1007E00021F00E945903811121C080E090E0892B03
:1007F00021F00E944F0381111CC080E090E0892B02
:1008000041F080E090E0892B21F00E9400008111EE
:1008100013C080E090E0892BA1F080E090E0892B6C
:1008200081F00E94000081110AC008950E9400001A
:10083000DCCF0E940000E1CF0E940000EACF0C94C0
:100840000000089510926D0210926E0210926F02D5
:100850001092700210926C0280917102909172025B
:100860008093B200E0E7F0E08081816080830895AA
:100870006FEF82E892E00E9484036FEF82E892E0DB
:100880000E9484036FEF82E892E00C9484030E943C
:10089000DE0DFC0180819181009711F00C944F0BCB
:1008A00060E070E0CB0108950F931F93CF93DF9327
:1008B000EC0188819981009729F02A813B812617D4
:1008C000370788F48B016F5F7F4F0E94F50C00970C
:1008D00061F0998388831B830A832C813D81232BBC
:1008E00011F4FC01108281E001C080E0DF91CF9122
:1008F0001F910F910895EF92FF920F931F93CF9343
:10090000DF93FC01248135816115710511F480E0CC
:1009100019C041155105A9F07B01EC018A01020FB4
:10092000131FB8010E945404882389F32881398158
:100930008C819D81B701820F931F0E94EC0D1D8356
:100940000C8381E0DF91CF911F910F91FF90EF9089
:100950000895EF92FF920F931F93CF93DF9300D0F0
:100960001F92CDB7DEB77C01862F4AE08E010F5F64
:100970001F4FB80190E00E94760BF8010190002013
:10098000E9F73197AF01401B510BB801C7010E9435
:100990007B040F900F900F900F90DF91CF911F91DC
:1009A0000F91FF90EF900895CF93DF93EC01888132
:1009B0009981009711F00E945D0C198218821D82A6
:1009C0001C821B821A82DF91CF910895EF92FF92D1
:1009D0000F931F93CF93DF93CDB7DEB728970FB652
:1009E000F894DEBF0FBECDBF7C01CB014AE08E0183
:1009F0000F5F1F4FB8010E94760BF8010190002095
:100A0000E9F73197AF01401B510BB801C7010E94B4
:100A10007B04811103C0C7010E94D404C70128963A
:100A20000FB6F894DEBF0FBECDBFDF91CF911F91FF
:100A30000F91FF90EF900895CF93DF93EC010E9408
:100A4000A904811103C0CE010E94D404CE01DF911C
:100A5000CF910895CF93DF93EC016115710561F09B
:100A6000FB0101900020E9F73197AF01461B570BBE
:100A70000E947B04811103C0CE010E94D404CE01E8
:100A8000DF91CF910895EF92FF920F931F93CF9331
:100A9000DF93EC017B018A01BA010E9454048111A9
:100AA00004C0CE010E94D40407C01D830C83B7018B
:100AB000888199810E94EC0DCE01DF91CF911F9129
:100AC0000F91FF90EF900895CF93DF93EC01FB011E
:100AD0008617970761F0608171816115710529F0B2
:100AE000448155810E94430502C00E94D404CE0176
:100AF000DF91CF910895FC0111821082138212823E
:100B0000158214820C946405FC01118210821382F8
:100B10001282158214826115710551F0FB0101905A
:100B20000020E9F73197AF01461B570B0C944305A2
:100B30000895FC01808191810C945D0CAF92BF926D
:100B4000CF92DF92EF92FF920F931F93CF93DF9399
:100B5000CDB7DEB764970FB6F894DEBF0FBECDBF3A
:100B6000809170008E7F809370006BE672E0CE0102
:100B700007960E9484050091BC031091BD036BE6AB
:100B800072E0CE0101960E948405602FCE0101968D
:100B90000E94A90441E050E068E172E0CE010196B4
:100BA0000E947B04612FCE0101960E94A904BE0120
:100BB0006F5F7F4F8FE193E00E94BC02CE010196F0
:100BC0000E94990564E670E080E090E00E94820255
:100BD0008FE193E00E94430318161906A4F48FE1F5
:100BE00093E00E94210389831A8241E050E0BE0114
:100BF0006F5F7F4FCE0107960E947B0465E070E037
:100C000080E090E0E3CF64E670E080E090E00E9456
:100C100082028B859C85892B09F464C0BE01695FC3
:100C20007F4FCE010D960E947B05A988BA886BE69E
:100C300072E0CE0101960E94840500E010E0C12C14
:100C4000D12CE12CF12CA016B1060CF443C08989FB
:100C50009A890817190758F48D859E85009739F0F1
:100C6000FC01E00FF11F80818C3209F45BC10A1591
:100C70001B0569F557C189899A89E816F90608F0B4
:100C80005AC18D859E85009709F455C1FC01EE0D72
:100C9000FF1D80818B8B1C8A41E050E0BE016D5EA0
:100CA0007F4FCE0101960E947B048FEFE81AF80A6D
:100CB000E016F10604F387E0C816D10408F43DC13C
:100CC0008FEFC81AD80A78018FEFE81AF80A0F5F79
:100CD0001F4FB9CFCE0101960E949905CE010D9606
:100CE0000E9499056BE672E0CE0101960E94840590
:100CF00067EC73E0CE010D960E947B056CE271E01B
:100D0000CE010D960E94E604BC01CE0101960E9420
:100D10006405CE010D960E949905BE016F5F7F4F5D
:100D200082E892E00E94BC020E9438041091BF0346
:100D30006DEC73E0CE010D960E947B05612FCE0114
:100D40000D960E941C05BC01CE0101960E9464050F
:100D5000CE010D960E949905BE016F5F7F4F82E81C
:100D600092E00E94BC020E9438041091C0036FED13
:100D700073E0CE010D960E947B05612FCE010D968A
:100D80000E941C05BC01CE0101960E946405CE01A3
:100D90000D960E949905BE016F5F7F4F82E892E039
:100DA0000E94BC020E9438041091C60363ED73E0F8
:100DB000CE010D960E947B05612FCE010D960E94FB
:100DC0001C05BC01CE0101960E946405CE010D9662
:100DD0000E949905BE016F5F7F4F82E892E00E94FA
:100DE000BC020E9438040091C1031091C20365EE59
:100DF00073E0CE010D960E947B05B801CE010D96E1
:100E00000E94E604BC01CE0101960E946405CE0159
:100E10000D960E949905BE016F5F7F4F82E892E0B8
:100E20000E94BC020E9438041091BE0369ED73E079
:100E3000CE010D960E947B05612FCE010D960E947A
:100E40001C05BC01CE0101960E946405CE010D96E1
:100E50000E949905BE016F5F7F4F82E892E00E9479
:100E6000BC020E9438040091C4031091C5036BEECC
:100E700073E0CE010D9617FF0DC00E947B056AE15D
:100E800072E0CE010D960E942A0566277727601B27
:100E9000710B09C00E947B056CE172E0CE010D96DA
:100EA0000E942A05B8010E94E6048C014091F503D6
:100EB0005091F6036091F1037091F2030E947B045C
:100EC000811103C0C8010E94D404B801CE0101966B
:100ED0000E946405CE010D960E949905BE016F5FC8
:100EE0007F4F82E892E00E94BC020E9438040E9478
:100EF0002204CE0101960E949905CE0107960E9418
:100F0000990564960FB6F894DEBF0FBECDBFDF9192
:100F1000CF911F910F91FF90EF90DF90CF90BF90F6
:100F2000AF90089540E050E06BE672E0CE0101968C
:100F30000E944305BDCE80E0ADCEF6018827EC5778
:100F4000FF4F8F4F0C94C00BCE0101960E944904B5
:100F50006093C603B5CECE0101960E9449047093FA
:100F6000C5036093C403ACCECE0101960E94490430
:100F70006093BE03A5CECE0101960E944904609302
:100F8000BF039ECECE0101960E9449046093C00328
:100F900097CECE0101960E9449047093C2036093DC
:100FA000C1038ECECE0101960E9449046093C30313
:100FB00087CE1F920F920FB60F9211242F933F935B
:100FC0008F939F93AF93BF9380917A0290917B020E
:100FD000A0917C02B0917D023091790223E0230F31
:100FE0002D3720F40196A11DB11D05C026E8230F61
:100FF0000296A11DB11D2093790280937A029093ED
:101000007B02A0937C02B0937D0280917E0290913E
:101010007F02A0918002B09181020196A11DB11DB5
:1010200080937E0290937F02A0938002B09381020E
:10103000BF91AF919F918F913F912F910F900FBED4
:101040000F901F9018951F920F920FB60F921124B8
:101050000BB60F922F933F934F935F936F937F93B2
:101060008F939F93AF93BF93EF93FF9382E892E0A8
:101070000E946303FF91EF91BF91AF919F918F9178
:101080007F916F915F914F913F912F910F900BBE88
:101090000F900FBE0F901F9018951F920F920FB6D2
:1010A0000F9211240BB60F922F933F934F935F93A0
:1010B0006F937F938F939F93AF93BF93EF93FF9320
:1010C00082E892E00E94F502FF91EF91BF91AF910B
:1010D0009F918F917F916F915F914F913F912F9150
:1010E0000F900BBE0F900FBE0F901F9018951F9280
:1010F0000F920FB60F9211240BB60F922F933F93BE
:101100004F935F936F937F938F939F93AF93BF930F
:10111000EF93FF938FE193E00E946303FF91EF91C0
:10112000BF91AF919F918F917F916F915F914F91FF
:101130003F912F910F900BBE0F900FBE0F901F90FD
:1011400018951F920F920FB60F9211240BB60F92A3
:101150002F933F934F935F936F937F938F939F93BF
:10116000AF93BF93EF93FF938FE193E00E94F5025B
:10117000FF91EF91BF91AF919F918F917F916F916F
:101180005F914F913F912F910F900BBE0F900FBE2B
:101190000F901F9018951F920F920FB60F92112467
:1011A0000BB60F922F933F934F935F936F937F9361
:1011B0008F939F93AF93BF93EF93FF9380917102AF
:1011C000909172028093B20080916D0290916E02B4
:1011D000A0916F02B09170020196A11DB11D809384
:1011E0006D0290936E02A0936F02B0937002809193
:1011F0006D0290916E02A0916F02B09170024091C9
:10120000750250917602609177027091780284178E
:101210009507A607B70710F180916C0281111EC0D7
:1012200081E080936C0280916D0290916E02A0919A
:101230006F02B0917002841B950BA60BB70B8093C5
:101240006D0290936E02A0936F02B0937002E091D2
:101250007302F0917402199510926C02FF91EF9154
:10126000BF91AF919F918F917F916F915F914F91BE
:101270003F912F910F900BBE0F900FBE0F901F90BC
:101280001895CF93DF93E2E8F2E01382128248EEE2
:1012900053E060E070E044835583668377838AE09F
:1012A00092E0918380832DEC30E0358724872CEC0D
:1012B00030E03787268728EC30E0318B208B29EC13
:1012C00030E0338B228B2AEC30E0358B248B2EECF4
:1012D00030E0378B268B118E128E138E148EEFE139
:1012E000F3E013821282448355836683778391836C
:1012F000808385EC90E09587848784EC90E09787E5
:10130000868780EC90E0918B808B81EC90E0938BD2
:10131000828B82EC90E0958B848B86EC90E0978BAF
:10132000868B118E128E138E148EC3E0D4E086E16C
:1013300088830E94BB0187E189830E94BB01CDEFB6
:10134000D3E089E188830E94BB0188E189830E9400
:10135000BB018FEF9FEFDC018A839B83AC83BD834E
:101360006EE172E087EC93E00E9484056AE272E02D
:101370008DEC93E00E94840563E372E083ED93E0DB
:101380000E94840561E472E089ED93E00E94840587
:101390006DE472E08FED93E00E94840566E572E0F3
:1013A00085EE93E00E94840562E672E08BEE93E0A6
:1013B0000E9484056AE672E081EF93E00E94840552
:1013C0006BE672E087EF93E00E948405ECEBF3E0BC
:1013D00081E0808392E091831282138214821682CC
:1013E000158217821186108682878FE193E00E9412
:1013F000940182E892E0DF91CF910C94940178946B
:1014000084B5826084BD84B5816084BD85B5826009
:1014100085BD85B5816085BD80916E0081608093BA
:101420006E00109281008091810082608093810023
:101430008091810081608093810080918000816033
:10144000809380008091B10084608093B10080918E
:10145000B00081608093B0008091910082608093A1
:101460009100809191008160809391008091900023
:101470008160809390008091A10082608093A100A0
:101480008091A10081608093A1008091A000816083
:101490008093A0008091210182608093210180913E
:1014A00021018160809321018091200181608093DE
:1014B000200180917A00846080937A0080917A0084
:1014C000826080937A0080917A00816080937A00B4
:1014D00080917A00806880937A001092C1008FE139
:1014E00093E00E94940182E892E00E9494018CE2D1
:1014F00091E0A0E0B0E08093750290937602A09313
:101500007702B09378028EE995E09093740280930D
:101510007302809170008E7F809370008091B00084
:101520008C7F8093B0008091B100877F8093B10061
:101530008091B6008F7D8093B600809170008D7F82
:10154000809370008091B10084608093B10080919D
:10155000B1008C7F8093B10086E090E0909372029E
:10156000809371020E942204CC24CA94DC2C760160
:10157000809103040E94E301892B49F080910404C7
:101580000E94E30121E0892B19F420E001C022E050
:101590002093BC038091FD030E94E301892B11F588
:1015A0008091FF0390910004A0910104B091020486
:1015B0008F3F9F4FAF4FBF4F09F045C02FB7F894F3
:1015C00080917A0290917B02A0917C02B0917D0281
:1015D0002FBF8093FF0390930004A0930104B09366
:1015E000020431C08091FE030E94E301892B09F5BA
:1015F0008091FF0390910004A0910104B091020436
:101600008F3F9F4FAF4FBF4F01F52FB7F894809199
:101610007A0290917B02A0917C02B0917D022FBF53
:101620008093FF0390930004A0930104B0930204FD
:101630000CC0C092FF03D0920004E0920104F0922B
:10164000020482E003C081E001C080E08093BD031A
:101650000E94ED038DCF87EF93E00E94990581EF03
:1016600093E00E9499058BEE93E00E94990585EE28
:1016700093E00E9499058FED93E00E94990589ED12
:1016800093E00E94990583ED93E00E9499058DEC0B
:1016900093E00E94990587EC93E00C9499051F93C1
:1016A000FC0199278827BC01E89411911032E9F3D5
:1016B000193010F01E30C8F31B3251F01D3249F4BE
:1016C000689406C00E94810B610F711D811D911DE0
:1016D000119110531A30B0F33EF4909580957095A7
:1016E00061957F4F8F4F9F4F1F910895BB274A30C1
:1016F00031F4992322F4BDE2909581959F4F0C948B
:10170000970B592F482F372F262F660F771F881FCB
:10171000991F660F771F881F991F620F731F841F01
:10172000951F660F771F881F991F0895BB27FB0120
:101730005527AA27880F991FAA1FA41710F0A41BCA
:1017400083955051B9F7A05DAA3308F0A95DA19324
:10175000009779F7B111B1931192CB010C94B00BB2
:10176000DC01FC01672F71917723E1F7329704C008
:101770007C916D9370836291AE17BF07C8F3089593
:10178000EE0FFF1F881F8BBF0790F691E02D199475
:10179000CF93DF938230910510F482E090E0E091E6
:1017A0000704F091080420E030E0C0E0D0E030977A
:1017B00011F14081518148175907C0F04817590766
:1017C00061F482819381209719F09B838A832BC0D7
:1017D000909308048093070426C02115310519F061
:1017E0004217530718F49A01BE01DF01EF0102808E
:1017F000F381E02DDCCF2115310509F1281B390BD0
:101800002430310590F412968D919C9113976115B7
:10181000710521F0FB019383828304C09093080437
:1018200080930704FD01329644C0FD01E20FF31FCF
:1018300081939193225031092D933C933AC020918A
:10184000050430910604232B41F4209102023091CB
:101850000302309306042093050420910002309186
:1018600001022115310541F42DB73EB74091040224
:1018700050910502241B350BE0910504F0910604FC
:10188000E217F307A0F42E1B3F0B2817390778F057
:10189000AC014E5F5F4F2417350748F04E0F5F1FB6
:1018A00050930604409305048193919302C0E0E0B5
:1018B000F0E0CF01DF91CF9108950F931F93CF9365
:1018C000DF93009709F48CC0FC01329713821282D7
:1018D00000910704109108040115110581F420817D
:1018E0003181820F931F209105043091060428173F
:1018F000390779F5F0930604E093050471C0D80127
:1019000040E050E0AE17BF0750F412962D913C9185
:101910001397AD012115310509F1D901F3CF9D01CF
:10192000DA013383228360817181860F971F8217CA
:10193000930769F4EC0128813981260F371F2E5F48
:101940003F4F318320838A819B8193838283452B00
:1019500029F4F0930804E093070442C01396FC9323
:10196000EE931297ED01499159919E01240F351F75
:10197000E217F30771F480819181840F951F02961D
:1019800011969C938E938281938113969C938E9350
:101990001297E0E0F0E0D80112968D919C91139798
:1019A000009719F0F8018C01F6CF8D919C91980168
:1019B0002E5F3F4F820F931F209105043091060444
:1019C0002817390769F4309729F410920804109207
:1019D000070402C0138212821093060400930504C8
:1019E000DF91CF911F910F9108956F927F928F9207
:1019F0009F92AF92BF92CF92DF92EF92FF920F939E
:101A00001F93CF93DF93EC01009789F4CB01DF9113
:101A1000CF911F910F91FF90EF90DF90CF90BF90EB
:101A2000AF909F908F907F906F900C94C80BFC01AB
:101A3000E60FF71F9C0122503109E217F30708F463
:101A4000ACC0D9010D911C91119706171707B0F082
:101A50000530110508F49FC0C80104978617970741
:101A600008F499C002501109061B170B019311933A
:101A70006D937C93CF010E945D0C8DC05B01A01A19
:101A8000B10A4C01800E911EA0910704B091080488
:101A900040E050E0E12CF12C109709F44AC0A81561
:101AA000B905D1F56D907C901197630182E0C80E65
:101AB000D11CCA14DB0480F1A3014A195B096A0135
:101AC00082E0C80ED11C1296BC9012971396AC916E
:101AD000B5E0CB16D10440F0B282A383518340839A
:101AE000D9016D937C930AC00E5F1F4FC301800F15
:101AF000911FF90191838083EB2DFA2FE114F104FA
:101B000031F0D7011396FC93EE93129744C0F093F3
:101B10000804E09307043FC08D919C9111974817EA
:101B2000590708F4AC017D0112960D90BC91A02DCF
:101B3000B3CF809105049091060488159905E1F4CE
:101B400046175707C8F48091000290910102009750
:101B500041F48DB79EB74091040250910502841B59
:101B6000950BE817F907C8F4F0930604E093050411
:101B7000F901718360830FC0CB010E94C80B7C0107
:101B8000009759F0A801BE010E94E30DCE010E940A
:101B90005D0CC70104C0CE0102C080E090E0DF917F
:101BA000CF911F910F91FF90EF90DF90CF90BF905A
:101BB000AF909F908F907F906F90089581E090E01C
:101BC000F8940C94F30DFB01DC0102C001900D921E
:101BD00041505040D8F70895FB01DC0101900D926F
:101BE0000020E1F7089511E0C0E6D1E000E006C072
:101BF000802FFE010E94C00B2196011DC136D10726
:0A1C000080E00807A9F7F894FFCF71
:101C0A00000009048000000000008403CA021203D5
:101C1A00CB034303210335032C00420050007469AF
:101C2A006D65722E7469636B3D007370642E766104
:101C3A006C3D0072657365727665722E76616C3DD5
:101C4A00007370646C696D2E76616C3D0073696710
:101C5A002E76616C3D007369676469732E76616CD8
:0C1C6A003D007077722E7478743D2200EB
:00000001FF
